{
  "contractName": "spu",
  "abi": [
    {
      "inputs": [],
      "stateMutability": "nonpayable",
      "type": "constructor"
    },
    {
      "inputs": [
        {
          "internalType": "uint256",
          "name": "",
          "type": "uint256"
        }
      ],
      "name": "all_employees",
      "outputs": [
        {
          "internalType": "address",
          "name": "",
          "type": "address"
        }
      ],
      "stateMutability": "view",
      "type": "function",
      "constant": true
    },
    {
      "inputs": [],
      "name": "e_counter",
      "outputs": [
        {
          "internalType": "uint256",
          "name": "",
          "type": "uint256"
        }
      ],
      "stateMutability": "view",
      "type": "function",
      "constant": true
    },
    {
      "inputs": [
        {
          "internalType": "uint256",
          "name": "",
          "type": "uint256"
        }
      ],
      "name": "get_course",
      "outputs": [
        {
          "internalType": "uint256",
          "name": "id",
          "type": "uint256"
        },
        {
          "internalType": "string",
          "name": "name",
          "type": "string"
        },
        {
          "internalType": "string",
          "name": "weekly_hour",
          "type": "string"
        },
        {
          "internalType": "string",
          "name": "level",
          "type": "string"
        }
      ],
      "stateMutability": "view",
      "type": "function",
      "constant": true
    },
    {
      "inputs": [],
      "name": "p_counter",
      "outputs": [
        {
          "internalType": "uint256",
          "name": "",
          "type": "uint256"
        }
      ],
      "stateMutability": "view",
      "type": "function",
      "constant": true
    },
    {
      "inputs": [],
      "name": "s_counter",
      "outputs": [
        {
          "internalType": "uint256",
          "name": "",
          "type": "uint256"
        }
      ],
      "stateMutability": "view",
      "type": "function",
      "constant": true
    },
    {
      "inputs": [
        {
          "internalType": "uint256",
          "name": "",
          "type": "uint256"
        }
      ],
      "name": "spu_courses",
      "outputs": [
        {
          "internalType": "uint256",
          "name": "id",
          "type": "uint256"
        },
        {
          "internalType": "string",
          "name": "name",
          "type": "string"
        },
        {
          "internalType": "string",
          "name": "weekly_hour",
          "type": "string"
        },
        {
          "internalType": "string",
          "name": "level",
          "type": "string"
        }
      ],
      "stateMutability": "view",
      "type": "function",
      "constant": true
    },
    {
      "inputs": [
        {
          "internalType": "address",
          "name": "y",
          "type": "address"
        }
      ],
      "name": "ChekIfEmp",
      "outputs": [
        {
          "internalType": "bool",
          "name": "b",
          "type": "bool"
        }
      ],
      "stateMutability": "view",
      "type": "function",
      "constant": true
    },
    {
      "inputs": [
        {
          "internalType": "uint256",
          "name": "_id",
          "type": "uint256"
        },
        {
          "internalType": "address",
          "name": "_address",
          "type": "address"
        }
      ],
      "name": "add_address_to_student",
      "outputs": [
        {
          "internalType": "string",
          "name": "",
          "type": "string"
        }
      ],
      "stateMutability": "nonpayable",
      "type": "function"
    },
    {
      "inputs": [
        {
          "internalType": "uint256",
          "name": "_id",
          "type": "uint256"
        },
        {
          "internalType": "address",
          "name": "_address",
          "type": "address"
        }
      ],
      "name": "add_address_to_prof",
      "outputs": [
        {
          "internalType": "string",
          "name": "",
          "type": "string"
        }
      ],
      "stateMutability": "nonpayable",
      "type": "function"
    },
    {
      "inputs": [
        {
          "internalType": "uint256",
          "name": "id",
          "type": "uint256"
        }
      ],
      "name": "view_student",
      "outputs": [
        {
          "components": [
            {
              "internalType": "uint256",
              "name": "id",
              "type": "uint256"
            },
            {
              "internalType": "string",
              "name": "firstName",
              "type": "string"
            },
            {
              "internalType": "string",
              "name": "lastName",
              "type": "string"
            },
            {
              "internalType": "string",
              "name": "fatherName",
              "type": "string"
            },
            {
              "internalType": "string",
              "name": "motherName",
              "type": "string"
            },
            {
              "internalType": "string",
              "name": "gender",
              "type": "string"
            },
            {
              "internalType": "string",
              "name": "email",
              "type": "string"
            },
            {
              "internalType": "string",
              "name": "collegeName",
              "type": "string"
            },
            {
              "internalType": "string",
              "name": "dateOfBirth",
              "type": "string"
            },
            {
              "internalType": "string",
              "name": "mobileNumber",
              "type": "string"
            },
            {
              "internalType": "uint256",
              "name": "cumulative_averge",
              "type": "uint256"
            },
            {
              "internalType": "address",
              "name": "student_address",
              "type": "address"
            },
            {
              "internalType": "string[]",
              "name": "warnnings",
              "type": "string[]"
            },
            {
              "components": [
                {
                  "internalType": "uint256",
                  "name": "couse_id",
                  "type": "uint256"
                },
                {
                  "internalType": "uint256",
                  "name": "weekly_hours",
                  "type": "uint256"
                },
                {
                  "internalType": "uint256",
                  "name": "mark",
                  "type": "uint256"
                }
              ],
              "internalType": "struct spu.student_courses[]",
              "name": "all_courses",
              "type": "tuple[]"
            }
          ],
          "internalType": "struct spu.student",
          "name": "k",
          "type": "tuple"
        }
      ],
      "stateMutability": "view",
      "type": "function",
      "constant": true
    },
    {
      "inputs": [
        {
          "internalType": "uint256",
          "name": "id",
          "type": "uint256"
        },
        {
          "internalType": "string",
          "name": "name",
          "type": "string"
        },
        {
          "internalType": "string",
          "name": "weekly_hour",
          "type": "string"
        },
        {
          "internalType": "string",
          "name": "level",
          "type": "string"
        }
      ],
      "name": "Add_corse",
      "outputs": [],
      "stateMutability": "nonpayable",
      "type": "function"
    },
    {
      "inputs": [
        {
          "internalType": "uint256",
          "name": "course_id",
          "type": "uint256"
        },
        {
          "internalType": "uint256",
          "name": "w_h",
          "type": "uint256"
        },
        {
          "internalType": "uint256",
          "name": "student_id",
          "type": "uint256"
        },
        {
          "internalType": "uint256",
          "name": "_mark",
          "type": "uint256"
        }
      ],
      "name": "add_course_marks",
      "outputs": [],
      "stateMutability": "nonpayable",
      "type": "function"
    },
    {
      "inputs": [
        {
          "internalType": "uint256",
          "name": "_id",
          "type": "uint256"
        },
        {
          "internalType": "string",
          "name": "_firstName",
          "type": "string"
        },
        {
          "internalType": "string",
          "name": "_lastName",
          "type": "string"
        },
        {
          "internalType": "string",
          "name": "_fatherName",
          "type": "string"
        },
        {
          "internalType": "string",
          "name": "_motherName",
          "type": "string"
        },
        {
          "internalType": "string",
          "name": "_gender",
          "type": "string"
        },
        {
          "internalType": "string",
          "name": "_email",
          "type": "string"
        },
        {
          "internalType": "string",
          "name": "_collegeName",
          "type": "string"
        },
        {
          "internalType": "string",
          "name": "_dateOfBirth",
          "type": "string"
        },
        {
          "internalType": "string",
          "name": "_mobileNumber",
          "type": "string"
        }
      ],
      "name": "register_student",
      "outputs": [],
      "stateMutability": "nonpayable",
      "type": "function"
    },
    {
      "inputs": [
        {
          "internalType": "uint256",
          "name": "_id",
          "type": "uint256"
        },
        {
          "internalType": "string",
          "name": "_firstName",
          "type": "string"
        },
        {
          "internalType": "string",
          "name": "_lastName",
          "type": "string"
        },
        {
          "internalType": "string",
          "name": "_fatherName",
          "type": "string"
        },
        {
          "internalType": "string",
          "name": "_motherName",
          "type": "string"
        },
        {
          "internalType": "string",
          "name": "_gender",
          "type": "string"
        },
        {
          "internalType": "string",
          "name": "_email",
          "type": "string"
        },
        {
          "internalType": "string",
          "name": "_collegeName",
          "type": "string"
        },
        {
          "internalType": "string",
          "name": "_dateOfBirth",
          "type": "string"
        },
        {
          "internalType": "string",
          "name": "_mobileNumber",
          "type": "string"
        },
        {
          "internalType": "string",
          "name": "_specialization",
          "type": "string"
        }
      ],
      "name": "register_prof",
      "outputs": [],
      "stateMutability": "nonpayable",
      "type": "function"
    },
    {
      "inputs": [
        {
          "internalType": "address",
          "name": "_x",
          "type": "address"
        }
      ],
      "name": "register_emp",
      "outputs": [],
      "stateMutability": "nonpayable",
      "type": "function"
    },
    {
      "inputs": [
        {
          "internalType": "uint256",
          "name": "_id",
          "type": "uint256"
        },
        {
          "internalType": "string",
          "name": "_warnning",
          "type": "string"
        }
      ],
      "name": "add_warnning",
      "outputs": [],
      "stateMutability": "nonpayable",
      "type": "function"
    },
    {
      "inputs": [
        {
          "internalType": "uint256",
          "name": "_id",
          "type": "uint256"
        }
      ],
      "name": "get_Courses_Of_Student",
      "outputs": [
        {
          "components": [
            {
              "internalType": "uint256",
              "name": "couse_id",
              "type": "uint256"
            },
            {
              "internalType": "uint256",
              "name": "weekly_hours",
              "type": "uint256"
            },
            {
              "internalType": "uint256",
              "name": "mark",
              "type": "uint256"
            }
          ],
          "internalType": "struct spu.student_courses[]",
          "name": "",
          "type": "tuple[]"
        }
      ],
      "stateMutability": "view",
      "type": "function",
      "constant": true
    },
    {
      "inputs": [
        {
          "internalType": "uint256",
          "name": "_id",
          "type": "uint256"
        }
      ],
      "name": "get_warnnings",
      "outputs": [
        {
          "internalType": "string[]",
          "name": "b",
          "type": "string[]"
        }
      ],
      "stateMutability": "view",
      "type": "function",
      "constant": true
    },
    {
      "inputs": [
        {
          "internalType": "uint256",
          "name": "n",
          "type": "uint256"
        }
      ],
      "name": "Delet_emp",
      "outputs": [],
      "stateMutability": "nonpayable",
      "type": "function"
    },
    {
      "inputs": [
        {
          "internalType": "uint256",
          "name": "_id",
          "type": "uint256"
        }
      ],
      "name": "deleteStudent",
      "outputs": [],
      "stateMutability": "nonpayable",
      "type": "function"
    },
    {
      "inputs": [
        {
          "internalType": "uint256",
          "name": "_id",
          "type": "uint256"
        }
      ],
      "name": "deleteProfessor",
      "outputs": [],
      "stateMutability": "nonpayable",
      "type": "function"
    },
    {
      "inputs": [
        {
          "internalType": "uint256",
          "name": "_id",
          "type": "uint256"
        },
        {
          "internalType": "string",
          "name": "_firstName",
          "type": "string"
        },
        {
          "internalType": "string",
          "name": "_lastName",
          "type": "string"
        },
        {
          "internalType": "string",
          "name": "_fatherName",
          "type": "string"
        },
        {
          "internalType": "string",
          "name": "_motherName",
          "type": "string"
        },
        {
          "internalType": "string",
          "name": "_gender",
          "type": "string"
        },
        {
          "internalType": "string",
          "name": "_email",
          "type": "string"
        },
        {
          "internalType": "string",
          "name": "_collegeName",
          "type": "string"
        },
        {
          "internalType": "string",
          "name": "_dateOfBirth",
          "type": "string"
        },
        {
          "internalType": "string",
          "name": "_mobileNumber",
          "type": "string"
        }
      ],
      "name": "modifyStudent",
      "outputs": [],
      "stateMutability": "nonpayable",
      "type": "function"
    },
    {
      "inputs": [
        {
          "internalType": "uint256",
          "name": "_id",
          "type": "uint256"
        },
        {
          "internalType": "string",
          "name": "_firstName",
          "type": "string"
        },
        {
          "internalType": "string",
          "name": "_lastName",
          "type": "string"
        },
        {
          "internalType": "string",
          "name": "_fatherName",
          "type": "string"
        },
        {
          "internalType": "string",
          "name": "_motherName",
          "type": "string"
        },
        {
          "internalType": "string",
          "name": "_gender",
          "type": "string"
        },
        {
          "internalType": "string",
          "name": "_email",
          "type": "string"
        },
        {
          "internalType": "string",
          "name": "_collegeName",
          "type": "string"
        },
        {
          "internalType": "string",
          "name": "_dateOfBirth",
          "type": "string"
        },
        {
          "internalType": "string",
          "name": "_mobileNumber",
          "type": "string"
        },
        {
          "internalType": "string",
          "name": "_specialization",
          "type": "string"
        }
      ],
      "name": "modifyprof",
      "outputs": [],
      "stateMutability": "nonpayable",
      "type": "function"
    }
  ],
  "bytecode": "0x608060405260006001556000600255600060035534801561001f57600080fd5b50336000806101000a81548173ffffffffffffffffffffffffffffffffffffffff021916908373ffffffffffffffffffffffffffffffffffffffff160217905550615f9780620000706000396000f3fe608060405234801561001057600080fd5b506004361061014d5760003560e01c80638c88956f116100c3578063bbb31e761161007c578063bbb31e76146103b2578063c3aea072146103e2578063c464009d14610412578063d0506e371461042e578063f1ddb1d81461044a578063fa10e048146104665761014d565b80638c88956f146102df578063a589f27c146102fb578063a8199eb01461032e578063ad8f4ebe1461035e578063b5e795b41461037a578063b645307d146103965761014d565b806369e1770c1161011557806369e1770c1461020b5780637a9eb362146102295780637b99c656146102455780637dceb6fe146102755780637e5ebed1146102915780638894117d146102c15761014d565b80630fb8a5601461015257806312692ef31461016e578063269b60081461019e578063284b8ad4146101d157806345fbb7b9146101ed575b600080fd5b61016c60048036038101906101679190614b93565b610496565b005b61018860048036038101906101839190614bf6565b6105c2565b6040516101959190614d23565b60405180910390f35b6101b860048036038101906101b39190614bf6565b610655565b6040516101c89493929190614de4565b60405180910390f35b6101eb60048036038101906101e69190614f73565b61082d565b005b6101f561096f565b604051610202919061514e565b60405180910390f35b610213610975565b604051610220919061514e565b60405180910390f35b610243600480360381019061023e9190614bf6565b61097b565b005b61025f600480360381019061025a9190614bf6565b610b3a565b60405161026c9190615467565b60405180910390f35b61028f600480360381019061028a9190615489565b612e53565b005b6102ab60048036038101906102a69190615695565b612fa8565b6040516102b891906156d5565b60405180910390f35b6102c9613121565b6040516102d6919061514e565b60405180910390f35b6102f960048036038101906102f49190615489565b613127565b005b61031560048036038101906103109190614bf6565b613384565b6040516103259493929190614de4565b60405180910390f35b61034860048036038101906103439190615695565b61354c565b60405161035591906156d5565b60405180910390f35b61037860048036038101906103739190614f73565b6136c5565b005b610394600480360381019061038f9190614bf6565b613901565b005b6103b060048036038101906103ab9190614bf6565b613b4c565b005b6103cc60048036038101906103c79190614bf6565b613daf565b6040516103d99190615706565b60405180910390f35b6103fc60048036038101906103f79190614bf6565b613dee565b60405161040991906157a7565b60405180910390f35b61042c600480360381019061042791906157c9565b613ee2565b005b61044860048036038101906104439190615825565b613f50565b005b610464600480360381019061045f91906158e0565b614095565b005b610480600480360381019061047b9190614b93565b614144565b60405161048d9190615962565b60405180910390f35b3360008054906101000a900473ffffffffffffffffffffffffffffffffffffffff1673ffffffffffffffffffffffffffffffffffffffff168173ffffffffffffffffffffffffffffffffffffffff16146104ef57600080fd5b8160046000600354815260200190815260200160002060006101000a81548173ffffffffffffffffffffffffffffffffffffffff021916908373ffffffffffffffffffffffffffffffffffffffff1602179055506008829080600181540180825580915050600190039060005260206000200160009091909190916101000a81548173ffffffffffffffffffffffffffffffffffffffff021916908373ffffffffffffffffffffffffffffffffffffffff160217905550600360008154809291906105b9906159ac565b91905055505050565b606060066000838152602001908152602001600020600d01805480602002602001604051908101604052809291908181526020016000905b8282101561064a57838290600052602060002090600302016040518060600160405290816000820154815260200160018201548152602001600282015481525050815260200190600101906105fa565b505050509050919050565b6009818154811061066557600080fd5b906000526020600020906005020160009150905080600001549080600101805461068e90615a23565b80601f01602080910402602001604051908101604052809291908181526020018280546106ba90615a23565b80156107075780601f106106dc57610100808354040283529160200191610707565b820191906000526020600020905b8154815290600101906020018083116106ea57829003601f168201915b50505050509080600201805461071c90615a23565b80601f016020809104026020016040519081016040528092919081815260200182805461074890615a23565b80156107955780601f1061076a57610100808354040283529160200191610795565b820191906000526020600020905b81548152906001019060200180831161077857829003601f168201915b5050505050908060030180546107aa90615a23565b80601f01602080910402602001604051908101604052809291908181526020018280546107d690615a23565b80156108235780601f106107f857610100808354040283529160200191610823565b820191906000526020600020905b81548152906001019060200180831161080657829003601f168201915b5050505050905084565b3360008054906101000a900473ffffffffffffffffffffffffffffffffffffffff1673ffffffffffffffffffffffffffffffffffffffff168173ffffffffffffffffffffffffffffffffffffffff161461088657600080fd5b8a600660008d815260200190815260200160002060000154146108a857600080fd5b6000600660008d815260200190815260200160002090508a8160010190816108d09190615c00565b50898160020190816108e29190615c00565b50888160030190816108f49190615c00565b50878160040190816109069190615c00565b50868160050190816109189190615c00565b508581600601908161092a9190615c00565b508481600701908161093c9190615c00565b508381600801908161094e9190615c00565b50828160090190816109609190615c00565b50505050505050505050505050565b60025481565b60015481565b3360008054906101000a900473ffffffffffffffffffffffffffffffffffffffff1673ffffffffffffffffffffffffffffffffffffffff168173ffffffffffffffffffffffffffffffffffffffff16146109d457600080fd5b600882815481106109e8576109e7615cd2565b5b9060005260206000200160006101000a81549073ffffffffffffffffffffffffffffffffffffffff02191690556004600083815260200190815260200160002060006101000a81549073ffffffffffffffffffffffffffffffffffffffff021916905560008290505b600880549050811015610b1d5760086001600880549050610a729190615d01565b81548110610a8357610a82615cd2565b5b9060005260206000200160009054906101000a900473ffffffffffffffffffffffffffffffffffffffff1660088481548110610ac257610ac1615cd2565b5b9060005260206000200160006101000a81548173ffffffffffffffffffffffffffffffffffffffff021916908373ffffffffffffffffffffffffffffffffffffffff1602179055508080610b15906159ac565b915050610a51565b5060036000815480929190610b3190615d35565b91905055505050565b610b426148d9565b60008054906101000a900473ffffffffffffffffffffffffffffffffffffffff1673ffffffffffffffffffffffffffffffffffffffff163373ffffffffffffffffffffffffffffffffffffffff160361129d5760066000838152602001908152602001600020604051806101c001604052908160008201548152602001600182018054610bce90615a23565b80601f0160208091040260200160405190810160405280929190818152602001828054610bfa90615a23565b8015610c475780601f10610c1c57610100808354040283529160200191610c47565b820191906000526020600020905b815481529060010190602001808311610c2a57829003601f168201915b50505050508152602001600282018054610c6090615a23565b80601f0160208091040260200160405190810160405280929190818152602001828054610c8c90615a23565b8015610cd95780601f10610cae57610100808354040283529160200191610cd9565b820191906000526020600020905b815481529060010190602001808311610cbc57829003601f168201915b50505050508152602001600382018054610cf290615a23565b80601f0160208091040260200160405190810160405280929190818152602001828054610d1e90615a23565b8015610d6b5780601f10610d4057610100808354040283529160200191610d6b565b820191906000526020600020905b815481529060010190602001808311610d4e57829003601f168201915b50505050508152602001600482018054610d8490615a23565b80601f0160208091040260200160405190810160405280929190818152602001828054610db090615a23565b8015610dfd5780601f10610dd257610100808354040283529160200191610dfd565b820191906000526020600020905b815481529060010190602001808311610de057829003601f168201915b50505050508152602001600582018054610e1690615a23565b80601f0160208091040260200160405190810160405280929190818152602001828054610e4290615a23565b8015610e8f5780601f10610e6457610100808354040283529160200191610e8f565b820191906000526020600020905b815481529060010190602001808311610e7257829003601f168201915b50505050508152602001600682018054610ea890615a23565b80601f0160208091040260200160405190810160405280929190818152602001828054610ed490615a23565b8015610f215780601f10610ef657610100808354040283529160200191610f21565b820191906000526020600020905b815481529060010190602001808311610f0457829003601f168201915b50505050508152602001600782018054610f3a90615a23565b80601f0160208091040260200160405190810160405280929190818152602001828054610f6690615a23565b8015610fb35780601f10610f8857610100808354040283529160200191610fb3565b820191906000526020600020905b815481529060010190602001808311610f9657829003601f168201915b50505050508152602001600882018054610fcc90615a23565b80601f0160208091040260200160405190810160405280929190818152602001828054610ff890615a23565b80156110455780601f1061101a57610100808354040283529160200191611045565b820191906000526020600020905b81548152906001019060200180831161102857829003601f168201915b5050505050815260200160098201805461105e90615a23565b80601f016020809104026020016040519081016040528092919081815260200182805461108a90615a23565b80156110d75780601f106110ac576101008083540402835291602001916110d7565b820191906000526020600020905b8154815290600101906020018083116110ba57829003601f168201915b50505050508152602001600a8201548152602001600b820160009054906101000a900473ffffffffffffffffffffffffffffffffffffffff1673ffffffffffffffffffffffffffffffffffffffff1673ffffffffffffffffffffffffffffffffffffffff168152602001600c8201805480602002602001604051908101604052809291908181526020016000905b8282101561121157838290600052602060002001805461118490615a23565b80601f01602080910402602001604051908101604052809291908181526020018280546111b090615a23565b80156111fd5780601f106111d2576101008083540402835291602001916111fd565b820191906000526020600020905b8154815290600101906020018083116111e057829003601f168201915b505050505081526020019060010190611165565b505050508152602001600d8201805480602002602001604051908101604052809291908181526020016000905b8282101561128e578382906000526020600020906003020160405180606001604052908160008201548152602001600182015481526020016002820154815250508152602001906001019061123e565b50505050815250509050612e4e565b600115156112aa33614144565b1515036119b95760066000838152602001908152602001600020604051806101c0016040529081600082015481526020016001820180546112ea90615a23565b80601f016020809104026020016040519081016040528092919081815260200182805461131690615a23565b80156113635780601f1061133857610100808354040283529160200191611363565b820191906000526020600020905b81548152906001019060200180831161134657829003601f168201915b5050505050815260200160028201805461137c90615a23565b80601f01602080910402602001604051908101604052809291908181526020018280546113a890615a23565b80156113f55780601f106113ca576101008083540402835291602001916113f5565b820191906000526020600020905b8154815290600101906020018083116113d857829003601f168201915b5050505050815260200160038201805461140e90615a23565b80601f016020809104026020016040519081016040528092919081815260200182805461143a90615a23565b80156114875780601f1061145c57610100808354040283529160200191611487565b820191906000526020600020905b81548152906001019060200180831161146a57829003601f168201915b505050505081526020016004820180546114a090615a23565b80601f01602080910402602001604051908101604052809291908181526020018280546114cc90615a23565b80156115195780601f106114ee57610100808354040283529160200191611519565b820191906000526020600020905b8154815290600101906020018083116114fc57829003601f168201915b5050505050815260200160058201805461153290615a23565b80601f016020809104026020016040519081016040528092919081815260200182805461155e90615a23565b80156115ab5780601f10611580576101008083540402835291602001916115ab565b820191906000526020600020905b81548152906001019060200180831161158e57829003601f168201915b505050505081526020016006820180546115c490615a23565b80601f01602080910402602001604051908101604052809291908181526020018280546115f090615a23565b801561163d5780601f106116125761010080835404028352916020019161163d565b820191906000526020600020905b81548152906001019060200180831161162057829003601f168201915b5050505050815260200160078201805461165690615a23565b80601f016020809104026020016040519081016040528092919081815260200182805461168290615a23565b80156116cf5780601f106116a4576101008083540402835291602001916116cf565b820191906000526020600020905b8154815290600101906020018083116116b257829003601f168201915b505050505081526020016008820180546116e890615a23565b80601f016020809104026020016040519081016040528092919081815260200182805461171490615a23565b80156117615780601f1061173657610100808354040283529160200191611761565b820191906000526020600020905b81548152906001019060200180831161174457829003601f168201915b5050505050815260200160098201805461177a90615a23565b80601f01602080910402602001604051908101604052809291908181526020018280546117a690615a23565b80156117f35780601f106117c8576101008083540402835291602001916117f3565b820191906000526020600020905b8154815290600101906020018083116117d657829003601f168201915b50505050508152602001600a8201548152602001600b820160009054906101000a900473ffffffffffffffffffffffffffffffffffffffff1673ffffffffffffffffffffffffffffffffffffffff1673ffffffffffffffffffffffffffffffffffffffff168152602001600c8201805480602002602001604051908101604052809291908181526020016000905b8282101561192d5783829060005260206000200180546118a090615a23565b80601f01602080910402602001604051908101604052809291908181526020018280546118cc90615a23565b80156119195780601f106118ee57610100808354040283529160200191611919565b820191906000526020600020905b8154815290600101906020018083116118fc57829003601f168201915b505050505081526020019060010190611881565b505050508152602001600d8201805480602002602001604051908101604052809291908181526020016000905b828210156119aa578382906000526020600020906003020160405180606001604052908160008201548152602001600182015481526020016002820154815250508152602001906001019061195a565b50505050815250509050612e4e565b600115156119c6336141fb565b1515036120d55760066000838152602001908152602001600020604051806101c001604052908160008201548152602001600182018054611a0690615a23565b80601f0160208091040260200160405190810160405280929190818152602001828054611a3290615a23565b8015611a7f5780601f10611a5457610100808354040283529160200191611a7f565b820191906000526020600020905b815481529060010190602001808311611a6257829003601f168201915b50505050508152602001600282018054611a9890615a23565b80601f0160208091040260200160405190810160405280929190818152602001828054611ac490615a23565b8015611b115780601f10611ae657610100808354040283529160200191611b11565b820191906000526020600020905b815481529060010190602001808311611af457829003601f168201915b50505050508152602001600382018054611b2a90615a23565b80601f0160208091040260200160405190810160405280929190818152602001828054611b5690615a23565b8015611ba35780601f10611b7857610100808354040283529160200191611ba3565b820191906000526020600020905b815481529060010190602001808311611b8657829003601f168201915b50505050508152602001600482018054611bbc90615a23565b80601f0160208091040260200160405190810160405280929190818152602001828054611be890615a23565b8015611c355780601f10611c0a57610100808354040283529160200191611c35565b820191906000526020600020905b815481529060010190602001808311611c1857829003601f168201915b50505050508152602001600582018054611c4e90615a23565b80601f0160208091040260200160405190810160405280929190818152602001828054611c7a90615a23565b8015611cc75780601f10611c9c57610100808354040283529160200191611cc7565b820191906000526020600020905b815481529060010190602001808311611caa57829003601f168201915b50505050508152602001600682018054611ce090615a23565b80601f0160208091040260200160405190810160405280929190818152602001828054611d0c90615a23565b8015611d595780601f10611d2e57610100808354040283529160200191611d59565b820191906000526020600020905b815481529060010190602001808311611d3c57829003601f168201915b50505050508152602001600782018054611d7290615a23565b80601f0160208091040260200160405190810160405280929190818152602001828054611d9e90615a23565b8015611deb5780601f10611dc057610100808354040283529160200191611deb565b820191906000526020600020905b815481529060010190602001808311611dce57829003601f168201915b50505050508152602001600882018054611e0490615a23565b80601f0160208091040260200160405190810160405280929190818152602001828054611e3090615a23565b8015611e7d5780601f10611e5257610100808354040283529160200191611e7d565b820191906000526020600020905b815481529060010190602001808311611e6057829003601f168201915b50505050508152602001600982018054611e9690615a23565b80601f0160208091040260200160405190810160405280929190818152602001828054611ec290615a23565b8015611f0f5780601f10611ee457610100808354040283529160200191611f0f565b820191906000526020600020905b815481529060010190602001808311611ef257829003601f168201915b50505050508152602001600a8201548152602001600b820160009054906101000a900473ffffffffffffffffffffffffffffffffffffffff1673ffffffffffffffffffffffffffffffffffffffff1673ffffffffffffffffffffffffffffffffffffffff168152602001600c8201805480602002602001604051908101604052809291908181526020016000905b82821015612049578382906000526020600020018054611fbc90615a23565b80601f0160208091040260200160405190810160405280929190818152602001828054611fe890615a23565b80156120355780601f1061200a57610100808354040283529160200191612035565b820191906000526020600020905b81548152906001019060200180831161201857829003601f168201915b505050505081526020019060010190611f9d565b505050508152602001600d8201805480602002602001604051908101604052809291908181526020016000905b828210156120c65783829060005260206000209060030201604051806060016040529081600082015481526020016001820154815260200160028201548152505081526020019060010190612076565b50505050815250509050612e4e565b600115156120e2336142a9565b1515036127f15760066000838152602001908152602001600020604051806101c00160405290816000820154815260200160018201805461212290615a23565b80601f016020809104026020016040519081016040528092919081815260200182805461214e90615a23565b801561219b5780601f106121705761010080835404028352916020019161219b565b820191906000526020600020905b81548152906001019060200180831161217e57829003601f168201915b505050505081526020016002820180546121b490615a23565b80601f01602080910402602001604051908101604052809291908181526020018280546121e090615a23565b801561222d5780601f106122025761010080835404028352916020019161222d565b820191906000526020600020905b81548152906001019060200180831161221057829003601f168201915b5050505050815260200160038201805461224690615a23565b80601f016020809104026020016040519081016040528092919081815260200182805461227290615a23565b80156122bf5780601f10612294576101008083540402835291602001916122bf565b820191906000526020600020905b8154815290600101906020018083116122a257829003601f168201915b505050505081526020016004820180546122d890615a23565b80601f016020809104026020016040519081016040528092919081815260200182805461230490615a23565b80156123515780601f1061232657610100808354040283529160200191612351565b820191906000526020600020905b81548152906001019060200180831161233457829003601f168201915b5050505050815260200160058201805461236a90615a23565b80601f016020809104026020016040519081016040528092919081815260200182805461239690615a23565b80156123e35780601f106123b8576101008083540402835291602001916123e3565b820191906000526020600020905b8154815290600101906020018083116123c657829003601f168201915b505050505081526020016006820180546123fc90615a23565b80601f016020809104026020016040519081016040528092919081815260200182805461242890615a23565b80156124755780601f1061244a57610100808354040283529160200191612475565b820191906000526020600020905b81548152906001019060200180831161245857829003601f168201915b5050505050815260200160078201805461248e90615a23565b80601f01602080910402602001604051908101604052809291908181526020018280546124ba90615a23565b80156125075780601f106124dc57610100808354040283529160200191612507565b820191906000526020600020905b8154815290600101906020018083116124ea57829003601f168201915b5050505050815260200160088201805461252090615a23565b80601f016020809104026020016040519081016040528092919081815260200182805461254c90615a23565b80156125995780601f1061256e57610100808354040283529160200191612599565b820191906000526020600020905b81548152906001019060200180831161257c57829003601f168201915b505050505081526020016009820180546125b290615a23565b80601f01602080910402602001604051908101604052809291908181526020018280546125de90615a23565b801561262b5780601f106126005761010080835404028352916020019161262b565b820191906000526020600020905b81548152906001019060200180831161260e57829003601f168201915b50505050508152602001600a8201548152602001600b820160009054906101000a900473ffffffffffffffffffffffffffffffffffffffff1673ffffffffffffffffffffffffffffffffffffffff1673ffffffffffffffffffffffffffffffffffffffff168152602001600c8201805480602002602001604051908101604052809291908181526020016000905b828210156127655783829060005260206000200180546126d890615a23565b80601f016020809104026020016040519081016040528092919081815260200182805461270490615a23565b80156127515780601f1061272657610100808354040283529160200191612751565b820191906000526020600020905b81548152906001019060200180831161273457829003601f168201915b5050505050815260200190600101906126b9565b505050508152602001600d8201805480602002602001604051908101604052809291908181526020016000905b828210156127e25783829060005260206000209060030201604051806060016040529081600082015481526020016001820154815260200160028201548152505081526020019060010190612792565b50505050815250509050612e4e565b60006006600084815260200190815260200160002090506128106148d9565b81600101805461281f90615a23565b80601f016020809104026020016040519081016040528092919081815260200182805461284b90615a23565b80156128985780601f1061286d57610100808354040283529160200191612898565b820191906000526020600020905b81548152906001019060200180831161287b57829003601f168201915b505050505081602001819052508160020180546128b490615a23565b80601f01602080910402602001604051908101604052809291908181526020018280546128e090615a23565b801561292d5780601f106129025761010080835404028352916020019161292d565b820191906000526020600020905b81548152906001019060200180831161291057829003601f168201915b5050505050816040018190525081600301805461294990615a23565b80601f016020809104026020016040519081016040528092919081815260200182805461297590615a23565b80156129c25780601f10612997576101008083540402835291602001916129c2565b820191906000526020600020905b8154815290600101906020018083116129a557829003601f168201915b505050505081606001819052508160040180546129de90615a23565b80601f0160208091040260200160405190810160405280929190818152602001828054612a0a90615a23565b8015612a575780601f10612a2c57610100808354040283529160200191612a57565b820191906000526020600020905b815481529060010190602001808311612a3a57829003601f168201915b50505050508160800181905250816005018054612a7390615a23565b80601f0160208091040260200160405190810160405280929190818152602001828054612a9f90615a23565b8015612aec5780601f10612ac157610100808354040283529160200191612aec565b820191906000526020600020905b815481529060010190602001808311612acf57829003601f168201915b50505050508160a001819052506040518060400160405280600481526020017f6e756c6c000000000000000000000000000000000000000000000000000000008152508160c00181905250816007018054612b4690615a23565b80601f0160208091040260200160405190810160405280929190818152602001828054612b7290615a23565b8015612bbf5780601f10612b9457610100808354040283529160200191612bbf565b820191906000526020600020905b815481529060010190602001808311612ba257829003601f168201915b50505050508160e00181905250816008018054612bdb90615a23565b80601f0160208091040260200160405190810160405280929190818152602001828054612c0790615a23565b8015612c545780601f10612c2957610100808354040283529160200191612c54565b820191906000526020600020905b815481529060010190602001808311612c3757829003601f168201915b50505050508161010001819052506040518060400160405280600481526020017f6e756c6c0000000000000000000000000000000000000000000000000000000081525081610120018190525081600a015481610140018181525050600081610160019073ffffffffffffffffffffffffffffffffffffffff16908173ffffffffffffffffffffffffffffffffffffffff168152505081600c01805480602002602001604051908101604052809291908181526020016000905b82821015612dba578382906000526020600020018054612d2d90615a23565b80601f0160208091040260200160405190810160405280929190818152602001828054612d5990615a23565b8015612da65780601f10612d7b57610100808354040283529160200191612da6565b820191906000526020600020905b815481529060010190602001808311612d8957829003601f168201915b505050505081526020019060010190612d0e565b5050505081610180018190525081600d01805480602002602001604051908101604052809291908181526020016000905b82821015612e3b5783829060005260206000209060030201604051806060016040529081600082015481526020016001820154815260200160028201548152505081526020019060010190612deb565b50505050816101a0018190525080925050505b919050565b3360008054906101000a900473ffffffffffffffffffffffffffffffffffffffff1673ffffffffffffffffffffffffffffffffffffffff168173ffffffffffffffffffffffffffffffffffffffff1614612eac57600080fd5b8b600560008e81526020019081526020016000206000015414612ece57600080fd5b6000600560008e815260200190815260200160002090508b816001019081612ef69190615c00565b508a816002019081612f089190615c00565b5089816003019081612f1a9190615c00565b5088816004019081612f2c9190615c00565b5087816005019081612f3e9190615c00565b5086816006019081612f509190615c00565b5085816007019081612f629190615c00565b5084816008019081612f749190615c00565b5083816009019081612f869190615c00565b508281600a019081612f989190615c00565b5050505050505050505050505050565b60603360011515612fb882614144565b151514612fc457600080fd5b60006040518060400160405280601181526020017f6964206973206e6f7420636f7272656374000000000000000000000000000000815250905060006040518060400160405280601481526020017f656e7465726564207375636365737366756c6c7900000000000000000000000081525090506001151561304587614357565b1515036131145760006005600088815260200190815260200160002090508581600b0160006101000a81548173ffffffffffffffffffffffffffffffffffffffff021916908373ffffffffffffffffffffffffffffffffffffffff160217905550600c869080600181540180825580915050600190039060005260206000200160009091909190916101000a81548173ffffffffffffffffffffffffffffffffffffffff021916908373ffffffffffffffffffffffffffffffffffffffff16021790555081945050505061311a565b81935050505b5092915050565b60035481565b3360008054906101000a900473ffffffffffffffffffffffffffffffffffffffff1673ffffffffffffffffffffffffffffffffffffffff168173ffffffffffffffffffffffffffffffffffffffff161461318057600080fd5b60008c1161318d57600080fd5b60008b511161319b57600080fd5b60008a51116131a957600080fd5b60008951116131b757600080fd5b60008851116131c557600080fd5b60008751116131d357600080fd5b60008651116131e157600080fd5b6131ea866143b9565b6131f357600080fd5b600085511161320157600080fd5b600084511161320f57600080fd5b613218846144dd565b61322157600080fd5b600083511161322f57600080fd5b600082511161323d57600080fd5b6000600560008e8152602001908152602001600020600001541461326057600080fd5b6000600560008e815260200190815260200160002090508c81600001819055508b8160010190816132919190615c00565b508a8160020190816132a39190615c00565b50898160030190816132b59190615c00565b50888160040190816132c79190615c00565b50878160050190816132d99190615c00565b50868160060190816132eb9190615c00565b50858160070190816132fd9190615c00565b508481600801908161330f9190615c00565b50838160090190816133219190615c00565b508281600a0190816133339190615c00565b50600d8d908060018154018082558091505060019003906000526020600020016000909190919091505560026000815480929190613370906159ac565b919050555050505050505050505050505050565b60076020528060005260406000206000915090508060000154908060010180546133ad90615a23565b80601f01602080910402602001604051908101604052809291908181526020018280546133d990615a23565b80156134265780601f106133fb57610100808354040283529160200191613426565b820191906000526020600020905b81548152906001019060200180831161340957829003601f168201915b50505050509080600201805461343b90615a23565b80601f016020809104026020016040519081016040528092919081815260200182805461346790615a23565b80156134b45780601f10613489576101008083540402835291602001916134b4565b820191906000526020600020905b81548152906001019060200180831161349757829003601f168201915b5050505050908060030180546134c990615a23565b80601f01602080910402602001604051908101604052809291908181526020018280546134f590615a23565b80156135425780601f1061351757610100808354040283529160200191613542565b820191906000526020600020905b81548152906001019060200180831161352557829003601f168201915b5050505050905084565b6060336001151561355c82614144565b15151461356857600080fd5b60006040518060400160405280601181526020017f6964206973206e6f7420636f7272656374000000000000000000000000000000815250905060006040518060400160405280601481526020017f656e7465726564207375636365737366756c6c790000000000000000000000008152509050600115156135e9876146ee565b1515036136b85760006006600088815260200190815260200160002090508581600b0160006101000a81548173ffffffffffffffffffffffffffffffffffffffff021916908373ffffffffffffffffffffffffffffffffffffffff160217905550600a869080600181540180825580915050600190039060005260206000200160009091909190916101000a81548173ffffffffffffffffffffffffffffffffffffffff021916908373ffffffffffffffffffffffffffffffffffffffff1602179055508194505050506136be565b81935050505b5092915050565b3360008054906101000a900473ffffffffffffffffffffffffffffffffffffffff1673ffffffffffffffffffffffffffffffffffffffff168173ffffffffffffffffffffffffffffffffffffffff161461371e57600080fd5b60008b1161372b57600080fd5b60008a511161373957600080fd5b600089511161374757600080fd5b600088511161375557600080fd5b600087511161376357600080fd5b600086511161377157600080fd5b600085511161377f57600080fd5b613788856143b9565b61379157600080fd5b600084511161379f57600080fd5b60008351116137ad57600080fd5b6137b6836144dd565b6137bf57600080fd5b60008251116137cd57600080fd5b6000600660008d815260200190815260200160002060000154146137f057600080fd5b6000600660008d815260200190815260200160002090508b81600001819055508a8160010190816138219190615c00565b50898160020190816138339190615c00565b50888160030190816138459190615c00565b50878160040190816138579190615c00565b50868160050190816138699190615c00565b508581600601908161387b9190615c00565b508481600701908161388d9190615c00565b508381600801908161389f9190615c00565b50828160090190816138b19190615c00565b50600b8c9080600181540180825580915050600190039060005260206000200160009091909190915055600160008154809291906138ee906159ac565b9190505550505050505050505050505050565b3360008054906101000a900473ffffffffffffffffffffffffffffffffffffffff1673ffffffffffffffffffffffffffffffffffffffff168173ffffffffffffffffffffffffffffffffffffffff161461395a57600080fd5b61396382614357565b61396c57600080fd5b60056000838152602001908152602001600020600080820160009055600182016000613998919061495e565b6002820160006139a8919061495e565b6003820160006139b8919061495e565b6004820160006139c8919061495e565b6005820160006139d8919061495e565b6006820160006139e8919061495e565b6007820160006139f8919061495e565b600882016000613a08919061495e565b600982016000613a18919061495e565b600a82016000613a28919061495e565b600b820160006101000a81549073ffffffffffffffffffffffffffffffffffffffff02191690555050600080600090505b600d80549050811015613aa65783600d8281548110613a7b57613a7a615cd2565b5b906000526020600020015403613a9357809150613aa6565b8080613a9e906159ac565b915050613a59565b50600d80549050811015613b2f57600d6001600d80549050613ac89190615d01565b81548110613ad957613ad8615cd2565b5b9060005260206000200154600d8281548110613af857613af7615cd2565b5b9060005260206000200181905550600d805480613b1857613b17615d5e565b5b600190038181906000526020600020016000905590555b60026000815480929190613b4290615d35565b9190505550505050565b3360008054906101000a900473ffffffffffffffffffffffffffffffffffffffff1673ffffffffffffffffffffffffffffffffffffffff168173ffffffffffffffffffffffffffffffffffffffff1614613ba557600080fd5b613bae826146ee565b613bb757600080fd5b60066000838152602001908152602001600020600080820160009055600182016000613be3919061495e565b600282016000613bf3919061495e565b600382016000613c03919061495e565b600482016000613c13919061495e565b600582016000613c23919061495e565b600682016000613c33919061495e565b600782016000613c43919061495e565b600882016000613c53919061495e565b600982016000613c63919061495e565b600a820160009055600b820160006101000a81549073ffffffffffffffffffffffffffffffffffffffff0219169055600c82016000613ca2919061499e565b600d82016000613cb291906149bf565b5050600080600090505b600b80549050811015613d095783600b8281548110613cde57613cdd615cd2565b5b906000526020600020015403613cf657809150613d09565b8080613d01906159ac565b915050613cbc565b50600b80549050811015613d9257600b6001600b80549050613d2b9190615d01565b81548110613d3c57613d3b615cd2565b5b9060005260206000200154600b8281548110613d5b57613d5a615cd2565b5b9060005260206000200181905550600b805480613d7b57613d7a615d5e565b5b600190038181906000526020600020016000905590555b60016000815480929190613da590615d35565b9190505550505050565b60088181548110613dbf57600080fd5b906000526020600020016000915054906101000a900473ffffffffffffffffffffffffffffffffffffffff1681565b60608060066000848152602001908152602001600020600c01805480602002602001604051908101604052809291908181526020016000905b82821015613ed3578382906000526020600020018054613e4690615a23565b80601f0160208091040260200160405190810160405280929190818152602001828054613e7290615a23565b8015613ebf5780601f10613e9457610100808354040283529160200191613ebf565b820191906000526020600020905b815481529060010190602001808311613ea257829003601f168201915b505050505081526020019060010190613e27565b50505050905080915050919050565b3360011515613ef082614144565b151514613efc57600080fd5b600082905060066000858152602001908152602001600020600c0181908060018154018082558091505060019003906000526020600020016000909190919091509081613f499190615c00565b5050505050565b3360008054906101000a900473ffffffffffffffffffffffffffffffffffffffff1673ffffffffffffffffffffffffffffffffffffffff168173ffffffffffffffffffffffffffffffffffffffff1614613fa957600080fd5b600060076000878152602001908152602001600020905085816000018190555084816001019081613fda9190615c00565b5083816002019081613fec9190615c00565b5082816003019081613ffe9190615c00565b50600981908060018154018082558091505060019003906000526020600020906005020160009091909190915060008201548160000155600182018160010190816140499190615da3565b506002820181600201908161405e9190615da3565b50600382018160030190816140739190615da3565b50600482018160040190805461408a9291906149e3565b505050505050505050565b33600115156140a382614144565b1515146140af57600080fd5b60006007600087815260200190815260200160002090506140ce614a4f565b8481600001818152505083816020018181525050816004018190806001815401808255809150506001900390600052602060002090600202016000909190919091506000820151816000015560208201518160010155505061413287878787614750565b61413b856147e3565b50505050505050565b600080600090506003548110156141f4578080614160906159ac565b91505060086001826141729190615d01565b8154811061418357614182615cd2565b5b9060005260206000200160009054906101000a900473ffffffffffffffffffffffffffffffffffffffff1673ffffffffffffffffffffffffffffffffffffffff168373ffffffffffffffffffffffffffffffffffffffff16036141ea5760019150506141f6565b60009150506141f6565b505b919050565b600080600090505b600a8054905081101561429e57600a818154811061422457614223615cd2565b5b9060005260206000200160009054906101000a900473ffffffffffffffffffffffffffffffffffffffff1673ffffffffffffffffffffffffffffffffffffffff168373ffffffffffffffffffffffffffffffffffffffff160361428b5760019150506142a4565b8080614296906159ac565b915050614203565b50600090505b919050565b600080600090505b600c8054905081101561434c57600c81815481106142d2576142d1615cd2565b5b9060005260206000200160009054906101000a900473ffffffffffffffffffffffffffffffffffffffff1673ffffffffffffffffffffffffffffffffffffffff168373ffffffffffffffffffffffffffffffffffffffff1603614339576001915050614352565b8080614344906159ac565b9150506142b1565b50600090505b919050565b600080600090505b600d805490508110156143ae57600d81815481106143805761437f615cd2565b5b9060005260206000200154830361439b5760019150506143b4565b80806143a6906159ac565b91505061435f565b50600090505b919050565b60008082905060008151905060006001905060006001905060005b838110156144c5577f40000000000000000000000000000000000000000000000000000000000000008582815181106144105761440f615cd2565b5b602001015160f81c60f81b7effffffffffffffffffffffffffffffffffffffffffffffffffffffffffffff19160361444757600092505b7f2e0000000000000000000000000000000000000000000000000000000000000085828151811061447b5761447a615cd2565b5b602001015160f81c60f81b7effffffffffffffffffffffffffffffffffffffffffffffffffffffffffffff1916036144b257600091505b80806144bd906159ac565b9150506143d4565b50811580156144d2575080155b945050505050919050565b600080829050600a8151146144f65760009150506146e9565b7f2f000000000000000000000000000000000000000000000000000000000000008160048151811061452b5761452a615cd2565b5b602001015160f81c60f81b7effffffffffffffffffffffffffffffffffffffffffffffffffffffffffffff19161415806145c557507f2f000000000000000000000000000000000000000000000000000000000000008160078151811061459557614594615cd2565b5b602001015160f81c60f81b7effffffffffffffffffffffffffffffffffffffffffffffffffffffffffffff191614155b156145d45760009150506146e9565b60005b81518110156146e25760048114806145ef5750600781145b6146cf577f300000000000000000000000000000000000000000000000000000000000000082828151811061462757614626615cd2565b5b602001015160f81c60f81b7effffffffffffffffffffffffffffffffffffffffffffffffffffffffffffff191610806146be57507f390000000000000000000000000000000000000000000000000000000000000082828151811061468f5761468e615cd2565b5b602001015160f81c60f81b7effffffffffffffffffffffffffffffffffffffffffffffffffffffffffffff1916115b156146ce576000925050506146e9565b5b80806146da906159ac565b9150506145d7565b5060019150505b919050565b600080600090505b600b8054905081101561474557600b818154811061471757614716615cd2565b5b9060005260206000200154830361473257600191505061474b565b808061473d906159ac565b9150506146f6565b50600090505b919050565b600060066000848152602001908152602001600020905061476f614a69565b85816000018181525050828160400181815250508481602001818152505081600d018190806001815401808255809150506001900390600052602060002090600302016000909190919091506000820151816000015560208201518160010155604082015181600201555050505050505050565b600060066000838152602001908152602001600020905060008060005b83600d01805490508110156148be5783600d01818154811061482557614824615cd2565b5b906000526020600020906003020160010154836148429190615e8b565b925083600d01818154811061485a57614859615cd2565b5b90600052602060002090600302016001015484600d01828154811061488257614881615cd2565b5b90600052602060002090600302016002015461489e9190615ebf565b826148a99190615e8b565b915080806148b6906159ac565b915050614800565b5081816148cb9190615f30565b83600a018190555050505050565b604051806101c001604052806000815260200160608152602001606081526020016060815260200160608152602001606081526020016060815260200160608152602001606081526020016060815260200160008152602001600073ffffffffffffffffffffffffffffffffffffffff16815260200160608152602001606081525090565b50805461496a90615a23565b6000825580601f1061497c575061499b565b601f01602090049060005260206000209081019061499a9190614a8a565b5b50565b50805460008255906000526020600020908101906149bc9190614aa7565b50565b50805460008255600302906000526020600020908101906149e09190614acb565b50565b828054828255906000526020600020906002028101928215614a3e5760005260206000209160020282015b82811115614a3d5782826000820154816000015560018201548160010155505091600201919060020190614a0e565b5b509050614a4b9190614afa565b5090565b604051806040016040528060008152602001600081525090565b60405180606001604052806000815260200160008152602001600081525090565b5b80821115614aa3576000816000905550600101614a8b565b5090565b5b80821115614ac75760008181614abe919061495e565b50600101614aa8565b5090565b5b80821115614af6576000808201600090556001820160009055600282016000905550600301614acc565b5090565b5b80821115614b1d57600080820160009055600182016000905550600201614afb565b5090565b6000604051905090565b600080fd5b600080fd5b600073ffffffffffffffffffffffffffffffffffffffff82169050919050565b6000614b6082614b35565b9050919050565b614b7081614b55565b8114614b7b57600080fd5b50565b600081359050614b8d81614b67565b92915050565b600060208284031215614ba957614ba8614b2b565b5b6000614bb784828501614b7e565b91505092915050565b6000819050919050565b614bd381614bc0565b8114614bde57600080fd5b50565b600081359050614bf081614bca565b92915050565b600060208284031215614c0c57614c0b614b2b565b5b6000614c1a84828501614be1565b91505092915050565b600081519050919050565b600082825260208201905092915050565b6000819050602082019050919050565b614c5881614bc0565b82525050565b606082016000820151614c746000850182614c4f565b506020820151614c876020850182614c4f565b506040820151614c9a6040850182614c4f565b50505050565b6000614cac8383614c5e565b60608301905092915050565b6000602082019050919050565b6000614cd082614c23565b614cda8185614c2e565b9350614ce583614c3f565b8060005b83811015614d16578151614cfd8882614ca0565b9750614d0883614cb8565b925050600181019050614ce9565b5085935050505092915050565b60006020820190508181036000830152614d3d8184614cc5565b905092915050565b614d4e81614bc0565b82525050565b600081519050919050565b600082825260208201905092915050565b60005b83811015614d8e578082015181840152602081019050614d73565b60008484015250505050565b6000601f19601f8301169050919050565b6000614db682614d54565b614dc08185614d5f565b9350614dd0818560208601614d70565b614dd981614d9a565b840191505092915050565b6000608082019050614df96000830187614d45565b8181036020830152614e0b8186614dab565b90508181036040830152614e1f8185614dab565b90508181036060830152614e338184614dab565b905095945050505050565b600080fd5b600080fd5b7f4e487b7100000000000000000000000000000000000000000000000000000000600052604160045260246000fd5b614e8082614d9a565b810181811067ffffffffffffffff82111715614e9f57614e9e614e48565b5b80604052505050565b6000614eb2614b21565b9050614ebe8282614e77565b919050565b600067ffffffffffffffff821115614ede57614edd614e48565b5b614ee782614d9a565b9050602081019050919050565b82818337600083830152505050565b6000614f16614f1184614ec3565b614ea8565b905082815260208101848484011115614f3257614f31614e43565b5b614f3d848285614ef4565b509392505050565b600082601f830112614f5a57614f59614e3e565b5b8135614f6a848260208601614f03565b91505092915050565b6000806000806000806000806000806101408b8d031215614f9757614f96614b2b565b5b6000614fa58d828e01614be1565b9a505060208b013567ffffffffffffffff811115614fc657614fc5614b30565b5b614fd28d828e01614f45565b99505060408b013567ffffffffffffffff811115614ff357614ff2614b30565b5b614fff8d828e01614f45565b98505060608b013567ffffffffffffffff8111156150205761501f614b30565b5b61502c8d828e01614f45565b97505060808b013567ffffffffffffffff81111561504d5761504c614b30565b5b6150598d828e01614f45565b96505060a08b013567ffffffffffffffff81111561507a57615079614b30565b5b6150868d828e01614f45565b95505060c08b013567ffffffffffffffff8111156150a7576150a6614b30565b5b6150b38d828e01614f45565b94505060e08b013567ffffffffffffffff8111156150d4576150d3614b30565b5b6150e08d828e01614f45565b9350506101008b013567ffffffffffffffff81111561510257615101614b30565b5b61510e8d828e01614f45565b9250506101208b013567ffffffffffffffff8111156151305761512f614b30565b5b61513c8d828e01614f45565b9150509295989b9194979a5092959850565b60006020820190506151636000830184614d45565b92915050565b600082825260208201905092915050565b600061518582614d54565b61518f8185615169565b935061519f818560208601614d70565b6151a881614d9a565b840191505092915050565b6151bc81614b55565b82525050565b600081519050919050565b600082825260208201905092915050565b6000819050602082019050919050565b60006151fa838361517a565b905092915050565b6000602082019050919050565b600061521a826151c2565b61522481856151cd565b935083602082028501615236856151de565b8060005b85811015615272578484038952815161525385826151ee565b945061525e83615202565b925060208a0199505060018101905061523a565b50829750879550505050505092915050565b600082825260208201905092915050565b60006152a082614c23565b6152aa8185615284565b93506152b583614c3f565b8060005b838110156152e65781516152cd8882614ca0565b97506152d883614cb8565b9250506001810190506152b9565b5085935050505092915050565b60006101c08301600083015161530c6000860182614c4f565b5060208301518482036020860152615324828261517a565b9150506040830151848203604086015261533e828261517a565b91505060608301518482036060860152615358828261517a565b91505060808301518482036080860152615372828261517a565b91505060a083015184820360a086015261538c828261517a565b91505060c083015184820360c08601526153a6828261517a565b91505060e083015184820360e08601526153c0828261517a565b9150506101008301518482036101008601526153dc828261517a565b9150506101208301518482036101208601526153f8828261517a565b91505061014083015161540f610140860182614c4f565b506101608301516154246101608601826151b3565b5061018083015184820361018086015261543e828261520f565b9150506101a08301518482036101a086015261545a8282615295565b9150508091505092915050565b6000602082019050818103600083015261548181846152f3565b905092915050565b60008060008060008060008060008060006101608c8e0312156154af576154ae614b2b565b5b60006154bd8e828f01614be1565b9b505060208c013567ffffffffffffffff8111156154de576154dd614b30565b5b6154ea8e828f01614f45565b9a505060408c013567ffffffffffffffff81111561550b5761550a614b30565b5b6155178e828f01614f45565b99505060608c013567ffffffffffffffff81111561553857615537614b30565b5b6155448e828f01614f45565b98505060808c013567ffffffffffffffff81111561556557615564614b30565b5b6155718e828f01614f45565b97505060a08c013567ffffffffffffffff81111561559257615591614b30565b5b61559e8e828f01614f45565b96505060c08c013567ffffffffffffffff8111156155bf576155be614b30565b5b6155cb8e828f01614f45565b95505060e08c013567ffffffffffffffff8111156155ec576155eb614b30565b5b6155f88e828f01614f45565b9450506101008c013567ffffffffffffffff81111561561a57615619614b30565b5b6156268e828f01614f45565b9350506101208c013567ffffffffffffffff81111561564857615647614b30565b5b6156548e828f01614f45565b9250506101408c013567ffffffffffffffff81111561567657615675614b30565b5b6156828e828f01614f45565b9150509295989b509295989b9093969950565b600080604083850312156156ac576156ab614b2b565b5b60006156ba85828601614be1565b92505060206156cb85828601614b7e565b9150509250929050565b600060208201905081810360008301526156ef8184614dab565b905092915050565b61570081614b55565b82525050565b600060208201905061571b60008301846156f7565b92915050565b600082825260208201905092915050565b600061573d826151c2565b6157478185615721565b935083602082028501615759856151de565b8060005b85811015615795578484038952815161577685826151ee565b945061578183615202565b925060208a0199505060018101905061575d565b50829750879550505050505092915050565b600060208201905081810360008301526157c18184615732565b905092915050565b600080604083850312156157e0576157df614b2b565b5b60006157ee85828601614be1565b925050602083013567ffffffffffffffff81111561580f5761580e614b30565b5b61581b85828601614f45565b9150509250929050565b6000806000806080858703121561583f5761583e614b2b565b5b600061584d87828801614be1565b945050602085013567ffffffffffffffff81111561586e5761586d614b30565b5b61587a87828801614f45565b935050604085013567ffffffffffffffff81111561589b5761589a614b30565b5b6158a787828801614f45565b925050606085013567ffffffffffffffff8111156158c8576158c7614b30565b5b6158d487828801614f45565b91505092959194509250565b600080600080608085870312156158fa576158f9614b2b565b5b600061590887828801614be1565b945050602061591987828801614be1565b935050604061592a87828801614be1565b925050606061593b87828801614be1565b91505092959194509250565b60008115159050919050565b61595c81615947565b82525050565b60006020820190506159776000830184615953565b92915050565b7f4e487b7100000000000000000000000000000000000000000000000000000000600052601160045260246000fd5b60006159b782614bc0565b91507fffffffffffffffffffffffffffffffffffffffffffffffffffffffffffffffff82036159e9576159e861597d565b5b600182019050919050565b7f4e487b7100000000000000000000000000000000000000000000000000000000600052602260045260246000fd5b60006002820490506001821680615a3b57607f821691505b602082108103615a4e57615a4d6159f4565b5b50919050565b60008190508160005260206000209050919050565b60006020601f8301049050919050565b600082821b905092915050565b600060088302615ab67fffffffffffffffffffffffffffffffffffffffffffffffffffffffffffffffff82615a79565b615ac08683615a79565b95508019841693508086168417925050509392505050565b6000819050919050565b6000615afd615af8615af384614bc0565b615ad8565b614bc0565b9050919050565b6000819050919050565b615b1783615ae2565b615b2b615b2382615b04565b848454615a86565b825550505050565b600090565b615b40615b33565b615b4b818484615b0e565b505050565b5b81811015615b6f57615b64600082615b38565b600181019050615b51565b5050565b601f821115615bb457615b8581615a54565b615b8e84615a69565b81016020851015615b9d578190505b615bb1615ba985615a69565b830182615b50565b50505b505050565b600082821c905092915050565b6000615bd760001984600802615bb9565b1980831691505092915050565b6000615bf08383615bc6565b9150826002028217905092915050565b615c0982614d54565b67ffffffffffffffff811115615c2257615c21614e48565b5b615c2c8254615a23565b615c37828285615b73565b600060209050601f831160018114615c6a5760008415615c58578287015190505b615c628582615be4565b865550615cca565b601f198416615c7886615a54565b60005b82811015615ca057848901518255600182019150602085019450602081019050615c7b565b86831015615cbd5784890151615cb9601f891682615bc6565b8355505b6001600288020188555050505b505050505050565b7f4e487b7100000000000000000000000000000000000000000000000000000000600052603260045260246000fd5b6000615d0c82614bc0565b9150615d1783614bc0565b9250828203905081811115615d2f57615d2e61597d565b5b92915050565b6000615d4082614bc0565b915060008203615d5357615d5261597d565b5b600182039050919050565b7f4e487b7100000000000000000000000000000000000000000000000000000000600052603160045260246000fd5b600081549050615d9c81615a23565b9050919050565b818103615db1575050615e89565b615dba82615d8d565b67ffffffffffffffff811115615dd357615dd2614e48565b5b615ddd8254615a23565b615de8828285615b73565b6000601f831160018114615e175760008415615e05578287015490505b615e0f8582615be4565b865550615e82565b601f198416615e2587615a54565b9650615e3086615a54565b60005b82811015615e5857848901548255600182019150600185019450602081019050615e33565b86831015615e755784890154615e71601f891682615bc6565b8355505b6001600288020188555050505b5050505050505b565b6000615e9682614bc0565b9150615ea183614bc0565b9250828201905080821115615eb957615eb861597d565b5b92915050565b6000615eca82614bc0565b9150615ed583614bc0565b9250828202615ee381614bc0565b91508282048414831517615efa57615ef961597d565b5b5092915050565b7f4e487b7100000000000000000000000000000000000000000000000000000000600052601260045260246000fd5b6000615f3b82614bc0565b9150615f4683614bc0565b925082615f5657615f55615f01565b5b82820490509291505056fea2646970667358221220d03a8b67db14189ada5f0313575eac314422f64fd88f967f52660b2e60b598b864736f6c63430008110033",
  "immutableReferences": {},
  "source": "// SPDX-License-Identifier: MIT\r\npragma solidity >=0.4.22 <0.9.0;\r\n\r\ncontract spu {\r\n    address is_admin;\r\n    constructor() {\r\n        is_admin = msg.sender;\r\n    }\r\n\r\n    //---------------------------------- structures ---------------------------------------------------------------\r\n    struct course_grade {\r\n        uint student_id;\r\n        uint mark;\r\n    }\r\n\r\n    struct student_courses {\r\n        uint couse_id;\r\n        uint weekly_hours;\r\n        uint mark;\r\n    }\r\n\r\n    struct course {\r\n        uint id;\r\n        string name;\r\n        string weekly_hour;\r\n        string level;\r\n        course_grade[] students_grades;\r\n    }\r\n\r\n    struct prof {\r\n        uint id;\r\n        string firstName;\r\n        string lastName;\r\n        string fatherName;\r\n        string motherName;\r\n        string gender;\r\n        string email;\r\n        string collegeName;\r\n        string dateOfBirth;\r\n        string mobileNumber;\r\n        string specialization;\r\n        address prof_address;\r\n    }\r\n\r\n    struct student {\r\n        uint id;\r\n        string firstName;\r\n        string lastName;\r\n        string fatherName;\r\n        string motherName;\r\n        string gender;\r\n        string email;\r\n        string collegeName;\r\n        string dateOfBirth;\r\n        string mobileNumber;\r\n        uint256 cumulative_averge;\r\n        address student_address;\r\n        string[] warnnings;\r\n        student_courses[] all_courses;\r\n    }\r\n\r\n    //---------------------------------- tools ----------------------------------------------------------------------\r\n\r\n    modifier onlyemp(address v) {\r\n        require(ChekIfEmp(v) == true);\r\n        _;\r\n    }\r\n\r\n    modifier onlyAdmin(address x) {\r\n        require(x == is_admin);\r\n        _;\r\n    }\r\n\r\n    uint public s_counter = 0;\r\n    uint public p_counter = 0;\r\n    uint public e_counter = 0;\r\n\r\n    mapping(uint => address) private get_emp;\r\n    mapping(uint => prof) private get_prof;\r\n    mapping(uint => student) private get_student;\r\n    mapping(uint => course) public get_course;\r\n\r\n    address[] public all_employees;\r\n    course[] public spu_courses;\r\n\r\n    address[] private all_students;\r\n    uint[] private all_students_id;\r\n\r\n    address[] private all_profs;\r\n    uint[] private all_profs_id;\r\n    //------------------------------------- Auxiliary functions --------------------------------------\r\n    function chekRole(address a) private view returns (uint) {\r\n        if (a == is_admin) {\r\n            return 1;\r\n        } else if (ChekIfEmp(msg.sender) == true) {\r\n            return 2;\r\n        } else if (ChekIfstudentaddress(msg.sender) == true) {\r\n            return 3;\r\n        } else if (ChekIfprofaddress(msg.sender) == true) {\r\n            return 3;\r\n        } else {\r\n            return 4;\r\n        }\r\n    }\r\n    function ChekIfEmp(address y) public view returns (bool b) {\r\n        uint i = 0;\r\n        while (i < e_counter) {\r\n            i++;\r\n            if (y == all_employees[i - 1]) return true;\r\n            else return false;\r\n        }\r\n    }\r\n    function ChekIfstudent(uint _id) private view returns (bool b) {\r\n        for (uint i = 0; i < all_students_id.length; i++) {\r\n            if (_id == all_students_id[i]) {\r\n                return true;\r\n            }\r\n        }\r\n        return false;\r\n    }\r\n\r\n    function ChekIfstudentaddress(address x) private view returns (bool b) {\r\n        for (uint i = 0; i < all_students.length; i++) {\r\n            if (x == all_students[i]) {\r\n                return true;\r\n            }\r\n        }\r\n        return false;\r\n    }\r\n\r\n    function ChekIfprofaddress(address x) private view returns (bool b) {\r\n        for (uint i = 0; i < all_profs.length; i++) {\r\n            if (x == all_profs[i]) {\r\n                return true;\r\n            }\r\n        }\r\n        return false;\r\n    }\r\n\r\n    function ChekIfprof(uint _id) private view returns (bool b) {\r\n        for (uint i = 0; i < all_profs_id.length; i++) {\r\n            if (_id == all_profs_id[i]) {\r\n                return true;\r\n            }\r\n        }\r\n        return false;\r\n    }\r\n\r\n    function add_mark_To_Student(\r\n        uint course_id,\r\n        uint w_h,\r\n        uint s_id,\r\n        uint _mark\r\n    ) private {\r\n        student storage s = get_student[s_id];\r\n        student_courses memory f;\r\n        f.couse_id = course_id;\r\n        f.mark = _mark;\r\n        f.weekly_hours = w_h;\r\n\r\n        s.all_courses.push(f);\r\n    }\r\n\r\n    function set_cumulative_averge(uint student_id) private {\r\n        student storage s = get_student[student_id];\r\n        uint256 t_h = 0;\r\n        uint256 v = 0;\r\n        for (uint i = 0; i < s.all_courses.length; i++) {\r\n            t_h = t_h + s.all_courses[i].weekly_hours;\r\n            v = v + (s.all_courses[i].mark * s.all_courses[i].weekly_hours);\r\n        }\r\n\r\n        s.cumulative_averge = v / t_h;\r\n    }\r\n\r\n    function add_address_to_student(\r\n        uint _id,\r\n        address _address\r\n    ) public onlyemp(msg.sender) returns (string memory) {\r\n        string memory err = \"id is not correct\";\r\n        string memory don = \"entered successfully\";\r\n\r\n        if (ChekIfstudent(_id) == true) {\r\n            student storage s = get_student[_id];\r\n            s.student_address = _address;\r\n            all_students.push(_address);\r\n            return don;\r\n        } else return err;\r\n    }\r\n\r\n    function add_address_to_prof(\r\n        uint _id,\r\n        address _address\r\n    ) public onlyemp(msg.sender) returns (string memory) {\r\n        string memory err = \"id is not correct\";\r\n        string memory don = \"entered successfully\";\r\n\r\n        if (ChekIfprof(_id) == true) {\r\n            prof storage s = get_prof[_id];\r\n            s.prof_address = _address;\r\n            all_profs.push(_address);\r\n            return don;\r\n        } else return err;\r\n    }\r\n\r\n    function validateEmail(string memory _email) internal pure returns (bool) {\r\n        bytes memory b = bytes(_email);\r\n        uint emailLength = b.length;\r\n        bool noAtSign = true;\r\n        bool noDot = true;\r\n\r\n        for (uint i = 0; i < emailLength; i++) {\r\n            if (b[i] == \"@\") {\r\n                noAtSign = false;\r\n            }\r\n            if (b[i] == \".\") {\r\n                noDot = false;\r\n            }\r\n        }\r\n\r\n        return !noAtSign && !noDot;\r\n    }\r\n    function isValidDateFormat(\r\n        string memory _date\r\n    ) internal pure returns (bool) {\r\n        bytes memory b = bytes(_date);\r\n        if (b.length != 10) {\r\n            return false;\r\n        }\r\n\r\n        if (b[4] != \"/\" || b[7] != \"/\") {\r\n            return false;\r\n        }\r\n\r\n        for (uint i = 0; i < b.length; i++) {\r\n            if (i == 4 || i == 7) {\r\n                continue;\r\n            }\r\n            if (b[i] < \"0\" || b[i] > \"9\") {\r\n                return false;\r\n            }\r\n        }\r\n\r\n        return true;\r\n    }\r\n    //------------------------------------------ main functions ----------------------------------------------------\r\n    function view_student(uint id) public view returns (student memory k) {\r\n        if (msg.sender == is_admin) {\r\n            return get_student[id];\r\n        } else if (ChekIfEmp(msg.sender) == true) {\r\n            return get_student[id];\r\n        } else if (ChekIfstudentaddress(msg.sender) == true) {\r\n            return get_student[id];\r\n        } else if (ChekIfprofaddress(msg.sender) == true) {\r\n            return get_student[id];\r\n        } else {\r\n            student storage s = get_student[id];\r\n            student memory v;\r\n            v.firstName = s.firstName;\r\n            v.lastName = s.lastName;\r\n            v.fatherName = s.fatherName;\r\n            v.motherName = s.motherName;\r\n            v.gender = s.gender;\r\n            v.email = \"null\";\r\n            v.collegeName = s.collegeName;\r\n            v.dateOfBirth = s.dateOfBirth;\r\n            v.mobileNumber = \"null\";\r\n            v.cumulative_averge = s.cumulative_averge;\r\n            v.student_address = 0x0000000000000000000000000000000000000000;\r\n            v.warnnings = s.warnnings;\r\n            v.all_courses = s.all_courses;\r\n            return v;\r\n        }\r\n    }\r\n\r\n    function Add_corse(\r\n        uint id,\r\n        string memory name,\r\n        string memory weekly_hour,\r\n        string memory level\r\n    ) public onlyAdmin(msg.sender) {\r\n        course storage b = get_course[id];\r\n        b.id = id;\r\n        b.name = name;\r\n        b.weekly_hour = weekly_hour;\r\n        b.level = level;\r\n        spu_courses.push(b);\r\n    }\r\n\r\n    function add_course_marks(\r\n        uint course_id,\r\n        uint w_h,\r\n        uint student_id,\r\n        uint _mark\r\n    ) public onlyemp(msg.sender) {\r\n        course storage c = get_course[course_id];\r\n        course_grade memory g;\r\n        g.student_id = student_id;\r\n        g.mark = _mark;\r\n        c.students_grades.push(g);\r\n\r\n        add_mark_To_Student(course_id, w_h, student_id, _mark);\r\n        set_cumulative_averge(student_id);\r\n    }\r\n\r\n    function register_student(\r\n        uint _id,\r\n        string memory _firstName,\r\n        string memory _lastName,\r\n        string memory _fatherName,\r\n        string memory _motherName,\r\n        string memory _gender,\r\n        string memory _email,\r\n        string memory _collegeName,\r\n        string memory _dateOfBirth,\r\n        string memory _mobileNumber\r\n    ) public onlyAdmin(msg.sender) {\r\n        require(_id > 0);\r\n        require(bytes(_firstName).length > 0);\r\n        require(bytes(_lastName).length > 0);\r\n        require(bytes(_fatherName).length > 0);\r\n        require(bytes(_motherName).length > 0);\r\n        require(bytes(_gender).length > 0);\r\n        require(bytes(_email).length > 0);\r\n        require(validateEmail(_email));\r\n        require(bytes(_collegeName).length > 0);\r\n        require(bytes(_dateOfBirth).length > 0);\r\n        require(isValidDateFormat(_dateOfBirth));\r\n        require(bytes(_mobileNumber).length > 0);\r\n        require(get_student[_id].id == 0);\r\n\r\n        student storage s = get_student[_id];\r\n        s.id = _id;\r\n        s.firstName = _firstName;\r\n        s.lastName = _lastName;\r\n        s.fatherName = _fatherName;\r\n        s.motherName = _motherName;\r\n        s.gender = _gender;\r\n        s.email = _email;\r\n        s.collegeName = _collegeName;\r\n        s.dateOfBirth = _dateOfBirth;\r\n        s.mobileNumber = _mobileNumber;\r\n\r\n        all_students_id.push(_id);\r\n        s_counter++;\r\n    }\r\n\r\n    function register_prof(\r\n        uint _id,\r\n        string memory _firstName,\r\n        string memory _lastName,\r\n        string memory _fatherName,\r\n        string memory _motherName,\r\n        string memory _gender,\r\n        string memory _email,\r\n        string memory _collegeName,\r\n        string memory _dateOfBirth,\r\n        string memory _mobileNumber,\r\n        string memory _specialization\r\n    ) public onlyAdmin(msg.sender) {\r\n        require(_id > 0);\r\n        require(bytes(_firstName).length > 0);\r\n        require(bytes(_lastName).length > 0);\r\n        require(bytes(_fatherName).length > 0);\r\n        require(bytes(_motherName).length > 0);\r\n        require(bytes(_gender).length > 0);\r\n        require(bytes(_email).length > 0);\r\n        require(validateEmail(_email));\r\n        require(bytes(_collegeName).length > 0);\r\n        require(bytes(_dateOfBirth).length > 0);\r\n        require(isValidDateFormat(_dateOfBirth));\r\n        require(bytes(_mobileNumber).length > 0);\r\n        require(bytes(_specialization).length > 0);\r\n        require(get_prof[_id].id == 0);\r\n\r\n        prof storage s = get_prof[_id];\r\n\r\n        s.id = _id;\r\n        s.firstName = _firstName;\r\n        s.lastName = _lastName;\r\n        s.fatherName = _fatherName;\r\n        s.motherName = _motherName;\r\n        s.gender = _gender;\r\n        s.email = _email;\r\n        s.collegeName = _collegeName;\r\n        s.dateOfBirth = _dateOfBirth;\r\n        s.mobileNumber = _mobileNumber;\r\n        s.specialization = _specialization;\r\n\r\n        all_profs_id.push(_id);\r\n\r\n        p_counter++;\r\n    }\r\n\r\n    function register_emp(address _x) public onlyAdmin(msg.sender) {\r\n        get_emp[e_counter] = _x;\r\n        all_employees.push(_x);\r\n        e_counter++;\r\n    }\r\n\r\n    function add_warnning(\r\n        uint _id,\r\n        string memory _warnning\r\n    ) public onlyemp(msg.sender) {\r\n        string memory w = _warnning;\r\n        get_student[_id].warnnings.push(w);\r\n    }\r\n\r\n    function get_Courses_Of_Student(\r\n        uint _id\r\n    ) public view returns (student_courses[] memory) {\r\n        return get_student[_id].all_courses;\r\n    }\r\n\r\n    function get_warnnings(uint _id) public view returns (string[] memory b) {\r\n        string[] memory e;\r\n        e = get_student[_id].warnnings;\r\n        return e;\r\n    }\r\n\r\n    function Delet_emp(uint n) public onlyAdmin(msg.sender) {\r\n        delete all_employees[n];\r\n        delete get_emp[n];\r\n\r\n        for (uint i = n; i < all_employees.length; i++) {\r\n            all_employees[n] = all_employees[all_employees.length - 1];\r\n        }\r\n        e_counter--;\r\n    }\r\n\r\n    function deleteStudent(uint _id) public onlyAdmin(msg.sender) {\r\n        require(ChekIfstudent(_id));\r\n\r\n        delete get_student[_id];\r\n        uint indexToDelete;\r\n        for (uint i = 0; i < all_students_id.length; i++) {\r\n            if (all_students_id[i] == _id) {\r\n                indexToDelete = i;\r\n                break;\r\n            }\r\n        }\r\n\r\n        if (indexToDelete < all_students_id.length) {\r\n            all_students_id[indexToDelete] = all_students_id[\r\n                all_students_id.length - 1\r\n            ];\r\n            all_students_id.pop();\r\n        }\r\n        s_counter--;\r\n    }\r\n\r\n    function deleteProfessor(uint _id) public onlyAdmin(msg.sender) {\r\n        require(ChekIfprof(_id));\r\n\r\n        delete get_prof[_id];\r\n        uint indexToDelete;\r\n        for (uint i = 0; i < all_profs_id.length; i++) {\r\n            if (all_profs_id[i] == _id) {\r\n                indexToDelete = i;\r\n                break;\r\n            }\r\n        }\r\n\r\n        if (indexToDelete < all_profs_id.length) {\r\n            all_profs_id[indexToDelete] = all_profs_id[all_profs_id.length - 1];\r\n            all_profs_id.pop();\r\n        }\r\n        p_counter--;\r\n    }\r\n\r\n    function modifyStudent(\r\n        uint _id,\r\n        string memory _firstName,\r\n        string memory _lastName,\r\n        string memory _fatherName,\r\n        string memory _motherName,\r\n        string memory _gender,\r\n        string memory _email,\r\n        string memory _collegeName,\r\n        string memory _dateOfBirth,\r\n        string memory _mobileNumber\r\n    ) public onlyAdmin(msg.sender) {\r\n        require(get_student[_id].id == _id);\r\n\r\n        student storage s = get_student[_id];\r\n        s.firstName = _firstName;\r\n        s.lastName = _lastName;\r\n        s.fatherName = _fatherName;\r\n        s.motherName = _motherName;\r\n        s.gender = _gender;\r\n        s.email = _email;\r\n        s.collegeName = _collegeName;\r\n        s.dateOfBirth = _dateOfBirth;\r\n        s.mobileNumber = _mobileNumber;\r\n    }\r\n\r\n    function modifyprof(\r\n        uint _id,\r\n        string memory _firstName,\r\n        string memory _lastName,\r\n        string memory _fatherName,\r\n        string memory _motherName,\r\n        string memory _gender,\r\n        string memory _email,\r\n        string memory _collegeName,\r\n        string memory _dateOfBirth,\r\n        string memory _mobileNumber,\r\n        string memory _specialization\r\n    ) public onlyAdmin(msg.sender) {\r\n        require(get_prof[_id].id == _id);\r\n\r\n        prof storage s = get_prof[_id];\r\n        s.firstName = _firstName;\r\n        s.lastName = _lastName;\r\n        s.fatherName = _fatherName;\r\n        s.motherName = _motherName;\r\n        s.gender = _gender;\r\n        s.email = _email;\r\n        s.collegeName = _collegeName;\r\n        s.dateOfBirth = _dateOfBirth;\r\n        s.mobileNumber = _mobileNumber;\r\n        s.specialization = _specialization;\r\n    }\r\n}\r\n",
  "sourcePath": "D:\\block_chain\\truffle1\\contracts\\spu.sol",
  "compiler": {
    "name": "solc",
    "version": "0.8.17+commit.8df45f5f.Emscripten.clang"
  },
  "schemaVersion": "3.4.16",
  "updatedAt": "2024-04-25T14:14:36.706Z",
  "networkType": "ethereum",
  "devdoc": {
    "kind": "dev",
    "methods": {},
    "version": 1
  },
  "userdoc": {
    "kind": "user",
    "methods": {},
    "version": 1
  }
}