{
  "contractName": "spu",
  "abi": [
    {
      "inputs": [],
      "stateMutability": "nonpayable",
      "type": "constructor"
    },
    {
      "inputs": [
        {
          "internalType": "uint256",
          "name": "",
          "type": "uint256"
        }
      ],
      "name": "all_employees",
      "outputs": [
        {
          "internalType": "address",
          "name": "",
          "type": "address"
        }
      ],
      "stateMutability": "view",
      "type": "function"
    },
    {
      "inputs": [
        {
          "internalType": "uint256",
          "name": "",
          "type": "uint256"
        }
      ],
      "name": "authorized",
      "outputs": [
        {
          "internalType": "address",
          "name": "",
          "type": "address"
        }
      ],
      "stateMutability": "view",
      "type": "function"
    },
    {
      "inputs": [],
      "name": "e_counter",
      "outputs": [
        {
          "internalType": "uint256",
          "name": "",
          "type": "uint256"
        }
      ],
      "stateMutability": "view",
      "type": "function"
    },
    {
      "inputs": [
        {
          "internalType": "uint256",
          "name": "",
          "type": "uint256"
        }
      ],
      "name": "get_course",
      "outputs": [
        {
          "internalType": "uint256",
          "name": "id",
          "type": "uint256"
        },
        {
          "internalType": "string",
          "name": "name",
          "type": "string"
        },
        {
          "internalType": "string",
          "name": "weekly_hour",
          "type": "string"
        },
        {
          "internalType": "string",
          "name": "level",
          "type": "string"
        },
        {
          "internalType": "string",
          "name": "college",
          "type": "string"
        }
      ],
      "stateMutability": "view",
      "type": "function"
    },
    {
      "inputs": [],
      "name": "p_counter",
      "outputs": [
        {
          "internalType": "uint256",
          "name": "",
          "type": "uint256"
        }
      ],
      "stateMutability": "view",
      "type": "function"
    },
    {
      "inputs": [],
      "name": "s_counter",
      "outputs": [
        {
          "internalType": "uint256",
          "name": "",
          "type": "uint256"
        }
      ],
      "stateMutability": "view",
      "type": "function"
    },
    {
      "inputs": [
        {
          "internalType": "uint256",
          "name": "",
          "type": "uint256"
        }
      ],
      "name": "spu_courses",
      "outputs": [
        {
          "internalType": "uint256",
          "name": "id",
          "type": "uint256"
        },
        {
          "internalType": "string",
          "name": "name",
          "type": "string"
        },
        {
          "internalType": "string",
          "name": "weekly_hour",
          "type": "string"
        },
        {
          "internalType": "string",
          "name": "level",
          "type": "string"
        },
        {
          "internalType": "string",
          "name": "college",
          "type": "string"
        }
      ],
      "stateMutability": "view",
      "type": "function"
    },
    {
      "inputs": [
        {
          "internalType": "address",
          "name": "a",
          "type": "address"
        }
      ],
      "name": "checkRole",
      "outputs": [
        {
          "internalType": "uint256",
          "name": "",
          "type": "uint256"
        }
      ],
      "stateMutability": "view",
      "type": "function"
    },
    {
      "inputs": [
        {
          "internalType": "address",
          "name": "y",
          "type": "address"
        }
      ],
      "name": "ChekIfEmp",
      "outputs": [
        {
          "internalType": "bool",
          "name": "b",
          "type": "bool"
        }
      ],
      "stateMutability": "view",
      "type": "function"
    },
    {
      "inputs": [
        {
          "internalType": "uint256",
          "name": "_id",
          "type": "uint256"
        },
        {
          "internalType": "address",
          "name": "_address",
          "type": "address"
        }
      ],
      "name": "add_address_to_student",
      "outputs": [],
      "stateMutability": "nonpayable",
      "type": "function"
    },
    {
      "inputs": [
        {
          "internalType": "uint256",
          "name": "_id",
          "type": "uint256"
        },
        {
          "internalType": "address",
          "name": "_address",
          "type": "address"
        }
      ],
      "name": "add_address_to_prof",
      "outputs": [],
      "stateMutability": "nonpayable",
      "type": "function"
    },
    {
      "inputs": [
        {
          "internalType": "uint256",
          "name": "id",
          "type": "uint256"
        }
      ],
      "name": "view_student",
      "outputs": [
        {
          "components": [
            {
              "internalType": "uint256",
              "name": "id",
              "type": "uint256"
            },
            {
              "internalType": "string",
              "name": "firstName",
              "type": "string"
            },
            {
              "internalType": "string",
              "name": "lastName",
              "type": "string"
            },
            {
              "internalType": "string",
              "name": "fatherName",
              "type": "string"
            },
            {
              "internalType": "string",
              "name": "motherName",
              "type": "string"
            },
            {
              "internalType": "string",
              "name": "gender",
              "type": "string"
            },
            {
              "internalType": "string",
              "name": "email",
              "type": "string"
            },
            {
              "internalType": "string",
              "name": "collegeName",
              "type": "string"
            },
            {
              "internalType": "string",
              "name": "dateOfBirth",
              "type": "string"
            },
            {
              "internalType": "string",
              "name": "mobileNumber",
              "type": "string"
            },
            {
              "internalType": "uint256",
              "name": "cumulative_averge",
              "type": "uint256"
            },
            {
              "internalType": "address",
              "name": "student_address",
              "type": "address"
            },
            {
              "internalType": "string[]",
              "name": "warnnings",
              "type": "string[]"
            },
            {
              "components": [
                {
                  "internalType": "uint256",
                  "name": "couse_id",
                  "type": "uint256"
                },
                {
                  "internalType": "uint256",
                  "name": "weekly_hours",
                  "type": "uint256"
                },
                {
                  "internalType": "uint256",
                  "name": "mark",
                  "type": "uint256"
                }
              ],
              "internalType": "struct spu.student_courses[]",
              "name": "all_courses",
              "type": "tuple[]"
            }
          ],
          "internalType": "struct spu.student",
          "name": "k",
          "type": "tuple"
        }
      ],
      "stateMutability": "view",
      "type": "function"
    },
    {
      "inputs": [
        {
          "internalType": "uint256",
          "name": "id",
          "type": "uint256"
        },
        {
          "internalType": "string",
          "name": "name",
          "type": "string"
        },
        {
          "internalType": "string",
          "name": "weekly_hour",
          "type": "string"
        },
        {
          "internalType": "string",
          "name": "level",
          "type": "string"
        },
        {
          "internalType": "string",
          "name": "college",
          "type": "string"
        }
      ],
      "name": "Add_corse",
      "outputs": [],
      "stateMutability": "nonpayable",
      "type": "function"
    },
    {
      "inputs": [
        {
          "internalType": "uint256",
          "name": "course_id",
          "type": "uint256"
        },
        {
          "internalType": "uint256",
          "name": "w_h",
          "type": "uint256"
        },
        {
          "internalType": "uint256",
          "name": "student_id",
          "type": "uint256"
        },
        {
          "internalType": "uint256",
          "name": "_mark",
          "type": "uint256"
        }
      ],
      "name": "add_course_marks",
      "outputs": [],
      "stateMutability": "nonpayable",
      "type": "function"
    },
    {
      "inputs": [
        {
          "internalType": "uint256",
          "name": "_id",
          "type": "uint256"
        },
        {
          "internalType": "string",
          "name": "_firstName",
          "type": "string"
        },
        {
          "internalType": "string",
          "name": "_lastName",
          "type": "string"
        },
        {
          "internalType": "string",
          "name": "_fatherName",
          "type": "string"
        },
        {
          "internalType": "string",
          "name": "_motherName",
          "type": "string"
        },
        {
          "internalType": "string",
          "name": "_gender",
          "type": "string"
        },
        {
          "internalType": "string",
          "name": "_email",
          "type": "string"
        },
        {
          "internalType": "string",
          "name": "_collegeName",
          "type": "string"
        },
        {
          "internalType": "string",
          "name": "_dateOfBirth",
          "type": "string"
        },
        {
          "internalType": "string",
          "name": "_mobileNumber",
          "type": "string"
        }
      ],
      "name": "register_student",
      "outputs": [],
      "stateMutability": "nonpayable",
      "type": "function"
    },
    {
      "inputs": [
        {
          "internalType": "uint256",
          "name": "_id",
          "type": "uint256"
        },
        {
          "internalType": "string",
          "name": "_firstName",
          "type": "string"
        },
        {
          "internalType": "string",
          "name": "_lastName",
          "type": "string"
        },
        {
          "internalType": "string",
          "name": "_fatherName",
          "type": "string"
        },
        {
          "internalType": "string",
          "name": "_motherName",
          "type": "string"
        },
        {
          "internalType": "string",
          "name": "_gender",
          "type": "string"
        },
        {
          "internalType": "string",
          "name": "_email",
          "type": "string"
        },
        {
          "internalType": "string",
          "name": "_collegeName",
          "type": "string"
        },
        {
          "internalType": "string",
          "name": "_dateOfBirth",
          "type": "string"
        },
        {
          "internalType": "string",
          "name": "_mobileNumber",
          "type": "string"
        },
        {
          "internalType": "string",
          "name": "_specialization",
          "type": "string"
        }
      ],
      "name": "register_prof",
      "outputs": [],
      "stateMutability": "nonpayable",
      "type": "function"
    },
    {
      "inputs": [
        {
          "internalType": "address",
          "name": "_x",
          "type": "address"
        }
      ],
      "name": "register_emp",
      "outputs": [],
      "stateMutability": "nonpayable",
      "type": "function"
    },
    {
      "inputs": [
        {
          "internalType": "uint256",
          "name": "_id",
          "type": "uint256"
        },
        {
          "internalType": "string",
          "name": "_warnning",
          "type": "string"
        }
      ],
      "name": "add_warnning",
      "outputs": [],
      "stateMutability": "nonpayable",
      "type": "function"
    },
    {
      "inputs": [
        {
          "internalType": "uint256",
          "name": "n",
          "type": "uint256"
        }
      ],
      "name": "Delet_emp",
      "outputs": [],
      "stateMutability": "nonpayable",
      "type": "function"
    },
    {
      "inputs": [
        {
          "internalType": "uint256",
          "name": "_id",
          "type": "uint256"
        }
      ],
      "name": "deleteStudent",
      "outputs": [],
      "stateMutability": "nonpayable",
      "type": "function"
    },
    {
      "inputs": [
        {
          "internalType": "uint256",
          "name": "_id",
          "type": "uint256"
        }
      ],
      "name": "deleteprof",
      "outputs": [],
      "stateMutability": "nonpayable",
      "type": "function"
    },
    {
      "inputs": [
        {
          "internalType": "uint256",
          "name": "_id",
          "type": "uint256"
        },
        {
          "internalType": "string",
          "name": "_firstName",
          "type": "string"
        },
        {
          "internalType": "string",
          "name": "_lastName",
          "type": "string"
        },
        {
          "internalType": "string",
          "name": "_fatherName",
          "type": "string"
        },
        {
          "internalType": "string",
          "name": "_motherName",
          "type": "string"
        },
        {
          "internalType": "string",
          "name": "_gender",
          "type": "string"
        },
        {
          "internalType": "string",
          "name": "_email",
          "type": "string"
        },
        {
          "internalType": "string",
          "name": "_collegeName",
          "type": "string"
        },
        {
          "internalType": "string",
          "name": "_dateOfBirth",
          "type": "string"
        },
        {
          "internalType": "string",
          "name": "_mobileNumber",
          "type": "string"
        }
      ],
      "name": "modifyStudent",
      "outputs": [],
      "stateMutability": "nonpayable",
      "type": "function"
    },
    {
      "inputs": [
        {
          "internalType": "uint256",
          "name": "_id",
          "type": "uint256"
        },
        {
          "internalType": "string",
          "name": "_firstName",
          "type": "string"
        },
        {
          "internalType": "string",
          "name": "_lastName",
          "type": "string"
        },
        {
          "internalType": "string",
          "name": "_fatherName",
          "type": "string"
        },
        {
          "internalType": "string",
          "name": "_motherName",
          "type": "string"
        },
        {
          "internalType": "string",
          "name": "_gender",
          "type": "string"
        },
        {
          "internalType": "string",
          "name": "_email",
          "type": "string"
        },
        {
          "internalType": "string",
          "name": "_collegeName",
          "type": "string"
        },
        {
          "internalType": "string",
          "name": "_dateOfBirth",
          "type": "string"
        },
        {
          "internalType": "string",
          "name": "_mobileNumber",
          "type": "string"
        },
        {
          "internalType": "string",
          "name": "_specialization",
          "type": "string"
        }
      ],
      "name": "modifyprof",
      "outputs": [],
      "stateMutability": "nonpayable",
      "type": "function"
    }
  ],
  "bytecode": "0x608060405260006001556000600255600060035534801561001f57600080fd5b50336000806101000a81548173ffffffffffffffffffffffffffffffffffffffff021916908373ffffffffffffffffffffffffffffffffffffffff1602179055506145e38061006f6000396000f3fe608060405234801561001057600080fd5b506004361061014d5760003560e01c80637e5ebed1116100c3578063ad8f4ebe1161007c578063ad8f4ebe146103a0578063b645307d146103bc578063bbb31e76146103d8578063c464009d14610408578063f1ddb1d814610424578063fa10e048146104405761014d565b80637e5ebed1146102ca5780638894117d146102e65780638c88956f14610304578063a0d7823e14610320578063a589f27c14610350578063a8199eb0146103845761014d565b806345fbb7b91161011557806345fbb7b91461020a578063537243151461022857806369e1770c146102445780637a9eb362146102625780637b99c6561461027e5780637dceb6fe146102ae5761014d565b80630d48669a146101525780630fb8a56014610182578063269b60081461019e578063284b8ad4146101d2578063459e12b0146101ee575b600080fd5b61016c600480360381019061016791906132cd565b610470565b604051610179919061333b565b60405180910390f35b61019c60048036038101906101979190613382565b6104af565b005b6101b860048036038101906101b391906132cd565b6105db565b6040516101c995949392919061344e565b60405180910390f35b6101ec60048036038101906101e791906135f2565b610841565b005b610208600480360381019061020391906137cd565b610983565b005b610212610af0565b60405161021f91906138b8565b60405180910390f35b610242600480360381019061023d91906132cd565b610af6565b005b61024c610cf6565b60405161025991906138b8565b60405180910390f35b61027c600480360381019061027791906132cd565b610cfc565b005b610298600480360381019061029391906132cd565b610de8565b6040516102a59190613c62565b60405180910390f35b6102c860048036038101906102c39190613c84565b611e91565b005b6102e460048036038101906102df9190613e90565b611fe6565b005b6102ee6120d8565b6040516102fb91906138b8565b60405180910390f35b61031e60048036038101906103199190613c84565b6120de565b005b61033a60048036038101906103359190613382565b61225b565b60405161034791906138b8565b60405180910390f35b61036a600480360381019061036591906132cd565b612316565b60405161037b95949392919061344e565b60405180910390f35b61039e60048036038101906103999190613e90565b61256c565b005b6103ba60048036038101906103b591906135f2565b61265e565b005b6103d660048036038101906103d191906132cd565b6127c8565b005b6103f260048036038101906103ed91906132cd565b6129e0565b6040516103ff919061333b565b60405180910390f35b610422600480360381019061041d9190613ed0565b612a1f565b005b61043e60048036038101906104399190613f2c565b612a87565b005b61045a60048036038101906104559190613382565b612b36565b6040516104679190613fae565b60405180910390f35b600e818154811061048057600080fd5b906000526020600020016000915054906101000a900473ffffffffffffffffffffffffffffffffffffffff1681565b3360008054906101000a900473ffffffffffffffffffffffffffffffffffffffff1673ffffffffffffffffffffffffffffffffffffffff168173ffffffffffffffffffffffffffffffffffffffff161461050857600080fd5b8160046000600354815260200190815260200160002060006101000a81548173ffffffffffffffffffffffffffffffffffffffff021916908373ffffffffffffffffffffffffffffffffffffffff1602179055506008829080600181540180825580915050600190039060005260206000200160009091909190916101000a81548173ffffffffffffffffffffffffffffffffffffffff021916908373ffffffffffffffffffffffffffffffffffffffff160217905550600360008154809291906105d290613ff8565b91905055505050565b600981815481106105eb57600080fd5b90600052602060002090600602016000915090508060000154908060010180546106149061406f565b80601f01602080910402602001604051908101604052809291908181526020018280546106409061406f565b801561068d5780601f106106625761010080835404028352916020019161068d565b820191906000526020600020905b81548152906001019060200180831161067057829003601f168201915b5050505050908060020180546106a29061406f565b80601f01602080910402602001604051908101604052809291908181526020018280546106ce9061406f565b801561071b5780601f106106f05761010080835404028352916020019161071b565b820191906000526020600020905b8154815290600101906020018083116106fe57829003601f168201915b5050505050908060030180546107309061406f565b80601f016020809104026020016040519081016040528092919081815260200182805461075c9061406f565b80156107a95780601f1061077e576101008083540402835291602001916107a9565b820191906000526020600020905b81548152906001019060200180831161078c57829003601f168201915b5050505050908060040180546107be9061406f565b80601f01602080910402602001604051908101604052809291908181526020018280546107ea9061406f565b80156108375780601f1061080c57610100808354040283529160200191610837565b820191906000526020600020905b81548152906001019060200180831161081a57829003601f168201915b5050505050905085565b3360008054906101000a900473ffffffffffffffffffffffffffffffffffffffff1673ffffffffffffffffffffffffffffffffffffffff168173ffffffffffffffffffffffffffffffffffffffff161461089a57600080fd5b8a600660008d815260200190815260200160002060000154146108bc57600080fd5b6000600660008d815260200190815260200160002090508a8160010190816108e4919061424c565b50898160020190816108f6919061424c565b5088816003019081610908919061424c565b508781600401908161091a919061424c565b508681600501908161092c919061424c565b508581600601908161093e919061424c565b5084816007019081610950919061424c565b5083816008019081610962919061424c565b5082816009019081610974919061424c565b50505050505050505050505050565b3360008054906101000a900473ffffffffffffffffffffffffffffffffffffffff1673ffffffffffffffffffffffffffffffffffffffff168173ffffffffffffffffffffffffffffffffffffffff16146109dc57600080fd5b600060076000888152602001908152602001600020905086816000018190555085816001019081610a0d919061424c565b5084816002019081610a1f919061424c565b5083816003019081610a31919061424c565b5082816004019081610a43919061424c565b5060098190806001815401808255809150506001900390600052602060002090600602016000909190919091506000820154816000015560018201816001019081610a8e9190614334565b5060028201816002019081610aa39190614334565b5060038201816003019081610ab89190614334565b5060048201816004019081610acd9190614334565b506005820181600501908054610ae492919061303b565b50505050505050505050565b60025481565b3360008054906101000a900473ffffffffffffffffffffffffffffffffffffffff1673ffffffffffffffffffffffffffffffffffffffff168173ffffffffffffffffffffffffffffffffffffffff1614610b4f57600080fd5b60056000838152602001908152602001600020600080820160009055600182016000610b7b91906130a7565b600282016000610b8b91906130a7565b600382016000610b9b91906130a7565b600482016000610bab91906130a7565b600582016000610bbb91906130a7565b600682016000610bcb91906130a7565b600782016000610bdb91906130a7565b600882016000610beb91906130a7565b600982016000610bfb91906130a7565b600a82016000610c0b91906130a7565b600b820160006101000a81549073ffffffffffffffffffffffffffffffffffffffff0219169055505060006001600d80549050610c48919061441c565b9050600d8181548110610c5e57610c5d614450565b5b90600052602060002001548314610cb157600d8181548110610c8357610c82614450565b5b9060005260206000200154600d8481548110610ca257610ca1614450565b5b90600052602060002001819055505b600d805480610cc357610cc261447f565b5b6001900381819060005260206000200160009055905560026000815480929190610cec906144ae565b9190505550505050565b60015481565b3360008054906101000a900473ffffffffffffffffffffffffffffffffffffffff1673ffffffffffffffffffffffffffffffffffffffff168173ffffffffffffffffffffffffffffffffffffffff1614610d5557600080fd5b60088281548110610d6957610d68614450565b5b9060005260206000200160006101000a81549073ffffffffffffffffffffffffffffffffffffffff02191690556004600083815260200190815260200160002060006101000a81549073ffffffffffffffffffffffffffffffffffffffff021916905560036000815480929190610ddf906144ae565b91905055505050565b610df06130e7565b60008054906101000a900473ffffffffffffffffffffffffffffffffffffffff1673ffffffffffffffffffffffffffffffffffffffff163373ffffffffffffffffffffffffffffffffffffffff161480610e56575060011515610e5233612b36565b1515145b80610eda575060011515610e6933612be4565b1515148015610ed957503373ffffffffffffffffffffffffffffffffffffffff1660066000848152602001908152602001600020600b0160009054906101000a900473ffffffffffffffffffffffffffffffffffffffff1673ffffffffffffffffffffffffffffffffffffffff16145b5b80610ef1575060011515610eed33612c92565b1515145b80610f08575060011515610f0433612d40565b1515145b156116155760066000838152602001908152602001600020604051806101c001604052908160008201548152602001600182018054610f469061406f565b80601f0160208091040260200160405190810160405280929190818152602001828054610f729061406f565b8015610fbf5780601f10610f9457610100808354040283529160200191610fbf565b820191906000526020600020905b815481529060010190602001808311610fa257829003601f168201915b50505050508152602001600282018054610fd89061406f565b80601f01602080910402602001604051908101604052809291908181526020018280546110049061406f565b80156110515780601f1061102657610100808354040283529160200191611051565b820191906000526020600020905b81548152906001019060200180831161103457829003601f168201915b5050505050815260200160038201805461106a9061406f565b80601f01602080910402602001604051908101604052809291908181526020018280546110969061406f565b80156110e35780601f106110b8576101008083540402835291602001916110e3565b820191906000526020600020905b8154815290600101906020018083116110c657829003601f168201915b505050505081526020016004820180546110fc9061406f565b80601f01602080910402602001604051908101604052809291908181526020018280546111289061406f565b80156111755780601f1061114a57610100808354040283529160200191611175565b820191906000526020600020905b81548152906001019060200180831161115857829003601f168201915b5050505050815260200160058201805461118e9061406f565b80601f01602080910402602001604051908101604052809291908181526020018280546111ba9061406f565b80156112075780601f106111dc57610100808354040283529160200191611207565b820191906000526020600020905b8154815290600101906020018083116111ea57829003601f168201915b505050505081526020016006820180546112209061406f565b80601f016020809104026020016040519081016040528092919081815260200182805461124c9061406f565b80156112995780601f1061126e57610100808354040283529160200191611299565b820191906000526020600020905b81548152906001019060200180831161127c57829003601f168201915b505050505081526020016007820180546112b29061406f565b80601f01602080910402602001604051908101604052809291908181526020018280546112de9061406f565b801561132b5780601f106113005761010080835404028352916020019161132b565b820191906000526020600020905b81548152906001019060200180831161130e57829003601f168201915b505050505081526020016008820180546113449061406f565b80601f01602080910402602001604051908101604052809291908181526020018280546113709061406f565b80156113bd5780601f10611392576101008083540402835291602001916113bd565b820191906000526020600020905b8154815290600101906020018083116113a057829003601f168201915b505050505081526020016009820180546113d69061406f565b80601f01602080910402602001604051908101604052809291908181526020018280546114029061406f565b801561144f5780601f106114245761010080835404028352916020019161144f565b820191906000526020600020905b81548152906001019060200180831161143257829003601f168201915b50505050508152602001600a8201548152602001600b820160009054906101000a900473ffffffffffffffffffffffffffffffffffffffff1673ffffffffffffffffffffffffffffffffffffffff1673ffffffffffffffffffffffffffffffffffffffff168152602001600c8201805480602002602001604051908101604052809291908181526020016000905b828210156115895783829060005260206000200180546114fc9061406f565b80601f01602080910402602001604051908101604052809291908181526020018280546115289061406f565b80156115755780601f1061154a57610100808354040283529160200191611575565b820191906000526020600020905b81548152906001019060200180831161155857829003601f168201915b5050505050815260200190600101906114dd565b505050508152602001600d8201805480602002602001604051908101604052809291908181526020016000905b8282101561160657838290600052602060002090600302016040518060600160405290816000820154815260200160018201548152602001600282015481525050815260200190600101906115b6565b50505050815250509050611e8c565b600060066000848152602001908152602001600020604051806101c0016040529081600082015481526020016001820180546116509061406f565b80601f016020809104026020016040519081016040528092919081815260200182805461167c9061406f565b80156116c95780601f1061169e576101008083540402835291602001916116c9565b820191906000526020600020905b8154815290600101906020018083116116ac57829003601f168201915b505050505081526020016002820180546116e29061406f565b80601f016020809104026020016040519081016040528092919081815260200182805461170e9061406f565b801561175b5780601f106117305761010080835404028352916020019161175b565b820191906000526020600020905b81548152906001019060200180831161173e57829003601f168201915b505050505081526020016003820180546117749061406f565b80601f01602080910402602001604051908101604052809291908181526020018280546117a09061406f565b80156117ed5780601f106117c2576101008083540402835291602001916117ed565b820191906000526020600020905b8154815290600101906020018083116117d057829003601f168201915b505050505081526020016004820180546118069061406f565b80601f01602080910402602001604051908101604052809291908181526020018280546118329061406f565b801561187f5780601f106118545761010080835404028352916020019161187f565b820191906000526020600020905b81548152906001019060200180831161186257829003601f168201915b505050505081526020016005820180546118989061406f565b80601f01602080910402602001604051908101604052809291908181526020018280546118c49061406f565b80156119115780601f106118e657610100808354040283529160200191611911565b820191906000526020600020905b8154815290600101906020018083116118f457829003601f168201915b5050505050815260200160068201805461192a9061406f565b80601f01602080910402602001604051908101604052809291908181526020018280546119569061406f565b80156119a35780601f10611978576101008083540402835291602001916119a3565b820191906000526020600020905b81548152906001019060200180831161198657829003601f168201915b505050505081526020016007820180546119bc9061406f565b80601f01602080910402602001604051908101604052809291908181526020018280546119e89061406f565b8015611a355780601f10611a0a57610100808354040283529160200191611a35565b820191906000526020600020905b815481529060010190602001808311611a1857829003601f168201915b50505050508152602001600882018054611a4e9061406f565b80601f0160208091040260200160405190810160405280929190818152602001828054611a7a9061406f565b8015611ac75780601f10611a9c57610100808354040283529160200191611ac7565b820191906000526020600020905b815481529060010190602001808311611aaa57829003601f168201915b50505050508152602001600982018054611ae09061406f565b80601f0160208091040260200160405190810160405280929190818152602001828054611b0c9061406f565b8015611b595780601f10611b2e57610100808354040283529160200191611b59565b820191906000526020600020905b815481529060010190602001808311611b3c57829003601f168201915b50505050508152602001600a8201548152602001600b820160009054906101000a900473ffffffffffffffffffffffffffffffffffffffff1673ffffffffffffffffffffffffffffffffffffffff1673ffffffffffffffffffffffffffffffffffffffff168152602001600c8201805480602002602001604051908101604052809291908181526020016000905b82821015611c93578382906000526020600020018054611c069061406f565b80601f0160208091040260200160405190810160405280929190818152602001828054611c329061406f565b8015611c7f5780601f10611c5457610100808354040283529160200191611c7f565b820191906000526020600020905b815481529060010190602001808311611c6257829003601f168201915b505050505081526020019060010190611be7565b505050508152602001600d8201805480602002602001604051908101604052809291908181526020016000905b82821015611d105783829060005260206000209060030201604051806060016040529081600082015481526020016001820154815260200160028201548152505081526020019060010190611cc0565b505050508152505090506040518060400160405280600481526020017f6e756c6c000000000000000000000000000000000000000000000000000000008152508160c001819052506040518060400160405280600481526020017f6e756c6c00000000000000000000000000000000000000000000000000000000815250816101200181905250600081610160019073ffffffffffffffffffffffffffffffffffffffff16908173ffffffffffffffffffffffffffffffffffffffff1681525050600067ffffffffffffffff811115611dec57611deb6134c7565b5b604051908082528060200260200182016040528015611e1f57816020015b6060815260200190600190039081611e0a5790505b50816101800181905250600067ffffffffffffffff811115611e4457611e436134c7565b5b604051908082528060200260200182016040528015611e7d57816020015b611e6a61316c565b815260200190600190039081611e625790505b50816101a00181905250809150505b919050565b3360008054906101000a900473ffffffffffffffffffffffffffffffffffffffff1673ffffffffffffffffffffffffffffffffffffffff168173ffffffffffffffffffffffffffffffffffffffff1614611eea57600080fd5b8b600560008e81526020019081526020016000206000015414611f0c57600080fd5b6000600560008e815260200190815260200160002090508b816001019081611f34919061424c565b508a816002019081611f46919061424c565b5089816003019081611f58919061424c565b5088816004019081611f6a919061424c565b5087816005019081611f7c919061424c565b5086816006019081611f8e919061424c565b5085816007019081611fa0919061424c565b5084816008019081611fb2919061424c565b5083816009019081611fc4919061424c565b508281600a019081611fd6919061424c565b5050505050505050505050505050565b3360011515611ff482612b36565b15151461200057600080fd5b6001151561200d84612dee565b1515036120d35760006005600085815260200190815260200160002090508281600b0160006101000a81548173ffffffffffffffffffffffffffffffffffffffff021916908373ffffffffffffffffffffffffffffffffffffffff160217905550600c839080600181540180825580915050600190039060005260206000200160009091909190916101000a81548173ffffffffffffffffffffffffffffffffffffffff021916908373ffffffffffffffffffffffffffffffffffffffff160217905550505b505050565b60035481565b3360008054906101000a900473ffffffffffffffffffffffffffffffffffffffff1673ffffffffffffffffffffffffffffffffffffffff168173ffffffffffffffffffffffffffffffffffffffff161461213757600080fd5b6000600560008e815260200190815260200160002090508c81600001819055508b816001019081612168919061424c565b508a81600201908161217a919061424c565b508981600301908161218c919061424c565b508881600401908161219e919061424c565b50878160050190816121b0919061424c565b50868160060190816121c2919061424c565b50858160070190816121d4919061424c565b50848160080190816121e6919061424c565b50838160090190816121f8919061424c565b508281600a01908161220a919061424c565b50600d8d90806001815401808255809150506001900390600052602060002001600090919091909150556002600081548092919061224790613ff8565b919050555050505050505050505050505050565b60008060009054906101000a900473ffffffffffffffffffffffffffffffffffffffff1673ffffffffffffffffffffffffffffffffffffffff168273ffffffffffffffffffffffffffffffffffffffff16036122ba5760019050612311565b600115156122c733612b36565b1515036122d75760029050612311565b600115156122e433612d40565b151514806122fe5750600115156122fa33612c92565b1515145b1561230c5760039050612311565b600490505b919050565b600760205280600052604060002060009150905080600001549080600101805461233f9061406f565b80601f016020809104026020016040519081016040528092919081815260200182805461236b9061406f565b80156123b85780601f1061238d576101008083540402835291602001916123b8565b820191906000526020600020905b81548152906001019060200180831161239b57829003601f168201915b5050505050908060020180546123cd9061406f565b80601f01602080910402602001604051908101604052809291908181526020018280546123f99061406f565b80156124465780601f1061241b57610100808354040283529160200191612446565b820191906000526020600020905b81548152906001019060200180831161242957829003601f168201915b50505050509080600301805461245b9061406f565b80601f01602080910402602001604051908101604052809291908181526020018280546124879061406f565b80156124d45780601f106124a9576101008083540402835291602001916124d4565b820191906000526020600020905b8154815290600101906020018083116124b757829003601f168201915b5050505050908060040180546124e99061406f565b80601f01602080910402602001604051908101604052809291908181526020018280546125159061406f565b80156125625780601f1061253757610100808354040283529160200191612562565b820191906000526020600020905b81548152906001019060200180831161254557829003601f168201915b5050505050905085565b336001151561257a82612b36565b15151461258657600080fd5b6001151561259384612e50565b1515036126595760006006600085815260200190815260200160002090508281600b0160006101000a81548173ffffffffffffffffffffffffffffffffffffffff021916908373ffffffffffffffffffffffffffffffffffffffff160217905550600a839080600181540180825580915050600190039060005260206000200160009091909190916101000a81548173ffffffffffffffffffffffffffffffffffffffff021916908373ffffffffffffffffffffffffffffffffffffffff160217905550505b505050565b3360008054906101000a900473ffffffffffffffffffffffffffffffffffffffff1673ffffffffffffffffffffffffffffffffffffffff168173ffffffffffffffffffffffffffffffffffffffff16146126b757600080fd5b6000600660008d815260200190815260200160002090508b81600001819055508a8160010190816126e8919061424c565b50898160020190816126fa919061424c565b508881600301908161270c919061424c565b508781600401908161271e919061424c565b5086816005019081612730919061424c565b5085816006019081612742919061424c565b5084816007019081612754919061424c565b5083816008019081612766919061424c565b5082816009019081612778919061424c565b50600b8c9080600181540180825580915050600190039060005260206000200160009091909190915055600160008154809291906127b590613ff8565b9190505550505050505050505050505050565b3360008054906101000a900473ffffffffffffffffffffffffffffffffffffffff1673ffffffffffffffffffffffffffffffffffffffff168173ffffffffffffffffffffffffffffffffffffffff161461282157600080fd5b6006600083815260200190815260200160002060008082016000905560018201600061284d91906130a7565b60028201600061285d91906130a7565b60038201600061286d91906130a7565b60048201600061287d91906130a7565b60058201600061288d91906130a7565b60068201600061289d91906130a7565b6007820160006128ad91906130a7565b6008820160006128bd91906130a7565b6009820160006128cd91906130a7565b600a820160009055600b820160006101000a81549073ffffffffffffffffffffffffffffffffffffffff0219169055600c8201600061290c919061318d565b600d8201600061291c91906131ae565b505060006001600b80549050612932919061441c565b9050600b818154811061294857612947614450565b5b9060005260206000200154831461299b57600b818154811061296d5761296c614450565b5b9060005260206000200154600b848154811061298c5761298b614450565b5b90600052602060002001819055505b600b8054806129ad576129ac61447f565b5b60019003818190600052602060002001600090559055600160008154809291906129d6906144ae565b9190505550505050565b600881815481106129f057600080fd5b906000526020600020016000915054906101000a900473ffffffffffffffffffffffffffffffffffffffff1681565b3360011515612a2d82612b36565b151514612a3957600080fd5b60066000848152602001908152602001600020600c0182908060018154018082558091505060019003906000526020600020016000909190919091509081612a81919061424c565b50505050565b3360011515612a9582612b36565b151514612aa157600080fd5b6000600760008781526020019081526020016000209050612ac06131d2565b84816000018181525050838160200181815250508160050181908060018154018082558091505060019003906000526020600020906002020160009091909190915060008201518160000155602082015181600101555050612b2487878787612eb2565b612b2d85612f45565b50505050505050565b600080600090505b600880549050811015612bd95760088181548110612b5f57612b5e614450565b5b9060005260206000200160009054906101000a900473ffffffffffffffffffffffffffffffffffffffff1673ffffffffffffffffffffffffffffffffffffffff168373ffffffffffffffffffffffffffffffffffffffff1603612bc6576001915050612bdf565b8080612bd190613ff8565b915050612b3e565b50600090505b919050565b600080600090505b600a80549050811015612c8757600a8181548110612c0d57612c0c614450565b5b9060005260206000200160009054906101000a900473ffffffffffffffffffffffffffffffffffffffff1673ffffffffffffffffffffffffffffffffffffffff168373ffffffffffffffffffffffffffffffffffffffff1603612c74576001915050612c8d565b8080612c7f90613ff8565b915050612bec565b50600090505b919050565b600080600090505b600c80549050811015612d3557600c8181548110612cbb57612cba614450565b5b9060005260206000200160009054906101000a900473ffffffffffffffffffffffffffffffffffffffff1673ffffffffffffffffffffffffffffffffffffffff168373ffffffffffffffffffffffffffffffffffffffff1603612d22576001915050612d3b565b8080612d2d90613ff8565b915050612c9a565b50600090505b919050565b600080600090505b600e80549050811015612de357600e8181548110612d6957612d68614450565b5b9060005260206000200160009054906101000a900473ffffffffffffffffffffffffffffffffffffffff1673ffffffffffffffffffffffffffffffffffffffff168373ffffffffffffffffffffffffffffffffffffffff1603612dd0576001915050612de9565b8080612ddb90613ff8565b915050612d48565b50600090505b919050565b600080600090505b600d80549050811015612e4557600d8181548110612e1757612e16614450565b5b90600052602060002001548303612e32576001915050612e4b565b8080612e3d90613ff8565b915050612df6565b50600090505b919050565b600080600090505b600b80549050811015612ea757600b8181548110612e7957612e78614450565b5b90600052602060002001548303612e94576001915050612ead565b8080612e9f90613ff8565b915050612e58565b50600090505b919050565b6000600660008481526020019081526020016000209050612ed161316c565b85816000018181525050828160400181815250508481602001818152505081600d018190806001815401808255809150506001900390600052602060002090600302016000909190919091506000820151816000015560208201518160010155604082015181600201555050505050505050565b600060066000838152602001908152602001600020905060008060005b83600d01805490508110156130205783600d018181548110612f8757612f86614450565b5b90600052602060002090600302016001015483612fa491906144d7565b925083600d018181548110612fbc57612fbb614450565b5b90600052602060002090600302016001015484600d018281548110612fe457612fe3614450565b5b906000526020600020906003020160020154613000919061450b565b8261300b91906144d7565b9150808061301890613ff8565b915050612f62565b50818161302d919061457c565b83600a018190555050505050565b8280548282559060005260206000209060020281019282156130965760005260206000209160020282015b828111156130955782826000820154816000015560018201548160010155505091600201919060020190613066565b5b5090506130a391906131ec565b5090565b5080546130b39061406f565b6000825580601f106130c557506130e4565b601f0160209004906000526020600020908101906130e39190613213565b5b50565b604051806101c001604052806000815260200160608152602001606081526020016060815260200160608152602001606081526020016060815260200160608152602001606081526020016060815260200160008152602001600073ffffffffffffffffffffffffffffffffffffffff16815260200160608152602001606081525090565b60405180606001604052806000815260200160008152602001600081525090565b50805460008255906000526020600020908101906131ab9190613230565b50565b50805460008255600302906000526020600020908101906131cf9190613254565b50565b604051806040016040528060008152602001600081525090565b5b8082111561320f576000808201600090556001820160009055506002016131ed565b5090565b5b8082111561322c576000816000905550600101613214565b5090565b5b80821115613250576000818161324791906130a7565b50600101613231565b5090565b5b8082111561327f576000808201600090556001820160009055600282016000905550600301613255565b5090565b6000604051905090565b600080fd5b600080fd5b6000819050919050565b6132aa81613297565b81146132b557600080fd5b50565b6000813590506132c7816132a1565b92915050565b6000602082840312156132e3576132e261328d565b5b60006132f1848285016132b8565b91505092915050565b600073ffffffffffffffffffffffffffffffffffffffff82169050919050565b6000613325826132fa565b9050919050565b6133358161331a565b82525050565b6000602082019050613350600083018461332c565b92915050565b61335f8161331a565b811461336a57600080fd5b50565b60008135905061337c81613356565b92915050565b6000602082840312156133985761339761328d565b5b60006133a68482850161336d565b91505092915050565b6133b881613297565b82525050565b600081519050919050565b600082825260208201905092915050565b60005b838110156133f85780820151818401526020810190506133dd565b60008484015250505050565b6000601f19601f8301169050919050565b6000613420826133be565b61342a81856133c9565b935061343a8185602086016133da565b61344381613404565b840191505092915050565b600060a08201905061346360008301886133af565b81810360208301526134758187613415565b905081810360408301526134898186613415565b9050818103606083015261349d8185613415565b905081810360808301526134b18184613415565b90509695505050505050565b600080fd5b600080fd5b7f4e487b7100000000000000000000000000000000000000000000000000000000600052604160045260246000fd5b6134ff82613404565b810181811067ffffffffffffffff8211171561351e5761351d6134c7565b5b80604052505050565b6000613531613283565b905061353d82826134f6565b919050565b600067ffffffffffffffff82111561355d5761355c6134c7565b5b61356682613404565b9050602081019050919050565b82818337600083830152505050565b600061359561359084613542565b613527565b9050828152602081018484840111156135b1576135b06134c2565b5b6135bc848285613573565b509392505050565b600082601f8301126135d9576135d86134bd565b5b81356135e9848260208601613582565b91505092915050565b6000806000806000806000806000806101408b8d0312156136165761361561328d565b5b60006136248d828e016132b8565b9a505060208b013567ffffffffffffffff81111561364557613644613292565b5b6136518d828e016135c4565b99505060408b013567ffffffffffffffff81111561367257613671613292565b5b61367e8d828e016135c4565b98505060608b013567ffffffffffffffff81111561369f5761369e613292565b5b6136ab8d828e016135c4565b97505060808b013567ffffffffffffffff8111156136cc576136cb613292565b5b6136d88d828e016135c4565b96505060a08b013567ffffffffffffffff8111156136f9576136f8613292565b5b6137058d828e016135c4565b95505060c08b013567ffffffffffffffff81111561372657613725613292565b5b6137328d828e016135c4565b94505060e08b013567ffffffffffffffff81111561375357613752613292565b5b61375f8d828e016135c4565b9350506101008b013567ffffffffffffffff81111561378157613780613292565b5b61378d8d828e016135c4565b9250506101208b013567ffffffffffffffff8111156137af576137ae613292565b5b6137bb8d828e016135c4565b9150509295989b9194979a5092959850565b600080600080600060a086880312156137e9576137e861328d565b5b60006137f7888289016132b8565b955050602086013567ffffffffffffffff81111561381857613817613292565b5b613824888289016135c4565b945050604086013567ffffffffffffffff81111561384557613844613292565b5b613851888289016135c4565b935050606086013567ffffffffffffffff81111561387257613871613292565b5b61387e888289016135c4565b925050608086013567ffffffffffffffff81111561389f5761389e613292565b5b6138ab888289016135c4565b9150509295509295909350565b60006020820190506138cd60008301846133af565b92915050565b6138dc81613297565b82525050565b600082825260208201905092915050565b60006138fe826133be565b61390881856138e2565b93506139188185602086016133da565b61392181613404565b840191505092915050565b6139358161331a565b82525050565b600081519050919050565b600082825260208201905092915050565b6000819050602082019050919050565b600061397383836138f3565b905092915050565b6000602082019050919050565b60006139938261393b565b61399d8185613946565b9350836020820285016139af85613957565b8060005b858110156139eb57848403895281516139cc8582613967565b94506139d78361397b565b925060208a019950506001810190506139b3565b50829750879550505050505092915050565b600081519050919050565b600082825260208201905092915050565b6000819050602082019050919050565b606082016000820151613a3f60008501826138d3565b506020820151613a5260208501826138d3565b506040820151613a6560408501826138d3565b50505050565b6000613a778383613a29565b60608301905092915050565b6000602082019050919050565b6000613a9b826139fd565b613aa58185613a08565b9350613ab083613a19565b8060005b83811015613ae1578151613ac88882613a6b565b9750613ad383613a83565b925050600181019050613ab4565b5085935050505092915050565b60006101c083016000830151613b0760008601826138d3565b5060208301518482036020860152613b1f82826138f3565b91505060408301518482036040860152613b3982826138f3565b91505060608301518482036060860152613b5382826138f3565b91505060808301518482036080860152613b6d82826138f3565b91505060a083015184820360a0860152613b8782826138f3565b91505060c083015184820360c0860152613ba182826138f3565b91505060e083015184820360e0860152613bbb82826138f3565b915050610100830151848203610100860152613bd782826138f3565b915050610120830151848203610120860152613bf382826138f3565b915050610140830151613c0a6101408601826138d3565b50610160830151613c1f61016086018261392c565b50610180830151848203610180860152613c398282613988565b9150506101a08301518482036101a0860152613c558282613a90565b9150508091505092915050565b60006020820190508181036000830152613c7c8184613aee565b905092915050565b60008060008060008060008060008060006101608c8e031215613caa57613ca961328d565b5b6000613cb88e828f016132b8565b9b505060208c013567ffffffffffffffff811115613cd957613cd8613292565b5b613ce58e828f016135c4565b9a505060408c013567ffffffffffffffff811115613d0657613d05613292565b5b613d128e828f016135c4565b99505060608c013567ffffffffffffffff811115613d3357613d32613292565b5b613d3f8e828f016135c4565b98505060808c013567ffffffffffffffff811115613d6057613d5f613292565b5b613d6c8e828f016135c4565b97505060a08c013567ffffffffffffffff811115613d8d57613d8c613292565b5b613d998e828f016135c4565b96505060c08c013567ffffffffffffffff811115613dba57613db9613292565b5b613dc68e828f016135c4565b95505060e08c013567ffffffffffffffff811115613de757613de6613292565b5b613df38e828f016135c4565b9450506101008c013567ffffffffffffffff811115613e1557613e14613292565b5b613e218e828f016135c4565b9350506101208c013567ffffffffffffffff811115613e4357613e42613292565b5b613e4f8e828f016135c4565b9250506101408c013567ffffffffffffffff811115613e7157613e70613292565b5b613e7d8e828f016135c4565b9150509295989b509295989b9093969950565b60008060408385031215613ea757613ea661328d565b5b6000613eb5858286016132b8565b9250506020613ec68582860161336d565b9150509250929050565b60008060408385031215613ee757613ee661328d565b5b6000613ef5858286016132b8565b925050602083013567ffffffffffffffff811115613f1657613f15613292565b5b613f22858286016135c4565b9150509250929050565b60008060008060808587031215613f4657613f4561328d565b5b6000613f54878288016132b8565b9450506020613f65878288016132b8565b9350506040613f76878288016132b8565b9250506060613f87878288016132b8565b91505092959194509250565b60008115159050919050565b613fa881613f93565b82525050565b6000602082019050613fc36000830184613f9f565b92915050565b7f4e487b7100000000000000000000000000000000000000000000000000000000600052601160045260246000fd5b600061400382613297565b91507fffffffffffffffffffffffffffffffffffffffffffffffffffffffffffffffff820361403557614034613fc9565b5b600182019050919050565b7f4e487b7100000000000000000000000000000000000000000000000000000000600052602260045260246000fd5b6000600282049050600182168061408757607f821691505b60208210810361409a57614099614040565b5b50919050565b60008190508160005260206000209050919050565b60006020601f8301049050919050565b600082821b905092915050565b6000600883026141027fffffffffffffffffffffffffffffffffffffffffffffffffffffffffffffffff826140c5565b61410c86836140c5565b95508019841693508086168417925050509392505050565b6000819050919050565b600061414961414461413f84613297565b614124565b613297565b9050919050565b6000819050919050565b6141638361412e565b61417761416f82614150565b8484546140d2565b825550505050565b600090565b61418c61417f565b61419781848461415a565b505050565b5b818110156141bb576141b0600082614184565b60018101905061419d565b5050565b601f821115614200576141d1816140a0565b6141da846140b5565b810160208510156141e9578190505b6141fd6141f5856140b5565b83018261419c565b50505b505050565b600082821c905092915050565b600061422360001984600802614205565b1980831691505092915050565b600061423c8383614212565b9150826002028217905092915050565b614255826133be565b67ffffffffffffffff81111561426e5761426d6134c7565b5b614278825461406f565b6142838282856141bf565b600060209050601f8311600181146142b657600084156142a4578287015190505b6142ae8582614230565b865550614316565b601f1984166142c4866140a0565b60005b828110156142ec578489015182556001820191506020850194506020810190506142c7565b868310156143095784890151614305601f891682614212565b8355505b6001600288020188555050505b505050505050565b60008154905061432d8161406f565b9050919050565b81810361434257505061441a565b61434b8261431e565b67ffffffffffffffff811115614364576143636134c7565b5b61436e825461406f565b6143798282856141bf565b6000601f8311600181146143a85760008415614396578287015490505b6143a08582614230565b865550614413565b601f1984166143b6876140a0565b96506143c1866140a0565b60005b828110156143e9578489015482556001820191506001850194506020810190506143c4565b868310156144065784890154614402601f891682614212565b8355505b6001600288020188555050505b5050505050505b565b600061442782613297565b915061443283613297565b925082820390508181111561444a57614449613fc9565b5b92915050565b7f4e487b7100000000000000000000000000000000000000000000000000000000600052603260045260246000fd5b7f4e487b7100000000000000000000000000000000000000000000000000000000600052603160045260246000fd5b60006144b982613297565b9150600082036144cc576144cb613fc9565b5b600182039050919050565b60006144e282613297565b91506144ed83613297565b925082820190508082111561450557614504613fc9565b5b92915050565b600061451682613297565b915061452183613297565b925082820261452f81613297565b9150828204841483151761454657614545613fc9565b5b5092915050565b7f4e487b7100000000000000000000000000000000000000000000000000000000600052601260045260246000fd5b600061458782613297565b915061459283613297565b9250826145a2576145a161454d565b5b82820490509291505056fea26469706673582212209d3df2bd4b2359ea390c81e25c7c0067b53da149ccfda316907882a924258b1a64736f6c63430008110033",
  "immutableReferences": {},
  "source": "// SPDX-License-Identifier: MIT\r\npragma solidity >=0.4.22 <0.9.0;\r\ncontract spu {\r\n    address is_admin;\r\n    constructor() {\r\n        is_admin = msg.sender;\r\n    }\r\n\r\n    struct course_grade {\r\n        uint student_id;\r\n        uint mark;\r\n    }\r\n\r\n    struct student_courses {\r\n        uint couse_id;\r\n        uint weekly_hours;\r\n        uint mark;\r\n    }\r\n\r\n    struct course {\r\n        uint id;\r\n        string name;\r\n        string weekly_hour;\r\n        string level;\r\n        string college;\r\n        course_grade[] students_grades;\r\n    }\r\n\r\n    struct prof {\r\n        uint id;\r\n        string firstName;\r\n        string lastName;\r\n        string fatherName;\r\n        string motherName;\r\n        string gender;\r\n        string email;\r\n        string collegeName;\r\n        string dateOfBirth;\r\n        string mobileNumber;\r\n        string specialization;\r\n        address prof_address;\r\n    }\r\n\r\n    struct student {\r\n        uint id;\r\n        string firstName;\r\n        string lastName;\r\n        string fatherName;\r\n        string motherName;\r\n        string gender;\r\n        string email;\r\n        string collegeName;\r\n        string dateOfBirth;\r\n        string mobileNumber;\r\n        uint256 cumulative_averge;\r\n        address student_address;\r\n        string[] warnnings;\r\n        student_courses[] all_courses;\r\n    }\r\n\r\n    modifier onlyemp(address v) {\r\n        require(ChekIfEmp(v) == true);\r\n        _;\r\n    }\r\n\r\n    modifier onlyAdmin(address x) {\r\n        require(x == is_admin);\r\n        _;\r\n    }\r\n\r\n    uint public s_counter = 0;\r\n    uint public p_counter = 0;\r\n    uint public e_counter = 0;\r\n\r\n    mapping(uint => address) private get_emp;\r\n    mapping(uint => prof) private get_prof;\r\n    mapping(uint => student) private get_student;\r\n    mapping(uint => course) public get_course;\r\n\r\n    address[] public all_employees;\r\n    course[] public spu_courses;\r\n\r\n    address[] private all_students;\r\n    uint[] private all_students_id;\r\n\r\n    address[] private all_profs;\r\n    uint[] private all_profs_id;\r\n\r\n    address[] public authorized;\r\n\r\n    function checkRole(address a) public view returns (uint) {\r\n        if (a == is_admin) {\r\n            return 1;\r\n        } else if (ChekIfEmp(msg.sender) == true) {\r\n            return 2;\r\n        } else if (\r\n            ChekIfauthorizedaddress(msg.sender) == true ||\r\n            ChekIfprofaddress(msg.sender) == true\r\n        ) {\r\n            return 3;\r\n        } else {\r\n            return 4;\r\n        }\r\n    }\r\n    function ChekIfEmp(address y) public view returns (bool b) {\r\n        for (uint i = 0; i < all_employees.length; i++) {\r\n            if (y == all_employees[i]) {\r\n                return true;\r\n            }\r\n        }\r\n        return false;\r\n    }\r\n    function ChekIfstudent(uint _id) private view returns (bool b) {\r\n        for (uint i = 0; i < all_students_id.length; i++) {\r\n            if (_id == all_students_id[i]) {\r\n                return true;\r\n            }\r\n        }\r\n        return false;\r\n    }\r\n\r\n    function ChekIfstudentaddress(address x) private view returns (bool b) {\r\n        for (uint i = 0; i < all_students.length; i++) {\r\n            if (x == all_students[i]) {\r\n                return true;\r\n            }\r\n        }\r\n        return false;\r\n    }\r\n    function ChekIfauthorizedaddress(address x) private view returns (bool b) {\r\n        for (uint i = 0; i < authorized.length; i++) {\r\n            if (x == authorized[i]) {\r\n                return true;\r\n            }\r\n        }\r\n        return false;\r\n    }\r\n\r\n    function ChekIfprofaddress(address x) private view returns (bool b) {\r\n        for (uint i = 0; i < all_profs.length; i++) {\r\n            if (x == all_profs[i]) {\r\n                return true;\r\n            }\r\n        }\r\n        return false;\r\n    }\r\n\r\n    function ChekIfprof(uint _id) private view returns (bool b) {\r\n        for (uint i = 0; i < all_profs_id.length; i++) {\r\n            if (_id == all_profs_id[i]) {\r\n                return true;\r\n            }\r\n        }\r\n        return false;\r\n    }\r\n\r\n    function add_mark_To_Student(\r\n        uint course_id,\r\n        uint w_h,\r\n        uint s_id,\r\n        uint _mark\r\n    ) private {\r\n        student storage s = get_student[s_id];\r\n        student_courses memory f;\r\n        f.couse_id = course_id;\r\n        f.mark = _mark;\r\n        f.weekly_hours = w_h;\r\n\r\n        s.all_courses.push(f);\r\n    }\r\n\r\n    function set_cumulative_averge(uint student_id) private {\r\n        student storage s = get_student[student_id];\r\n        uint256 t_h = 0;\r\n        uint256 v = 0;\r\n        for (uint i = 0; i < s.all_courses.length; i++) {\r\n            t_h = t_h + s.all_courses[i].weekly_hours;\r\n            v = v + (s.all_courses[i].mark * s.all_courses[i].weekly_hours);\r\n        }\r\n\r\n        s.cumulative_averge = v / t_h;\r\n    }\r\n\r\n    function add_address_to_student(\r\n        uint _id,\r\n        address _address\r\n    ) public onlyemp(msg.sender) {\r\n        if (ChekIfstudent(_id) == true) {\r\n            student storage s = get_student[_id];\r\n            s.student_address = _address;\r\n            all_students.push(_address);\r\n        }\r\n    }\r\n\r\n    function add_address_to_prof(\r\n        uint _id,\r\n        address _address\r\n    ) public onlyemp(msg.sender) {\r\n        if (ChekIfprof(_id) == true) {\r\n            prof storage s = get_prof[_id];\r\n            s.prof_address = _address;\r\n            all_profs.push(_address);\r\n        }\r\n    }\r\n\r\n    function view_student(uint id) public view returns (student memory k) {\r\n        if (\r\n            (msg.sender) == is_admin ||\r\n            ChekIfEmp(msg.sender) == true ||\r\n            (ChekIfstudentaddress(msg.sender) == true &&\r\n                get_student[id].student_address == (msg.sender)) ||\r\n            ChekIfprofaddress(msg.sender) == true ||\r\n            ChekIfauthorizedaddress(msg.sender) == true\r\n        ) {\r\n            return get_student[id];\r\n        } else {\r\n            student memory v = get_student[id];\r\n            v.email = \"null\";\r\n            v.mobileNumber = \"null\";\r\n            v.student_address = 0x0000000000000000000000000000000000000000;\r\n            v.warnnings = new string[](0);\r\n            v.all_courses = new student_courses[](0);\r\n            return v;\r\n        }\r\n    }\r\n\r\n    function Add_corse(\r\n        uint id,\r\n        string memory name,\r\n        string memory weekly_hour,\r\n        string memory level,\r\n        string memory college\r\n    ) public onlyAdmin(msg.sender) {\r\n        course storage b = get_course[id];\r\n        b.id = id;\r\n        b.name = name;\r\n        b.weekly_hour = weekly_hour;\r\n        b.level = level;\r\n        b.college = college;\r\n        spu_courses.push(b);\r\n    }\r\n\r\n    function add_course_marks(\r\n        uint course_id,\r\n        uint w_h,\r\n        uint student_id,\r\n        uint _mark\r\n    ) public onlyemp(msg.sender) {\r\n        course storage c = get_course[course_id];\r\n        course_grade memory g;\r\n        g.student_id = student_id;\r\n        g.mark = _mark;\r\n        c.students_grades.push(g);\r\n\r\n        add_mark_To_Student(course_id, w_h, student_id, _mark);\r\n        set_cumulative_averge(student_id);\r\n    }\r\n\r\n    function register_student(\r\n        uint _id,\r\n        string memory _firstName,\r\n        string memory _lastName,\r\n        string memory _fatherName,\r\n        string memory _motherName,\r\n        string memory _gender,\r\n        string memory _email,\r\n        string memory _collegeName,\r\n        string memory _dateOfBirth,\r\n        string memory _mobileNumber\r\n    ) public onlyAdmin(msg.sender) {\r\n        student storage s = get_student[_id];\r\n        s.id = _id;\r\n        s.firstName = _firstName;\r\n        s.lastName = _lastName;\r\n        s.fatherName = _fatherName;\r\n        s.motherName = _motherName;\r\n        s.gender = _gender;\r\n        s.email = _email;\r\n        s.collegeName = _collegeName;\r\n        s.dateOfBirth = _dateOfBirth;\r\n        s.mobileNumber = _mobileNumber;\r\n\r\n        all_students_id.push(_id);\r\n        s_counter++;\r\n    }\r\n\r\n    function register_prof(\r\n        uint _id,\r\n        string memory _firstName,\r\n        string memory _lastName,\r\n        string memory _fatherName,\r\n        string memory _motherName,\r\n        string memory _gender,\r\n        string memory _email,\r\n        string memory _collegeName,\r\n        string memory _dateOfBirth,\r\n        string memory _mobileNumber,\r\n        string memory _specialization\r\n    ) public onlyAdmin(msg.sender) {\r\n        prof storage s = get_prof[_id];\r\n\r\n        s.id = _id;\r\n        s.firstName = _firstName;\r\n        s.lastName = _lastName;\r\n        s.fatherName = _fatherName;\r\n        s.motherName = _motherName;\r\n        s.gender = _gender;\r\n        s.email = _email;\r\n        s.collegeName = _collegeName;\r\n        s.dateOfBirth = _dateOfBirth;\r\n        s.mobileNumber = _mobileNumber;\r\n        s.specialization = _specialization;\r\n\r\n        all_profs_id.push(_id);\r\n\r\n        p_counter++;\r\n    }\r\n\r\n    function register_emp(address _x) public onlyAdmin(msg.sender) {\r\n        get_emp[e_counter] = _x;\r\n        all_employees.push(_x);\r\n        e_counter++;\r\n    }\r\n\r\n    function add_warnning(\r\n        uint _id,\r\n        string memory _warnning\r\n    ) public onlyemp(msg.sender) {\r\n        get_student[_id].warnnings.push(_warnning);\r\n    }\r\n\r\n    function Delet_emp(uint n) public onlyAdmin(msg.sender) {\r\n        delete all_employees[n];\r\n        delete get_emp[n];\r\n\r\n        e_counter--;\r\n    }\r\n\r\n    function deleteStudent(uint256 _id) public onlyAdmin(msg.sender) {\r\n        delete get_student[_id];\r\n\r\n        uint256 lastIndex = all_students_id.length - 1;\r\n        if (_id != all_students_id[lastIndex]) {\r\n            all_students_id[_id] = all_students_id[lastIndex];\r\n        }\r\n        all_students_id.pop();\r\n\r\n        s_counter--;\r\n    }\r\n\r\n    function deleteprof(uint256 _id) public onlyAdmin(msg.sender) {\r\n        delete get_prof[_id];\r\n\r\n        uint256 lastIndex = all_profs_id.length - 1;\r\n        if (_id != all_profs_id[lastIndex]) {\r\n            all_profs_id[_id] = all_profs_id[lastIndex];\r\n        }\r\n        all_profs_id.pop();\r\n\r\n        p_counter--;\r\n    }\r\n\r\n    function modifyStudent(\r\n        uint _id,\r\n        string memory _firstName,\r\n        string memory _lastName,\r\n        string memory _fatherName,\r\n        string memory _motherName,\r\n        string memory _gender,\r\n        string memory _email,\r\n        string memory _collegeName,\r\n        string memory _dateOfBirth,\r\n        string memory _mobileNumber\r\n    ) public onlyAdmin(msg.sender) {\r\n        require(get_student[_id].id == _id);\r\n\r\n        student storage s = get_student[_id];\r\n        s.firstName = _firstName;\r\n        s.lastName = _lastName;\r\n        s.fatherName = _fatherName;\r\n        s.motherName = _motherName;\r\n        s.gender = _gender;\r\n        s.email = _email;\r\n        s.collegeName = _collegeName;\r\n        s.dateOfBirth = _dateOfBirth;\r\n        s.mobileNumber = _mobileNumber;\r\n    }\r\n\r\n    function modifyprof(\r\n        uint _id,\r\n        string memory _firstName,\r\n        string memory _lastName,\r\n        string memory _fatherName,\r\n        string memory _motherName,\r\n        string memory _gender,\r\n        string memory _email,\r\n        string memory _collegeName,\r\n        string memory _dateOfBirth,\r\n        string memory _mobileNumber,\r\n        string memory _specialization\r\n    ) public onlyAdmin(msg.sender) {\r\n        require(get_prof[_id].id == _id);\r\n\r\n        prof storage s = get_prof[_id];\r\n        s.firstName = _firstName;\r\n        s.lastName = _lastName;\r\n        s.fatherName = _fatherName;\r\n        s.motherName = _motherName;\r\n        s.gender = _gender;\r\n        s.email = _email;\r\n        s.collegeName = _collegeName;\r\n        s.dateOfBirth = _dateOfBirth;\r\n        s.mobileNumber = _mobileNumber;\r\n        s.specialization = _specialization;\r\n    }\r\n}\r\n",
  "sourcePath": "D:\\block_chain\\truffle1\\contracts\\spu.sol",
  "compiler": {
    "name": "solc",
    "version": "0.8.17+commit.8df45f5f.Emscripten.clang"
  },
  "schemaVersion": "3.4.16",
  "updatedAt": "2024-05-12T16:17:18.252Z",
  "devdoc": {
    "kind": "dev",
    "methods": {},
    "version": 1
  },
  "userdoc": {
    "kind": "user",
    "methods": {},
    "version": 1
  }
}