{
  "contractName": "spu_university",
  "abi": [
    {
      "inputs": [],
      "stateMutability": "nonpayable",
      "type": "constructor"
    },
    {
      "inputs": [
        {
          "internalType": "uint256",
          "name": "",
          "type": "uint256"
        }
      ],
      "name": "all_employees",
      "outputs": [
        {
          "internalType": "address",
          "name": "",
          "type": "address"
        }
      ],
      "stateMutability": "view",
      "type": "function",
      "constant": true
    },
    {
      "inputs": [],
      "name": "e_counter",
      "outputs": [
        {
          "internalType": "uint256",
          "name": "",
          "type": "uint256"
        }
      ],
      "stateMutability": "view",
      "type": "function",
      "constant": true
    },
    {
      "inputs": [
        {
          "internalType": "uint256",
          "name": "",
          "type": "uint256"
        }
      ],
      "name": "get_course",
      "outputs": [
        {
          "internalType": "uint256",
          "name": "id",
          "type": "uint256"
        },
        {
          "internalType": "string",
          "name": "name",
          "type": "string"
        },
        {
          "internalType": "string",
          "name": "weekly_hour",
          "type": "string"
        },
        {
          "internalType": "string",
          "name": "level",
          "type": "string"
        }
      ],
      "stateMutability": "view",
      "type": "function",
      "constant": true
    },
    {
      "inputs": [],
      "name": "p_counter",
      "outputs": [
        {
          "internalType": "uint256",
          "name": "",
          "type": "uint256"
        }
      ],
      "stateMutability": "view",
      "type": "function",
      "constant": true
    },
    {
      "inputs": [],
      "name": "s_counter",
      "outputs": [
        {
          "internalType": "uint256",
          "name": "",
          "type": "uint256"
        }
      ],
      "stateMutability": "view",
      "type": "function",
      "constant": true
    },
    {
      "inputs": [
        {
          "internalType": "uint256",
          "name": "",
          "type": "uint256"
        }
      ],
      "name": "spu_courses",
      "outputs": [
        {
          "internalType": "uint256",
          "name": "id",
          "type": "uint256"
        },
        {
          "internalType": "string",
          "name": "name",
          "type": "string"
        },
        {
          "internalType": "string",
          "name": "weekly_hour",
          "type": "string"
        },
        {
          "internalType": "string",
          "name": "level",
          "type": "string"
        }
      ],
      "stateMutability": "view",
      "type": "function",
      "constant": true
    },
    {
      "inputs": [
        {
          "internalType": "uint256",
          "name": "id",
          "type": "uint256"
        },
        {
          "internalType": "string",
          "name": "name",
          "type": "string"
        },
        {
          "internalType": "string",
          "name": "weekly_hour",
          "type": "string"
        },
        {
          "internalType": "string",
          "name": "level",
          "type": "string"
        }
      ],
      "name": "Add_corse",
      "outputs": [],
      "stateMutability": "nonpayable",
      "type": "function"
    },
    {
      "inputs": [
        {
          "internalType": "uint256",
          "name": "course_id",
          "type": "uint256"
        },
        {
          "internalType": "uint256",
          "name": "student_id",
          "type": "uint256"
        },
        {
          "internalType": "uint256",
          "name": "_mark",
          "type": "uint256"
        }
      ],
      "name": "add_course_marks",
      "outputs": [],
      "stateMutability": "nonpayable",
      "type": "function"
    },
    {
      "inputs": [
        {
          "internalType": "uint256",
          "name": "_id",
          "type": "uint256"
        },
        {
          "internalType": "address",
          "name": "_address",
          "type": "address"
        }
      ],
      "name": "add_address",
      "outputs": [],
      "stateMutability": "nonpayable",
      "type": "function"
    },
    {
      "inputs": [
        {
          "internalType": "uint256",
          "name": "id",
          "type": "uint256"
        }
      ],
      "name": "view_student",
      "outputs": [
        {
          "components": [
            {
              "internalType": "uint256",
              "name": "id",
              "type": "uint256"
            },
            {
              "internalType": "string",
              "name": "firstName",
              "type": "string"
            },
            {
              "internalType": "string",
              "name": "lastName",
              "type": "string"
            },
            {
              "internalType": "string",
              "name": "fatherName",
              "type": "string"
            },
            {
              "internalType": "string",
              "name": "motherName",
              "type": "string"
            },
            {
              "internalType": "string",
              "name": "gender",
              "type": "string"
            },
            {
              "internalType": "string",
              "name": "email",
              "type": "string"
            },
            {
              "internalType": "string",
              "name": "collegeName",
              "type": "string"
            },
            {
              "internalType": "string",
              "name": "dateOfBirth",
              "type": "string"
            },
            {
              "internalType": "string",
              "name": "mobileNumber",
              "type": "string"
            },
            {
              "internalType": "uint256",
              "name": "cumulative_averge",
              "type": "uint256"
            },
            {
              "internalType": "address",
              "name": "student_address",
              "type": "address"
            },
            {
              "internalType": "string[]",
              "name": "warnnings",
              "type": "string[]"
            },
            {
              "components": [
                {
                  "internalType": "uint256",
                  "name": "id",
                  "type": "uint256"
                },
                {
                  "internalType": "uint256",
                  "name": "mark",
                  "type": "uint256"
                }
              ],
              "internalType": "struct spu_university.student_courses[]",
              "name": "all_courses",
              "type": "tuple[]"
            }
          ],
          "internalType": "struct spu_university.student",
          "name": "k",
          "type": "tuple"
        }
      ],
      "stateMutability": "view",
      "type": "function",
      "constant": true
    },
    {
      "inputs": [
        {
          "internalType": "uint256",
          "name": "_id",
          "type": "uint256"
        },
        {
          "internalType": "string",
          "name": "_firstName",
          "type": "string"
        },
        {
          "internalType": "string",
          "name": "_lastName",
          "type": "string"
        },
        {
          "internalType": "string",
          "name": "_fatherName",
          "type": "string"
        },
        {
          "internalType": "string",
          "name": "_motherName",
          "type": "string"
        },
        {
          "internalType": "string",
          "name": "_gender",
          "type": "string"
        },
        {
          "internalType": "string",
          "name": "_email",
          "type": "string"
        },
        {
          "internalType": "string",
          "name": "_collegeName",
          "type": "string"
        },
        {
          "internalType": "string",
          "name": "_dateOfBirth",
          "type": "string"
        },
        {
          "internalType": "string",
          "name": "_mobileNumber",
          "type": "string"
        }
      ],
      "name": "register_student",
      "outputs": [],
      "stateMutability": "nonpayable",
      "type": "function"
    },
    {
      "inputs": [
        {
          "internalType": "uint256",
          "name": "_id",
          "type": "uint256"
        },
        {
          "internalType": "string",
          "name": "_firstName",
          "type": "string"
        },
        {
          "internalType": "string",
          "name": "_lastName",
          "type": "string"
        },
        {
          "internalType": "string",
          "name": "_fatherName",
          "type": "string"
        },
        {
          "internalType": "string",
          "name": "_motherName",
          "type": "string"
        },
        {
          "internalType": "string",
          "name": "_gender",
          "type": "string"
        },
        {
          "internalType": "string",
          "name": "_email",
          "type": "string"
        },
        {
          "internalType": "string",
          "name": "_collegeName",
          "type": "string"
        },
        {
          "internalType": "string",
          "name": "_dateOfBirth",
          "type": "string"
        },
        {
          "internalType": "string",
          "name": "_mobileNumber",
          "type": "string"
        },
        {
          "internalType": "string",
          "name": "_specialization",
          "type": "string"
        }
      ],
      "name": "register_prof",
      "outputs": [],
      "stateMutability": "nonpayable",
      "type": "function"
    },
    {
      "inputs": [
        {
          "internalType": "address",
          "name": "_x",
          "type": "address"
        }
      ],
      "name": "register_emp",
      "outputs": [],
      "stateMutability": "nonpayable",
      "type": "function"
    },
    {
      "inputs": [
        {
          "internalType": "uint256",
          "name": "_id",
          "type": "uint256"
        }
      ],
      "name": "Delet_student",
      "outputs": [],
      "stateMutability": "nonpayable",
      "type": "function"
    },
    {
      "inputs": [
        {
          "internalType": "uint256",
          "name": "_id",
          "type": "uint256"
        }
      ],
      "name": "Delet_prof",
      "outputs": [],
      "stateMutability": "nonpayable",
      "type": "function"
    },
    {
      "inputs": [
        {
          "internalType": "uint256",
          "name": "n",
          "type": "uint256"
        }
      ],
      "name": "Delet_emp",
      "outputs": [],
      "stateMutability": "nonpayable",
      "type": "function"
    },
    {
      "inputs": [
        {
          "internalType": "uint256",
          "name": "_id",
          "type": "uint256"
        },
        {
          "internalType": "string",
          "name": "_warnning",
          "type": "string"
        }
      ],
      "name": "add_warnning",
      "outputs": [],
      "stateMutability": "nonpayable",
      "type": "function"
    },
    {
      "inputs": [
        {
          "internalType": "uint256",
          "name": "_id",
          "type": "uint256"
        }
      ],
      "name": "get_Courses_Of_Student",
      "outputs": [
        {
          "components": [
            {
              "internalType": "uint256",
              "name": "id",
              "type": "uint256"
            },
            {
              "internalType": "uint256",
              "name": "mark",
              "type": "uint256"
            }
          ],
          "internalType": "struct spu_university.student_courses[]",
          "name": "l",
          "type": "tuple[]"
        }
      ],
      "stateMutability": "view",
      "type": "function",
      "constant": true
    },
    {
      "inputs": [
        {
          "internalType": "uint256",
          "name": "_id",
          "type": "uint256"
        }
      ],
      "name": "get_warnnings",
      "outputs": [
        {
          "internalType": "string[]",
          "name": "b",
          "type": "string[]"
        }
      ],
      "stateMutability": "view",
      "type": "function",
      "constant": true
    },
    {
      "inputs": [
        {
          "internalType": "address",
          "name": "y",
          "type": "address"
        }
      ],
      "name": "ChekIfEmp",
      "outputs": [
        {
          "internalType": "bool",
          "name": "b",
          "type": "bool"
        }
      ],
      "stateMutability": "view",
      "type": "function",
      "constant": true
    }
  ],
  "bytecode": "0x608060405260006001556000600255600060035534801561001f57600080fd5b50336000806101000a81548173ffffffffffffffffffffffffffffffffffffffff021916908373ffffffffffffffffffffffffffffffffffffffff160217905550614e728061006f6000396000f3fe608060405234801561001057600080fd5b506004361061012c5760003560e01c8063a589f27c116100ad578063c464009d11610071578063c464009d14610359578063c519c65714610375578063d0506e3714610391578063f9359b63146103ad578063fa10e048146103c95761012c565b8063a589f27c1461028e578063ad8f4ebe146102c1578063bbb31e76146102dd578063c02a8e661461030d578063c3aea072146103295761012c565b806369e1770c116100f457806369e1770c146101ea5780637a9eb362146102085780637b99c656146102245780638894117d146102545780638c88956f146102725761012c565b80630fb8a5601461013157806312692ef31461014d57806312df9caa1461017d578063269b60081461019957806345fbb7b9146101cc575b600080fd5b61014b60048036038101906101469190613b28565b6103f9565b005b61016760048036038101906101629190613b8b565b610525565b6040516101749190613ca5565b60405180910390f35b61019760048036038101906101929190613b8b565b6105ae565b005b6101b360048036038101906101ae9190613b8b565b6106f0565b6040516101c39493929190613d66565b60405180910390f35b6101d46108c8565b6040516101e19190613dc0565b60405180910390f35b6101f26108ce565b6040516101ff9190613dc0565b60405180910390f35b610222600480360381019061021d9190613b8b565b6108d4565b005b61023e60048036038101906102399190613b8b565b61098a565b60405161024b91906140d9565b60405180910390f35b61025c612aea565b6040516102699190613dc0565b60405180910390f35b61028c60048036038101906102879190614230565b612af0565b005b6102a860048036038101906102a39190613b8b565b612c6d565b6040516102b89493929190613d66565b60405180910390f35b6102db60048036038101906102d6919061443c565b612e35565b005b6102f760048036038101906102f29190613b8b565b612f9f565b6040516103049190614626565b60405180910390f35b61032760048036038101906103229190614641565b612fde565b005b610343600480360381019061033e9190613b8b565b613207565b6040516103509190614707565b60405180910390f35b610373600480360381019061036e9190614729565b6132fb565b005b61038f600480360381019061038a9190614785565b613369565b005b6103ab60048036038101906103a691906147d8565b613416565b005b6103c760048036038101906103c29190613b8b565b61355b565b005b6103e360048036038101906103de9190613b28565b6136b5565b6040516103f091906148ae565b60405180910390f35b3360008054906101000a900473ffffffffffffffffffffffffffffffffffffffff1673ffffffffffffffffffffffffffffffffffffffff168173ffffffffffffffffffffffffffffffffffffffff161461045257600080fd5b8160046000600354815260200190815260200160002060006101000a81548173ffffffffffffffffffffffffffffffffffffffff021916908373ffffffffffffffffffffffffffffffffffffffff1602179055506008829080600181540180825580915050600190039060005260206000200160009091909190916101000a81548173ffffffffffffffffffffffffffffffffffffffff021916908373ffffffffffffffffffffffffffffffffffffffff1602179055506003600081548092919061051c906148f8565b91905055505050565b606060066000838152602001908152602001600020600d01805480602002602001604051908101604052809291908181526020016000905b828210156105a35783829060005260206000209060020201604051806040016040529081600082015481526020016001820154815250508152602001906001019061055d565b505050509050919050565b3360008054906101000a900473ffffffffffffffffffffffffffffffffffffffff1673ffffffffffffffffffffffffffffffffffffffff168173ffffffffffffffffffffffffffffffffffffffff161461060757600080fd5b60056000838152602001908152602001600020600080820160009055600182016000610633919061387d565b600282016000610643919061387d565b600382016000610653919061387d565b600482016000610663919061387d565b600582016000610673919061387d565b600682016000610683919061387d565b600782016000610693919061387d565b6008820160006106a3919061387d565b6009820160006106b3919061387d565b600a820160006106c3919061387d565b600b820160006101000a81549073ffffffffffffffffffffffffffffffffffffffff021916905550505050565b6009818154811061070057600080fd5b90600052602060002090600502016000915090508060000154908060010180546107299061496f565b80601f01602080910402602001604051908101604052809291908181526020018280546107559061496f565b80156107a25780601f10610777576101008083540402835291602001916107a2565b820191906000526020600020905b81548152906001019060200180831161078557829003601f168201915b5050505050908060020180546107b79061496f565b80601f01602080910402602001604051908101604052809291908181526020018280546107e39061496f565b80156108305780601f1061080557610100808354040283529160200191610830565b820191906000526020600020905b81548152906001019060200180831161081357829003601f168201915b5050505050908060030180546108459061496f565b80601f01602080910402602001604051908101604052809291908181526020018280546108719061496f565b80156108be5780601f10610893576101008083540402835291602001916108be565b820191906000526020600020905b8154815290600101906020018083116108a157829003601f168201915b5050505050905084565b60025481565b60015481565b3360008054906101000a900473ffffffffffffffffffffffffffffffffffffffff1673ffffffffffffffffffffffffffffffffffffffff168173ffffffffffffffffffffffffffffffffffffffff161461092d57600080fd5b60088281548110610941576109406149a0565b5b9060005260206000200160006101000a81549073ffffffffffffffffffffffffffffffffffffffff021916905560036000815480929190610981906149cf565b91905055505050565b6109926138bd565b6000600190505b60028110156127c65760008054906101000a900473ffffffffffffffffffffffffffffffffffffffff1673ffffffffffffffffffffffffffffffffffffffff163373ffffffffffffffffffffffffffffffffffffffff16036110f45760066000848152602001908152602001600020604051806101c001604052908160008201548152602001600182018054610a2e9061496f565b80601f0160208091040260200160405190810160405280929190818152602001828054610a5a9061496f565b8015610aa75780601f10610a7c57610100808354040283529160200191610aa7565b820191906000526020600020905b815481529060010190602001808311610a8a57829003601f168201915b50505050508152602001600282018054610ac09061496f565b80601f0160208091040260200160405190810160405280929190818152602001828054610aec9061496f565b8015610b395780601f10610b0e57610100808354040283529160200191610b39565b820191906000526020600020905b815481529060010190602001808311610b1c57829003601f168201915b50505050508152602001600382018054610b529061496f565b80601f0160208091040260200160405190810160405280929190818152602001828054610b7e9061496f565b8015610bcb5780601f10610ba057610100808354040283529160200191610bcb565b820191906000526020600020905b815481529060010190602001808311610bae57829003601f168201915b50505050508152602001600482018054610be49061496f565b80601f0160208091040260200160405190810160405280929190818152602001828054610c109061496f565b8015610c5d5780601f10610c3257610100808354040283529160200191610c5d565b820191906000526020600020905b815481529060010190602001808311610c4057829003601f168201915b50505050508152602001600582018054610c769061496f565b80601f0160208091040260200160405190810160405280929190818152602001828054610ca29061496f565b8015610cef5780601f10610cc457610100808354040283529160200191610cef565b820191906000526020600020905b815481529060010190602001808311610cd257829003601f168201915b50505050508152602001600682018054610d089061496f565b80601f0160208091040260200160405190810160405280929190818152602001828054610d349061496f565b8015610d815780601f10610d5657610100808354040283529160200191610d81565b820191906000526020600020905b815481529060010190602001808311610d6457829003601f168201915b50505050508152602001600782018054610d9a9061496f565b80601f0160208091040260200160405190810160405280929190818152602001828054610dc69061496f565b8015610e135780601f10610de857610100808354040283529160200191610e13565b820191906000526020600020905b815481529060010190602001808311610df657829003601f168201915b50505050508152602001600882018054610e2c9061496f565b80601f0160208091040260200160405190810160405280929190818152602001828054610e589061496f565b8015610ea55780601f10610e7a57610100808354040283529160200191610ea5565b820191906000526020600020905b815481529060010190602001808311610e8857829003601f168201915b50505050508152602001600982018054610ebe9061496f565b80601f0160208091040260200160405190810160405280929190818152602001828054610eea9061496f565b8015610f375780601f10610f0c57610100808354040283529160200191610f37565b820191906000526020600020905b815481529060010190602001808311610f1a57829003601f168201915b50505050508152602001600a8201548152602001600b820160009054906101000a900473ffffffffffffffffffffffffffffffffffffffff1673ffffffffffffffffffffffffffffffffffffffff1673ffffffffffffffffffffffffffffffffffffffff168152602001600c8201805480602002602001604051908101604052809291908181526020016000905b82821015611071578382906000526020600020018054610fe49061496f565b80601f01602080910402602001604051908101604052809291908181526020018280546110109061496f565b801561105d5780601f106110325761010080835404028352916020019161105d565b820191906000526020600020905b81548152906001019060200180831161104057829003601f168201915b505050505081526020019060010190610fc5565b505050508152602001600d8201805480602002602001604051908101604052809291908181526020016000905b828210156110e45783829060005260206000209060020201604051806040016040529081600082015481526020016001820154815250508152602001906001019061109e565b5050505081525050915050612ae5565b60005b600b8054905081101561188857600a8181548110611118576111176149a0565b5b9060005260206000200160009054906101000a900473ffffffffffffffffffffffffffffffffffffffff1673ffffffffffffffffffffffffffffffffffffffff163373ffffffffffffffffffffffffffffffffffffffff16036118755760066000858152602001908152602001600020604051806101c0016040529081600082015481526020016001820180546111ae9061496f565b80601f01602080910402602001604051908101604052809291908181526020018280546111da9061496f565b80156112275780601f106111fc57610100808354040283529160200191611227565b820191906000526020600020905b81548152906001019060200180831161120a57829003601f168201915b505050505081526020016002820180546112409061496f565b80601f016020809104026020016040519081016040528092919081815260200182805461126c9061496f565b80156112b95780601f1061128e576101008083540402835291602001916112b9565b820191906000526020600020905b81548152906001019060200180831161129c57829003601f168201915b505050505081526020016003820180546112d29061496f565b80601f01602080910402602001604051908101604052809291908181526020018280546112fe9061496f565b801561134b5780601f106113205761010080835404028352916020019161134b565b820191906000526020600020905b81548152906001019060200180831161132e57829003601f168201915b505050505081526020016004820180546113649061496f565b80601f01602080910402602001604051908101604052809291908181526020018280546113909061496f565b80156113dd5780601f106113b2576101008083540402835291602001916113dd565b820191906000526020600020905b8154815290600101906020018083116113c057829003601f168201915b505050505081526020016005820180546113f69061496f565b80601f01602080910402602001604051908101604052809291908181526020018280546114229061496f565b801561146f5780601f106114445761010080835404028352916020019161146f565b820191906000526020600020905b81548152906001019060200180831161145257829003601f168201915b505050505081526020016006820180546114889061496f565b80601f01602080910402602001604051908101604052809291908181526020018280546114b49061496f565b80156115015780601f106114d657610100808354040283529160200191611501565b820191906000526020600020905b8154815290600101906020018083116114e457829003601f168201915b5050505050815260200160078201805461151a9061496f565b80601f01602080910402602001604051908101604052809291908181526020018280546115469061496f565b80156115935780601f1061156857610100808354040283529160200191611593565b820191906000526020600020905b81548152906001019060200180831161157657829003601f168201915b505050505081526020016008820180546115ac9061496f565b80601f01602080910402602001604051908101604052809291908181526020018280546115d89061496f565b80156116255780601f106115fa57610100808354040283529160200191611625565b820191906000526020600020905b81548152906001019060200180831161160857829003601f168201915b5050505050815260200160098201805461163e9061496f565b80601f016020809104026020016040519081016040528092919081815260200182805461166a9061496f565b80156116b75780601f1061168c576101008083540402835291602001916116b7565b820191906000526020600020905b81548152906001019060200180831161169a57829003601f168201915b50505050508152602001600a8201548152602001600b820160009054906101000a900473ffffffffffffffffffffffffffffffffffffffff1673ffffffffffffffffffffffffffffffffffffffff1673ffffffffffffffffffffffffffffffffffffffff168152602001600c8201805480602002602001604051908101604052809291908181526020016000905b828210156117f15783829060005260206000200180546117649061496f565b80601f01602080910402602001604051908101604052809291908181526020018280546117909061496f565b80156117dd5780601f106117b2576101008083540402835291602001916117dd565b820191906000526020600020905b8154815290600101906020018083116117c057829003601f168201915b505050505081526020019060010190611745565b505050508152602001600d8201805480602002602001604051908101604052809291908181526020016000905b828210156118645783829060005260206000209060020201604051806040016040529081600082015481526020016001820154815250508152602001906001019061181e565b505050508152505092505050612ae5565b8080611880906148f8565b9150506110f7565b5060005b600d8054905081101561201d57600c81815481106118ad576118ac6149a0565b5b9060005260206000200160009054906101000a900473ffffffffffffffffffffffffffffffffffffffff1673ffffffffffffffffffffffffffffffffffffffff163373ffffffffffffffffffffffffffffffffffffffff160361200a5760066000858152602001908152602001600020604051806101c0016040529081600082015481526020016001820180546119439061496f565b80601f016020809104026020016040519081016040528092919081815260200182805461196f9061496f565b80156119bc5780601f10611991576101008083540402835291602001916119bc565b820191906000526020600020905b81548152906001019060200180831161199f57829003601f168201915b505050505081526020016002820180546119d59061496f565b80601f0160208091040260200160405190810160405280929190818152602001828054611a019061496f565b8015611a4e5780601f10611a2357610100808354040283529160200191611a4e565b820191906000526020600020905b815481529060010190602001808311611a3157829003601f168201915b50505050508152602001600382018054611a679061496f565b80601f0160208091040260200160405190810160405280929190818152602001828054611a939061496f565b8015611ae05780601f10611ab557610100808354040283529160200191611ae0565b820191906000526020600020905b815481529060010190602001808311611ac357829003601f168201915b50505050508152602001600482018054611af99061496f565b80601f0160208091040260200160405190810160405280929190818152602001828054611b259061496f565b8015611b725780601f10611b4757610100808354040283529160200191611b72565b820191906000526020600020905b815481529060010190602001808311611b5557829003601f168201915b50505050508152602001600582018054611b8b9061496f565b80601f0160208091040260200160405190810160405280929190818152602001828054611bb79061496f565b8015611c045780601f10611bd957610100808354040283529160200191611c04565b820191906000526020600020905b815481529060010190602001808311611be757829003601f168201915b50505050508152602001600682018054611c1d9061496f565b80601f0160208091040260200160405190810160405280929190818152602001828054611c499061496f565b8015611c965780601f10611c6b57610100808354040283529160200191611c96565b820191906000526020600020905b815481529060010190602001808311611c7957829003601f168201915b50505050508152602001600782018054611caf9061496f565b80601f0160208091040260200160405190810160405280929190818152602001828054611cdb9061496f565b8015611d285780601f10611cfd57610100808354040283529160200191611d28565b820191906000526020600020905b815481529060010190602001808311611d0b57829003601f168201915b50505050508152602001600882018054611d419061496f565b80601f0160208091040260200160405190810160405280929190818152602001828054611d6d9061496f565b8015611dba5780601f10611d8f57610100808354040283529160200191611dba565b820191906000526020600020905b815481529060010190602001808311611d9d57829003601f168201915b50505050508152602001600982018054611dd39061496f565b80601f0160208091040260200160405190810160405280929190818152602001828054611dff9061496f565b8015611e4c5780601f10611e2157610100808354040283529160200191611e4c565b820191906000526020600020905b815481529060010190602001808311611e2f57829003601f168201915b50505050508152602001600a8201548152602001600b820160009054906101000a900473ffffffffffffffffffffffffffffffffffffffff1673ffffffffffffffffffffffffffffffffffffffff1673ffffffffffffffffffffffffffffffffffffffff168152602001600c8201805480602002602001604051908101604052809291908181526020016000905b82821015611f86578382906000526020600020018054611ef99061496f565b80601f0160208091040260200160405190810160405280929190818152602001828054611f259061496f565b8015611f725780601f10611f4757610100808354040283529160200191611f72565b820191906000526020600020905b815481529060010190602001808311611f5557829003601f168201915b505050505081526020019060010190611eda565b505050508152602001600d8201805480602002602001604051908101604052809291908181526020016000905b82821015611ff957838290600052602060002090600202016040518060400160405290816000820154815260200160018201548152505081526020019060010190611fb3565b505050508152505092505050612ae5565b8080612015906148f8565b91505061188c565b5060005b6008805490508110156127b25760088181548110612042576120416149a0565b5b9060005260206000200160009054906101000a900473ffffffffffffffffffffffffffffffffffffffff1673ffffffffffffffffffffffffffffffffffffffff163373ffffffffffffffffffffffffffffffffffffffff160361279f5760066000858152602001908152602001600020604051806101c0016040529081600082015481526020016001820180546120d89061496f565b80601f01602080910402602001604051908101604052809291908181526020018280546121049061496f565b80156121515780601f1061212657610100808354040283529160200191612151565b820191906000526020600020905b81548152906001019060200180831161213457829003601f168201915b5050505050815260200160028201805461216a9061496f565b80601f01602080910402602001604051908101604052809291908181526020018280546121969061496f565b80156121e35780601f106121b8576101008083540402835291602001916121e3565b820191906000526020600020905b8154815290600101906020018083116121c657829003601f168201915b505050505081526020016003820180546121fc9061496f565b80601f01602080910402602001604051908101604052809291908181526020018280546122289061496f565b80156122755780601f1061224a57610100808354040283529160200191612275565b820191906000526020600020905b81548152906001019060200180831161225857829003601f168201915b5050505050815260200160048201805461228e9061496f565b80601f01602080910402602001604051908101604052809291908181526020018280546122ba9061496f565b80156123075780601f106122dc57610100808354040283529160200191612307565b820191906000526020600020905b8154815290600101906020018083116122ea57829003601f168201915b505050505081526020016005820180546123209061496f565b80601f016020809104026020016040519081016040528092919081815260200182805461234c9061496f565b80156123995780601f1061236e57610100808354040283529160200191612399565b820191906000526020600020905b81548152906001019060200180831161237c57829003601f168201915b505050505081526020016006820180546123b29061496f565b80601f01602080910402602001604051908101604052809291908181526020018280546123de9061496f565b801561242b5780601f106124005761010080835404028352916020019161242b565b820191906000526020600020905b81548152906001019060200180831161240e57829003601f168201915b505050505081526020016007820180546124449061496f565b80601f01602080910402602001604051908101604052809291908181526020018280546124709061496f565b80156124bd5780601f10612492576101008083540402835291602001916124bd565b820191906000526020600020905b8154815290600101906020018083116124a057829003601f168201915b505050505081526020016008820180546124d69061496f565b80601f01602080910402602001604051908101604052809291908181526020018280546125029061496f565b801561254f5780601f106125245761010080835404028352916020019161254f565b820191906000526020600020905b81548152906001019060200180831161253257829003601f168201915b505050505081526020016009820180546125689061496f565b80601f01602080910402602001604051908101604052809291908181526020018280546125949061496f565b80156125e15780601f106125b6576101008083540402835291602001916125e1565b820191906000526020600020905b8154815290600101906020018083116125c457829003601f168201915b50505050508152602001600a8201548152602001600b820160009054906101000a900473ffffffffffffffffffffffffffffffffffffffff1673ffffffffffffffffffffffffffffffffffffffff1673ffffffffffffffffffffffffffffffffffffffff168152602001600c8201805480602002602001604051908101604052809291908181526020016000905b8282101561271b57838290600052602060002001805461268e9061496f565b80601f01602080910402602001604051908101604052809291908181526020018280546126ba9061496f565b80156127075780601f106126dc57610100808354040283529160200191612707565b820191906000526020600020905b8154815290600101906020018083116126ea57829003601f168201915b50505050508152602001906001019061266f565b505050508152602001600d8201805480602002602001604051908101604052809291908181526020016000905b8282101561278e57838290600052602060002090600202016040518060400160405290816000820154815260200160018201548152505081526020019060010190612748565b505050508152505092505050612ae5565b80806127aa906148f8565b915050612021565b5080806127be906148f8565b915050610999565b5060006006600084815260200190815260200160002090506127e66138bd565b8160010180546127f59061496f565b80601f01602080910402602001604051908101604052809291908181526020018280546128219061496f565b801561286e5780601f106128435761010080835404028352916020019161286e565b820191906000526020600020905b81548152906001019060200180831161285157829003601f168201915b5050505050816020018190525081600201805461288a9061496f565b80601f01602080910402602001604051908101604052809291908181526020018280546128b69061496f565b80156129035780601f106128d857610100808354040283529160200191612903565b820191906000526020600020905b8154815290600101906020018083116128e657829003601f168201915b5050505050816040018190525081600701805461291f9061496f565b80601f016020809104026020016040519081016040528092919081815260200182805461294b9061496f565b80156129985780601f1061296d57610100808354040283529160200191612998565b820191906000526020600020905b81548152906001019060200180831161297b57829003601f168201915b50505050508160e0018190525081600a0154816101400181815250508160080180546129c39061496f565b80601f01602080910402602001604051908101604052809291908181526020018280546129ef9061496f565b8015612a3c5780601f10612a1157610100808354040283529160200191612a3c565b820191906000526020600020905b815481529060010190602001808311612a1f57829003601f168201915b5050505050816101000181905250816006018054612a599061496f565b80601f0160208091040260200160405190810160405280929190818152602001828054612a859061496f565b8015612ad25780601f10612aa757610100808354040283529160200191612ad2565b820191906000526020600020905b815481529060010190602001808311612ab557829003601f168201915b50505050508160c0018190525080925050505b919050565b60035481565b3360008054906101000a900473ffffffffffffffffffffffffffffffffffffffff1673ffffffffffffffffffffffffffffffffffffffff168173ffffffffffffffffffffffffffffffffffffffff1614612b4957600080fd5b6000600560008e815260200190815260200160002090508c81600001819055508b816001019081612b7a9190614ba4565b508a816002019081612b8c9190614ba4565b5089816003019081612b9e9190614ba4565b5088816004019081612bb09190614ba4565b5087816005019081612bc29190614ba4565b5086816006019081612bd49190614ba4565b5085816007019081612be69190614ba4565b5084816008019081612bf89190614ba4565b5083816009019081612c0a9190614ba4565b508281600a019081612c1c9190614ba4565b50600d8d908060018154018082558091505060019003906000526020600020016000909190919091505560026000815480929190612c59906148f8565b919050555050505050505050505050505050565b6007602052806000526040600020600091509050806000015490806001018054612c969061496f565b80601f0160208091040260200160405190810160405280929190818152602001828054612cc29061496f565b8015612d0f5780601f10612ce457610100808354040283529160200191612d0f565b820191906000526020600020905b815481529060010190602001808311612cf257829003601f168201915b505050505090806002018054612d249061496f565b80601f0160208091040260200160405190810160405280929190818152602001828054612d509061496f565b8015612d9d5780601f10612d7257610100808354040283529160200191612d9d565b820191906000526020600020905b815481529060010190602001808311612d8057829003601f168201915b505050505090806003018054612db29061496f565b80601f0160208091040260200160405190810160405280929190818152602001828054612dde9061496f565b8015612e2b5780601f10612e0057610100808354040283529160200191612e2b565b820191906000526020600020905b815481529060010190602001808311612e0e57829003601f168201915b5050505050905084565b3360008054906101000a900473ffffffffffffffffffffffffffffffffffffffff1673ffffffffffffffffffffffffffffffffffffffff168173ffffffffffffffffffffffffffffffffffffffff1614612e8e57600080fd5b6000600660008d815260200190815260200160002090508b81600001819055508a816001019081612ebf9190614ba4565b5089816002019081612ed19190614ba4565b5088816003019081612ee39190614ba4565b5087816004019081612ef59190614ba4565b5086816005019081612f079190614ba4565b5085816006019081612f199190614ba4565b5084816007019081612f2b9190614ba4565b5083816008019081612f3d9190614ba4565b5082816009019081612f4f9190614ba4565b50600b8c908060018154018082558091505060019003906000526020600020016000909190919091505560016000815480929190612f8c906148f8565b9190505550505050505050505050505050565b60088181548110612faf57600080fd5b906000526020600020016000915054906101000a900473ffffffffffffffffffffffffffffffffffffffff1681565b3360008054906101000a900473ffffffffffffffffffffffffffffffffffffffff1673ffffffffffffffffffffffffffffffffffffffff168173ffffffffffffffffffffffffffffffffffffffff161461303757600080fd5b60005b600b8054905081101561320157600b818154811061305b5761305a6149a0565b5b9060005260206000200154840361312f5760006006600086815260200190815260200160002090508381600b0160006101000a81548173ffffffffffffffffffffffffffffffffffffffff021916908373ffffffffffffffffffffffffffffffffffffffff160217905550600a849080600181540180825580915050600190039060005260206000200160009091909190916101000a81548173ffffffffffffffffffffffffffffffffffffffff021916908373ffffffffffffffffffffffffffffffffffffffff160217905550506131ee565b60006005600086815260200190815260200160002090508381600b0160006101000a81548173ffffffffffffffffffffffffffffffffffffffff021916908373ffffffffffffffffffffffffffffffffffffffff160217905550600c849080600181540180825580915050600190039060005260206000200160009091909190916101000a81548173ffffffffffffffffffffffffffffffffffffffff021916908373ffffffffffffffffffffffffffffffffffffffff160217905550505b80806131f9906148f8565b91505061303a565b50505050565b60608060066000848152602001908152602001600020600c01805480602002602001604051908101604052809291908181526020016000905b828210156132ec57838290600052602060002001805461325f9061496f565b80601f016020809104026020016040519081016040528092919081815260200182805461328b9061496f565b80156132d85780601f106132ad576101008083540402835291602001916132d8565b820191906000526020600020905b8154815290600101906020018083116132bb57829003601f168201915b505050505081526020019060010190613240565b50505050905080915050919050565b3360011515613309826136b5565b15151461331557600080fd5b600082905060066000858152602001908152602001600020600c01819080600181540180825580915050600190039060005260206000200160009091909190915090816133629190614ba4565b5050505050565b3360011515613377826136b5565b15151461338357600080fd5b60006007600086815260200190815260200160002090506133a2613942565b8481600001818152505083816020018181525050816004018190806001815401808255809150506001900390600052602060002090600202016000909190919091506000820151816000015560208201518160010155505061340586868661376c565b61340e856137ea565b505050505050565b3360008054906101000a900473ffffffffffffffffffffffffffffffffffffffff1673ffffffffffffffffffffffffffffffffffffffff168173ffffffffffffffffffffffffffffffffffffffff161461346f57600080fd5b6000600760008781526020019081526020016000209050858160000181905550848160010190816134a09190614ba4565b50838160020190816134b29190614ba4565b50828160030190816134c49190614ba4565b506009819080600181540180825580915050600190039060005260206000209060050201600090919091909150600082015481600001556001820181600101908161350f9190614c8c565b50600282018160020190816135249190614c8c565b50600382018160030190816135399190614c8c565b50600482018160040190805461355092919061395c565b505050505050505050565b3360008054906101000a900473ffffffffffffffffffffffffffffffffffffffff1673ffffffffffffffffffffffffffffffffffffffff168173ffffffffffffffffffffffffffffffffffffffff16146135b457600080fd5b600660008381526020019081526020016000206000808201600090556001820160006135e0919061387d565b6002820160006135f0919061387d565b600382016000613600919061387d565b600482016000613610919061387d565b600582016000613620919061387d565b600682016000613630919061387d565b600782016000613640919061387d565b600882016000613650919061387d565b600982016000613660919061387d565b600a820160009055600b820160006101000a81549073ffffffffffffffffffffffffffffffffffffffff0219169055600c8201600061369f91906139c8565b600d820160006136af91906139e9565b50505050565b600080600090506003548110156137655780806136d1906148f8565b91505060086001826136e39190614d74565b815481106136f4576136f36149a0565b5b9060005260206000200160009054906101000a900473ffffffffffffffffffffffffffffffffffffffff1673ffffffffffffffffffffffffffffffffffffffff168373ffffffffffffffffffffffffffffffffffffffff160361375b576001915050613767565b6000915050613767565b505b919050565b600060066000848152602001908152602001600020905061378b613a0d565b848160000181815250508281602001818152505081600d01819080600181540180825580915050600190039060005260206000209060020201600090919091909150600082015181600001556020820151816001015550505050505050565b60006006600083815260200190815260200160002090506000805b82600d01805490508110156138775782600d01818154811061382a576138296149a0565b5b906000526020600020906002020160010154826138479190614da8565b915082600d01805490508261385c9190614e0b565b83600a0181905550808061386f906148f8565b915050613805565b50505050565b5080546138899061496f565b6000825580601f1061389b57506138ba565b601f0160209004906000526020600020908101906138b99190613a27565b5b50565b604051806101c001604052806000815260200160608152602001606081526020016060815260200160608152602001606081526020016060815260200160608152602001606081526020016060815260200160008152602001600073ffffffffffffffffffffffffffffffffffffffff16815260200160608152602001606081525090565b604051806040016040528060008152602001600081525090565b8280548282559060005260206000209060020281019282156139b75760005260206000209160020282015b828111156139b65782826000820154816000015560018201548160010155505091600201919060020190613987565b5b5090506139c49190613a44565b5090565b50805460008255906000526020600020908101906139e69190613a6b565b50565b5080546000825560020290600052602060002090810190613a0a9190613a8f565b50565b604051806040016040528060008152602001600081525090565b5b80821115613a40576000816000905550600101613a28565b5090565b5b80821115613a6757600080820160009055600182016000905550600201613a45565b5090565b5b80821115613a8b5760008181613a82919061387d565b50600101613a6c565b5090565b5b80821115613ab257600080820160009055600182016000905550600201613a90565b5090565b6000604051905090565b600080fd5b600080fd5b600073ffffffffffffffffffffffffffffffffffffffff82169050919050565b6000613af582613aca565b9050919050565b613b0581613aea565b8114613b1057600080fd5b50565b600081359050613b2281613afc565b92915050565b600060208284031215613b3e57613b3d613ac0565b5b6000613b4c84828501613b13565b91505092915050565b6000819050919050565b613b6881613b55565b8114613b7357600080fd5b50565b600081359050613b8581613b5f565b92915050565b600060208284031215613ba157613ba0613ac0565b5b6000613baf84828501613b76565b91505092915050565b600081519050919050565b600082825260208201905092915050565b6000819050602082019050919050565b613bed81613b55565b82525050565b604082016000820151613c096000850182613be4565b506020820151613c1c6020850182613be4565b50505050565b6000613c2e8383613bf3565b60408301905092915050565b6000602082019050919050565b6000613c5282613bb8565b613c5c8185613bc3565b9350613c6783613bd4565b8060005b83811015613c98578151613c7f8882613c22565b9750613c8a83613c3a565b925050600181019050613c6b565b5085935050505092915050565b60006020820190508181036000830152613cbf8184613c47565b905092915050565b613cd081613b55565b82525050565b600081519050919050565b600082825260208201905092915050565b60005b83811015613d10578082015181840152602081019050613cf5565b60008484015250505050565b6000601f19601f8301169050919050565b6000613d3882613cd6565b613d428185613ce1565b9350613d52818560208601613cf2565b613d5b81613d1c565b840191505092915050565b6000608082019050613d7b6000830187613cc7565b8181036020830152613d8d8186613d2d565b90508181036040830152613da18185613d2d565b90508181036060830152613db58184613d2d565b905095945050505050565b6000602082019050613dd56000830184613cc7565b92915050565b600082825260208201905092915050565b6000613df782613cd6565b613e018185613ddb565b9350613e11818560208601613cf2565b613e1a81613d1c565b840191505092915050565b613e2e81613aea565b82525050565b600081519050919050565b600082825260208201905092915050565b6000819050602082019050919050565b6000613e6c8383613dec565b905092915050565b6000602082019050919050565b6000613e8c82613e34565b613e968185613e3f565b935083602082028501613ea885613e50565b8060005b85811015613ee45784840389528151613ec58582613e60565b9450613ed083613e74565b925060208a01995050600181019050613eac565b50829750879550505050505092915050565b600082825260208201905092915050565b6000613f1282613bb8565b613f1c8185613ef6565b9350613f2783613bd4565b8060005b83811015613f58578151613f3f8882613c22565b9750613f4a83613c3a565b925050600181019050613f2b565b5085935050505092915050565b60006101c083016000830151613f7e6000860182613be4565b5060208301518482036020860152613f968282613dec565b91505060408301518482036040860152613fb08282613dec565b91505060608301518482036060860152613fca8282613dec565b91505060808301518482036080860152613fe48282613dec565b91505060a083015184820360a0860152613ffe8282613dec565b91505060c083015184820360c08601526140188282613dec565b91505060e083015184820360e08601526140328282613dec565b91505061010083015184820361010086015261404e8282613dec565b91505061012083015184820361012086015261406a8282613dec565b915050610140830151614081610140860182613be4565b50610160830151614096610160860182613e25565b506101808301518482036101808601526140b08282613e81565b9150506101a08301518482036101a08601526140cc8282613f07565b9150508091505092915050565b600060208201905081810360008301526140f38184613f65565b905092915050565b600080fd5b600080fd5b7f4e487b7100000000000000000000000000000000000000000000000000000000600052604160045260246000fd5b61413d82613d1c565b810181811067ffffffffffffffff8211171561415c5761415b614105565b5b80604052505050565b600061416f613ab6565b905061417b8282614134565b919050565b600067ffffffffffffffff82111561419b5761419a614105565b5b6141a482613d1c565b9050602081019050919050565b82818337600083830152505050565b60006141d36141ce84614180565b614165565b9050828152602081018484840111156141ef576141ee614100565b5b6141fa8482856141b1565b509392505050565b600082601f830112614217576142166140fb565b5b81356142278482602086016141c0565b91505092915050565b60008060008060008060008060008060006101608c8e03121561425657614255613ac0565b5b60006142648e828f01613b76565b9b505060208c013567ffffffffffffffff81111561428557614284613ac5565b5b6142918e828f01614202565b9a505060408c013567ffffffffffffffff8111156142b2576142b1613ac5565b5b6142be8e828f01614202565b99505060608c013567ffffffffffffffff8111156142df576142de613ac5565b5b6142eb8e828f01614202565b98505060808c013567ffffffffffffffff81111561430c5761430b613ac5565b5b6143188e828f01614202565b97505060a08c013567ffffffffffffffff81111561433957614338613ac5565b5b6143458e828f01614202565b96505060c08c013567ffffffffffffffff81111561436657614365613ac5565b5b6143728e828f01614202565b95505060e08c013567ffffffffffffffff81111561439357614392613ac5565b5b61439f8e828f01614202565b9450506101008c013567ffffffffffffffff8111156143c1576143c0613ac5565b5b6143cd8e828f01614202565b9350506101208c013567ffffffffffffffff8111156143ef576143ee613ac5565b5b6143fb8e828f01614202565b9250506101408c013567ffffffffffffffff81111561441d5761441c613ac5565b5b6144298e828f01614202565b9150509295989b509295989b9093969950565b6000806000806000806000806000806101408b8d0312156144605761445f613ac0565b5b600061446e8d828e01613b76565b9a505060208b013567ffffffffffffffff81111561448f5761448e613ac5565b5b61449b8d828e01614202565b99505060408b013567ffffffffffffffff8111156144bc576144bb613ac5565b5b6144c88d828e01614202565b98505060608b013567ffffffffffffffff8111156144e9576144e8613ac5565b5b6144f58d828e01614202565b97505060808b013567ffffffffffffffff81111561451657614515613ac5565b5b6145228d828e01614202565b96505060a08b013567ffffffffffffffff81111561454357614542613ac5565b5b61454f8d828e01614202565b95505060c08b013567ffffffffffffffff8111156145705761456f613ac5565b5b61457c8d828e01614202565b94505060e08b013567ffffffffffffffff81111561459d5761459c613ac5565b5b6145a98d828e01614202565b9350506101008b013567ffffffffffffffff8111156145cb576145ca613ac5565b5b6145d78d828e01614202565b9250506101208b013567ffffffffffffffff8111156145f9576145f8613ac5565b5b6146058d828e01614202565b9150509295989b9194979a5092959850565b61462081613aea565b82525050565b600060208201905061463b6000830184614617565b92915050565b6000806040838503121561465857614657613ac0565b5b600061466685828601613b76565b925050602061467785828601613b13565b9150509250929050565b600082825260208201905092915050565b600061469d82613e34565b6146a78185614681565b9350836020820285016146b985613e50565b8060005b858110156146f557848403895281516146d68582613e60565b94506146e183613e74565b925060208a019950506001810190506146bd565b50829750879550505050505092915050565b600060208201905081810360008301526147218184614692565b905092915050565b600080604083850312156147405761473f613ac0565b5b600061474e85828601613b76565b925050602083013567ffffffffffffffff81111561476f5761476e613ac5565b5b61477b85828601614202565b9150509250929050565b60008060006060848603121561479e5761479d613ac0565b5b60006147ac86828701613b76565b93505060206147bd86828701613b76565b92505060406147ce86828701613b76565b9150509250925092565b600080600080608085870312156147f2576147f1613ac0565b5b600061480087828801613b76565b945050602085013567ffffffffffffffff81111561482157614820613ac5565b5b61482d87828801614202565b935050604085013567ffffffffffffffff81111561484e5761484d613ac5565b5b61485a87828801614202565b925050606085013567ffffffffffffffff81111561487b5761487a613ac5565b5b61488787828801614202565b91505092959194509250565b60008115159050919050565b6148a881614893565b82525050565b60006020820190506148c3600083018461489f565b92915050565b7f4e487b7100000000000000000000000000000000000000000000000000000000600052601160045260246000fd5b600061490382613b55565b91507fffffffffffffffffffffffffffffffffffffffffffffffffffffffffffffffff8203614935576149346148c9565b5b600182019050919050565b7f4e487b7100000000000000000000000000000000000000000000000000000000600052602260045260246000fd5b6000600282049050600182168061498757607f821691505b60208210810361499a57614999614940565b5b50919050565b7f4e487b7100000000000000000000000000000000000000000000000000000000600052603260045260246000fd5b60006149da82613b55565b9150600082036149ed576149ec6148c9565b5b600182039050919050565b60008190508160005260206000209050919050565b60006020601f8301049050919050565b600082821b905092915050565b600060088302614a5a7fffffffffffffffffffffffffffffffffffffffffffffffffffffffffffffffff82614a1d565b614a648683614a1d565b95508019841693508086168417925050509392505050565b6000819050919050565b6000614aa1614a9c614a9784613b55565b614a7c565b613b55565b9050919050565b6000819050919050565b614abb83614a86565b614acf614ac782614aa8565b848454614a2a565b825550505050565b600090565b614ae4614ad7565b614aef818484614ab2565b505050565b5b81811015614b1357614b08600082614adc565b600181019050614af5565b5050565b601f821115614b5857614b29816149f8565b614b3284614a0d565b81016020851015614b41578190505b614b55614b4d85614a0d565b830182614af4565b50505b505050565b600082821c905092915050565b6000614b7b60001984600802614b5d565b1980831691505092915050565b6000614b948383614b6a565b9150826002028217905092915050565b614bad82613cd6565b67ffffffffffffffff811115614bc657614bc5614105565b5b614bd0825461496f565b614bdb828285614b17565b600060209050601f831160018114614c0e5760008415614bfc578287015190505b614c068582614b88565b865550614c6e565b601f198416614c1c866149f8565b60005b82811015614c4457848901518255600182019150602085019450602081019050614c1f565b86831015614c615784890151614c5d601f891682614b6a565b8355505b6001600288020188555050505b505050505050565b600081549050614c858161496f565b9050919050565b818103614c9a575050614d72565b614ca382614c76565b67ffffffffffffffff811115614cbc57614cbb614105565b5b614cc6825461496f565b614cd1828285614b17565b6000601f831160018114614d005760008415614cee578287015490505b614cf88582614b88565b865550614d6b565b601f198416614d0e876149f8565b9650614d19866149f8565b60005b82811015614d4157848901548255600182019150600185019450602081019050614d1c565b86831015614d5e5784890154614d5a601f891682614b6a565b8355505b6001600288020188555050505b5050505050505b565b6000614d7f82613b55565b9150614d8a83613b55565b9250828203905081811115614da257614da16148c9565b5b92915050565b6000614db382613b55565b9150614dbe83613b55565b9250828201905080821115614dd657614dd56148c9565b5b92915050565b7f4e487b7100000000000000000000000000000000000000000000000000000000600052601260045260246000fd5b6000614e1682613b55565b9150614e2183613b55565b925082614e3157614e30614ddc565b5b82820490509291505056fea264697066735822122012156a20890cf84ad18a4af44a089627e152c08c56337419e58a35ab2ccd399f64736f6c63430008110033",
  "immutableReferences": {},
  "source": "// SPDX-License-Identifier: MIT\r\npragma abicoder v2;\r\npragma solidity >=0.4.22 <0.9.0;\r\n\r\ncontract spu_university {\r\n    address is_admin;\r\n    constructor() {\r\n        is_admin = msg.sender;\r\n    }\r\n\r\n    modifier onlyemp(address v) {\r\n        require(ChekIfEmp(v) == true);\r\n        _;\r\n    }\r\n\r\n    modifier onlyAdmin(address x) {\r\n        require(x == is_admin);\r\n        _;\r\n    }\r\n\r\n    uint public s_counter = 0;\r\n    uint public p_counter = 0;\r\n    uint public e_counter = 0;\r\n\r\n    mapping(uint => address) private get_emp;\r\n    mapping(uint => prof) private get_prof;\r\n    mapping(uint => student) private get_student;\r\n    mapping(uint => course) public get_course;\r\n\r\n    address[] public all_employees;\r\n    course[] public spu_courses;\r\n\r\n    address[] private all_students;\r\n    uint[] private all_students_id;\r\n    address[] private all_prof;\r\n    uint[] private all_prof_id;\r\n\r\n    struct grade {\r\n        uint id;\r\n        uint mark;\r\n    }\r\n\r\n    struct student_courses {\r\n        uint id;\r\n        uint mark;\r\n    }\r\n\r\n    struct course {\r\n        uint id;\r\n        string name;\r\n        string weekly_hour;\r\n        string level;\r\n        grade[] students_grades;\r\n    }\r\n\r\n    struct prof {\r\n        uint id;\r\n        string firstName;\r\n        string lastName;\r\n        string fatherName;\r\n        string motherName;\r\n        string gender;\r\n        string email;\r\n        string collegeName;\r\n        string dateOfBirth;\r\n        string mobileNumber;\r\n        string specialization;\r\n        address prof_address;\r\n    }\r\n\r\n    struct student {\r\n        uint id;\r\n        string firstName;\r\n        string lastName;\r\n        string fatherName;\r\n        string motherName;\r\n        string gender;\r\n        string email;\r\n        string collegeName;\r\n        string dateOfBirth;\r\n        string mobileNumber;\r\n        uint256 cumulative_averge;\r\n        address student_address;\r\n        string[] warnnings;\r\n        student_courses[] all_courses;\r\n    }\r\n\r\n    //-------------------------------------- functions --------------------------------------------\r\n    function Add_corse(\r\n        uint id,\r\n        string memory name,\r\n        string memory weekly_hour,\r\n        string memory level\r\n    ) public onlyAdmin(msg.sender) {\r\n        course storage b = get_course[id];\r\n\r\n        b.id = id;\r\n        b.name = name;\r\n        b.weekly_hour = weekly_hour;\r\n        b.level = level;\r\n        spu_courses.push(b);\r\n    }\r\n\r\n    function add_course_marks(\r\n        uint course_id,\r\n        uint student_id,\r\n        uint _mark\r\n    ) public onlyemp(msg.sender) {\r\n        course storage c = get_course[course_id];\r\n        grade memory g;\r\n        g.id = student_id;\r\n        g.mark = _mark;\r\n        c.students_grades.push(g);\r\n\r\n        add_mark_To_Student(course_id, student_id, _mark);\r\n        set_cumulative_averge(student_id);\r\n    }\r\n\r\n    function add_mark_To_Student(\r\n        uint course_id,\r\n        uint s_id,\r\n        uint _mark\r\n    ) private {\r\n        student storage s = get_student[s_id];\r\n        student_courses memory f;\r\n        f.id = course_id;\r\n        f.mark = _mark;\r\n\r\n        s.all_courses.push(f);\r\n    }\r\n\r\n    function set_cumulative_averge(uint student_id) private {\r\n        student storage s = get_student[student_id];\r\n        uint256 c = 0;\r\n        for (uint i = 0; i < s.all_courses.length; i++) {\r\n            c = c + s.all_courses[i].mark;\r\n            s.cumulative_averge = c / s.all_courses.length;\r\n        }\r\n    }\r\n    function add_address(\r\n        uint _id,\r\n        address _address\r\n    ) public onlyAdmin(msg.sender) {\r\n        for (uint i = 0; i < all_students_id.length; i++) {\r\n            if (_id == all_students_id[i]) {\r\n                student storage s = get_student[_id];\r\n                s.student_address = _address;\r\n                all_students.push(_address);\r\n            } else {\r\n                prof storage p = get_prof[_id];\r\n                p.prof_address = _address;\r\n                all_prof.push(_address);\r\n            }\r\n        }\r\n    }\r\n    function view_student(uint id) public view returns (student memory k) {\r\n        for (uint e = 1; e < 2; e++) {\r\n            if (msg.sender == is_admin) {\r\n                return get_student[id];\r\n            }\r\n\r\n            for (uint i = 0; i < all_students_id.length; i++) {\r\n                if ((msg.sender) == all_students[i]) {\r\n                    return get_student[id];\r\n                }\r\n            }\r\n\r\n            for (uint i = 0; i < all_prof_id.length; i++) {\r\n                if ((msg.sender) == all_prof[i]) {\r\n                    return get_student[id];\r\n                }\r\n            }\r\n            for (uint i = 0; i < all_employees.length; i++) {\r\n                if ((msg.sender) == all_employees[i]) {\r\n                    return get_student[id];\r\n                }\r\n            }\r\n        }\r\n        student storage s = get_student[id];\r\n        student memory v;\r\n        v.firstName = s.firstName;\r\n        v.lastName = s.lastName;\r\n        v.collegeName = s.collegeName;\r\n        v.cumulative_averge = s.cumulative_averge;\r\n        v.dateOfBirth = s.dateOfBirth;\r\n        v.email = s.email;\r\n\r\n        return v;\r\n    }\r\n\r\n    function register_student(\r\n        uint _id,\r\n        string memory _firstName,\r\n        string memory _lastName,\r\n        string memory _fatherName,\r\n        string memory _motherName,\r\n        string memory _gender,\r\n        string memory _email,\r\n        string memory _collegeName,\r\n        string memory _dateOfBirth,\r\n        string memory _mobileNumber\r\n    ) public onlyAdmin(msg.sender) {\r\n        student storage s = get_student[_id];\r\n\r\n        s.id = _id;\r\n        s.firstName = _firstName;\r\n        s.lastName = _lastName;\r\n        s.fatherName = _fatherName;\r\n        s.motherName = _motherName;\r\n        s.gender = _gender;\r\n        s.email = _email;\r\n        s.collegeName = _collegeName;\r\n        s.dateOfBirth = _dateOfBirth;\r\n        s.mobileNumber = _mobileNumber;\r\n\r\n        all_students_id.push(_id);\r\n\r\n        s_counter++;\r\n    }\r\n\r\n    function register_prof(\r\n        uint _id,\r\n        string memory _firstName,\r\n        string memory _lastName,\r\n        string memory _fatherName,\r\n        string memory _motherName,\r\n        string memory _gender,\r\n        string memory _email,\r\n        string memory _collegeName,\r\n        string memory _dateOfBirth,\r\n        string memory _mobileNumber,\r\n        string memory _specialization\r\n    ) public onlyAdmin(msg.sender) {\r\n        prof storage s = get_prof[_id];\r\n\r\n        s.id = _id;\r\n        s.firstName = _firstName;\r\n        s.lastName = _lastName;\r\n        s.fatherName = _fatherName;\r\n        s.motherName = _motherName;\r\n        s.gender = _gender;\r\n        s.email = _email;\r\n        s.collegeName = _collegeName;\r\n        s.dateOfBirth = _dateOfBirth;\r\n        s.mobileNumber = _mobileNumber;\r\n        s.specialization = _specialization;\r\n\r\n        all_prof_id.push(_id);\r\n\r\n        p_counter++;\r\n    }\r\n\r\n    function register_emp(address _x) public onlyAdmin(msg.sender) {\r\n        get_emp[e_counter] = _x;\r\n        all_employees.push(_x);\r\n        e_counter++;\r\n    }\r\n\r\n    function Delet_student(uint _id) public onlyAdmin(msg.sender) {\r\n        delete get_student[_id];\r\n    }\r\n    function Delet_prof(uint _id) public onlyAdmin(msg.sender) {\r\n        delete get_prof[_id];\r\n    }\r\n\r\n    function Delet_emp(uint n) public onlyAdmin(msg.sender) {\r\n        delete all_employees[n];\r\n        e_counter--;\r\n    }\r\n\r\n    function add_warnning(\r\n        uint _id,\r\n        string memory _warnning\r\n    ) public onlyemp(msg.sender) {\r\n        string memory w = _warnning;\r\n        get_student[_id].warnnings.push(w);\r\n    }\r\n\r\n    function get_Courses_Of_Student(\r\n        uint _id\r\n    ) public view returns (student_courses[] memory l) {\r\n        return get_student[_id].all_courses;\r\n    }\r\n\r\n    function get_warnnings(uint _id) public view returns (string[] memory b) {\r\n        string[] memory e;\r\n        e = get_student[_id].warnnings;\r\n        return e;\r\n    }\r\n\r\n    function ChekIfEmp(address y) public view returns (bool b) {\r\n        uint i = 0;\r\n        while (i < e_counter) {\r\n            i++;\r\n            if (y == all_employees[i - 1]) return true;\r\n            else return false;\r\n        }\r\n    }\r\n}\r\n",
  "sourcePath": "D:\\block_chain\\truffle1\\contracts\\spu.sol",
  "compiler": {
    "name": "solc",
    "version": "0.8.17+commit.8df45f5f.Emscripten.clang"
  },
  "schemaVersion": "3.4.16",
  "updatedAt": "2024-04-16T20:45:16.608Z",
  "networkType": "ethereum",
  "devdoc": {
    "kind": "dev",
    "methods": {},
    "version": 1
  },
  "userdoc": {
    "kind": "user",
    "methods": {},
    "version": 1
  }
}