{
  "contractName": "test1",
  "abi": [
    {
      "inputs": [],
      "stateMutability": "nonpayable",
      "type": "constructor"
    },
    {
      "inputs": [
        {
          "internalType": "uint256",
          "name": "",
          "type": "uint256"
        }
      ],
      "name": "all_employees",
      "outputs": [
        {
          "internalType": "address",
          "name": "",
          "type": "address"
        }
      ],
      "stateMutability": "view",
      "type": "function"
    },
    {
      "inputs": [],
      "name": "e_counter",
      "outputs": [
        {
          "internalType": "uint256",
          "name": "",
          "type": "uint256"
        }
      ],
      "stateMutability": "view",
      "type": "function"
    },
    {
      "inputs": [
        {
          "internalType": "uint256",
          "name": "",
          "type": "uint256"
        }
      ],
      "name": "get_course",
      "outputs": [
        {
          "internalType": "uint256",
          "name": "id",
          "type": "uint256"
        },
        {
          "internalType": "string",
          "name": "name",
          "type": "string"
        },
        {
          "internalType": "string",
          "name": "weekly_hour",
          "type": "string"
        },
        {
          "internalType": "string",
          "name": "level",
          "type": "string"
        }
      ],
      "stateMutability": "view",
      "type": "function"
    },
    {
      "inputs": [],
      "name": "p_counter",
      "outputs": [
        {
          "internalType": "uint256",
          "name": "",
          "type": "uint256"
        }
      ],
      "stateMutability": "view",
      "type": "function"
    },
    {
      "inputs": [],
      "name": "s_counter",
      "outputs": [
        {
          "internalType": "uint256",
          "name": "",
          "type": "uint256"
        }
      ],
      "stateMutability": "view",
      "type": "function"
    },
    {
      "inputs": [
        {
          "internalType": "uint256",
          "name": "",
          "type": "uint256"
        }
      ],
      "name": "spu_courses",
      "outputs": [
        {
          "internalType": "uint256",
          "name": "id",
          "type": "uint256"
        },
        {
          "internalType": "string",
          "name": "name",
          "type": "string"
        },
        {
          "internalType": "string",
          "name": "weekly_hour",
          "type": "string"
        },
        {
          "internalType": "string",
          "name": "level",
          "type": "string"
        }
      ],
      "stateMutability": "view",
      "type": "function"
    },
    {
      "inputs": [
        {
          "internalType": "address",
          "name": "y",
          "type": "address"
        }
      ],
      "name": "ChekIfEmp",
      "outputs": [
        {
          "internalType": "bool",
          "name": "b",
          "type": "bool"
        }
      ],
      "stateMutability": "view",
      "type": "function"
    },
    {
      "inputs": [
        {
          "internalType": "uint256",
          "name": "_id",
          "type": "uint256"
        },
        {
          "internalType": "address",
          "name": "_address",
          "type": "address"
        }
      ],
      "name": "add_address_to_student",
      "outputs": [
        {
          "internalType": "string",
          "name": "",
          "type": "string"
        }
      ],
      "stateMutability": "nonpayable",
      "type": "function"
    },
    {
      "inputs": [
        {
          "internalType": "uint256",
          "name": "_id",
          "type": "uint256"
        },
        {
          "internalType": "address",
          "name": "_address",
          "type": "address"
        }
      ],
      "name": "add_address_to_prof",
      "outputs": [
        {
          "internalType": "string",
          "name": "",
          "type": "string"
        }
      ],
      "stateMutability": "nonpayable",
      "type": "function"
    },
    {
      "inputs": [
        {
          "internalType": "uint256",
          "name": "id",
          "type": "uint256"
        }
      ],
      "name": "view_student",
      "outputs": [
        {
          "components": [
            {
              "internalType": "uint256",
              "name": "id",
              "type": "uint256"
            },
            {
              "internalType": "string",
              "name": "firstName",
              "type": "string"
            },
            {
              "internalType": "string",
              "name": "lastName",
              "type": "string"
            },
            {
              "internalType": "string",
              "name": "fatherName",
              "type": "string"
            },
            {
              "internalType": "string",
              "name": "motherName",
              "type": "string"
            },
            {
              "internalType": "string",
              "name": "gender",
              "type": "string"
            },
            {
              "internalType": "string",
              "name": "email",
              "type": "string"
            },
            {
              "internalType": "string",
              "name": "collegeName",
              "type": "string"
            },
            {
              "internalType": "string",
              "name": "dateOfBirth",
              "type": "string"
            },
            {
              "internalType": "string",
              "name": "mobileNumber",
              "type": "string"
            },
            {
              "internalType": "uint256",
              "name": "cumulative_averge",
              "type": "uint256"
            },
            {
              "internalType": "address",
              "name": "student_address",
              "type": "address"
            },
            {
              "internalType": "string[]",
              "name": "warnnings",
              "type": "string[]"
            },
            {
              "components": [
                {
                  "internalType": "uint256",
                  "name": "couse_id",
                  "type": "uint256"
                },
                {
                  "internalType": "uint256",
                  "name": "weekly_hours",
                  "type": "uint256"
                },
                {
                  "internalType": "uint256",
                  "name": "mark",
                  "type": "uint256"
                }
              ],
              "internalType": "struct test1.student_courses[]",
              "name": "all_courses",
              "type": "tuple[]"
            }
          ],
          "internalType": "struct test1.student",
          "name": "k",
          "type": "tuple"
        }
      ],
      "stateMutability": "view",
      "type": "function"
    },
    {
      "inputs": [
        {
          "internalType": "uint256",
          "name": "id",
          "type": "uint256"
        },
        {
          "internalType": "string",
          "name": "name",
          "type": "string"
        },
        {
          "internalType": "string",
          "name": "weekly_hour",
          "type": "string"
        },
        {
          "internalType": "string",
          "name": "level",
          "type": "string"
        }
      ],
      "name": "Add_corse",
      "outputs": [],
      "stateMutability": "nonpayable",
      "type": "function"
    },
    {
      "inputs": [
        {
          "internalType": "uint256",
          "name": "course_id",
          "type": "uint256"
        },
        {
          "internalType": "uint256",
          "name": "w_h",
          "type": "uint256"
        },
        {
          "internalType": "uint256",
          "name": "student_id",
          "type": "uint256"
        },
        {
          "internalType": "uint256",
          "name": "_mark",
          "type": "uint256"
        }
      ],
      "name": "add_course_marks",
      "outputs": [],
      "stateMutability": "nonpayable",
      "type": "function"
    },
    {
      "inputs": [
        {
          "internalType": "uint256",
          "name": "_id",
          "type": "uint256"
        },
        {
          "internalType": "string",
          "name": "_firstName",
          "type": "string"
        },
        {
          "internalType": "string",
          "name": "_lastName",
          "type": "string"
        },
        {
          "internalType": "string",
          "name": "_fatherName",
          "type": "string"
        },
        {
          "internalType": "string",
          "name": "_motherName",
          "type": "string"
        },
        {
          "internalType": "string",
          "name": "_gender",
          "type": "string"
        },
        {
          "internalType": "string",
          "name": "_email",
          "type": "string"
        },
        {
          "internalType": "string",
          "name": "_collegeName",
          "type": "string"
        },
        {
          "internalType": "string",
          "name": "_dateOfBirth",
          "type": "string"
        },
        {
          "internalType": "string",
          "name": "_mobileNumber",
          "type": "string"
        }
      ],
      "name": "register_student",
      "outputs": [],
      "stateMutability": "nonpayable",
      "type": "function"
    },
    {
      "inputs": [
        {
          "internalType": "uint256",
          "name": "_id",
          "type": "uint256"
        },
        {
          "internalType": "string",
          "name": "_firstName",
          "type": "string"
        },
        {
          "internalType": "string",
          "name": "_lastName",
          "type": "string"
        },
        {
          "internalType": "string",
          "name": "_fatherName",
          "type": "string"
        },
        {
          "internalType": "string",
          "name": "_motherName",
          "type": "string"
        },
        {
          "internalType": "string",
          "name": "_gender",
          "type": "string"
        },
        {
          "internalType": "string",
          "name": "_email",
          "type": "string"
        },
        {
          "internalType": "string",
          "name": "_collegeName",
          "type": "string"
        },
        {
          "internalType": "string",
          "name": "_dateOfBirth",
          "type": "string"
        },
        {
          "internalType": "string",
          "name": "_mobileNumber",
          "type": "string"
        },
        {
          "internalType": "string",
          "name": "_specialization",
          "type": "string"
        }
      ],
      "name": "register_prof",
      "outputs": [],
      "stateMutability": "nonpayable",
      "type": "function"
    },
    {
      "inputs": [
        {
          "internalType": "address",
          "name": "_x",
          "type": "address"
        }
      ],
      "name": "register_emp",
      "outputs": [],
      "stateMutability": "nonpayable",
      "type": "function"
    },
    {
      "inputs": [
        {
          "internalType": "uint256",
          "name": "_id",
          "type": "uint256"
        },
        {
          "internalType": "string",
          "name": "_warnning",
          "type": "string"
        }
      ],
      "name": "add_warnning",
      "outputs": [],
      "stateMutability": "nonpayable",
      "type": "function"
    },
    {
      "inputs": [
        {
          "internalType": "uint256",
          "name": "_id",
          "type": "uint256"
        }
      ],
      "name": "get_Courses_Of_Student",
      "outputs": [
        {
          "components": [
            {
              "internalType": "uint256",
              "name": "couse_id",
              "type": "uint256"
            },
            {
              "internalType": "uint256",
              "name": "weekly_hours",
              "type": "uint256"
            },
            {
              "internalType": "uint256",
              "name": "mark",
              "type": "uint256"
            }
          ],
          "internalType": "struct test1.student_courses[]",
          "name": "",
          "type": "tuple[]"
        }
      ],
      "stateMutability": "view",
      "type": "function"
    },
    {
      "inputs": [
        {
          "internalType": "uint256",
          "name": "_id",
          "type": "uint256"
        }
      ],
      "name": "get_warnnings",
      "outputs": [
        {
          "internalType": "string[]",
          "name": "b",
          "type": "string[]"
        }
      ],
      "stateMutability": "view",
      "type": "function"
    },
    {
      "inputs": [
        {
          "internalType": "uint256",
          "name": "n",
          "type": "uint256"
        }
      ],
      "name": "Delet_emp",
      "outputs": [],
      "stateMutability": "nonpayable",
      "type": "function"
    },
    {
      "inputs": [
        {
          "internalType": "uint256",
          "name": "_id",
          "type": "uint256"
        }
      ],
      "name": "deleteStudent",
      "outputs": [],
      "stateMutability": "nonpayable",
      "type": "function"
    },
    {
      "inputs": [
        {
          "internalType": "uint256",
          "name": "_id",
          "type": "uint256"
        }
      ],
      "name": "deleteProfessor",
      "outputs": [],
      "stateMutability": "nonpayable",
      "type": "function"
    },
    {
      "inputs": [
        {
          "internalType": "uint256",
          "name": "_id",
          "type": "uint256"
        },
        {
          "internalType": "string",
          "name": "_firstName",
          "type": "string"
        },
        {
          "internalType": "string",
          "name": "_lastName",
          "type": "string"
        },
        {
          "internalType": "string",
          "name": "_fatherName",
          "type": "string"
        },
        {
          "internalType": "string",
          "name": "_motherName",
          "type": "string"
        },
        {
          "internalType": "string",
          "name": "_gender",
          "type": "string"
        },
        {
          "internalType": "string",
          "name": "_email",
          "type": "string"
        },
        {
          "internalType": "string",
          "name": "_collegeName",
          "type": "string"
        },
        {
          "internalType": "string",
          "name": "_dateOfBirth",
          "type": "string"
        },
        {
          "internalType": "string",
          "name": "_mobileNumber",
          "type": "string"
        }
      ],
      "name": "modifyStudent",
      "outputs": [],
      "stateMutability": "nonpayable",
      "type": "function"
    },
    {
      "inputs": [
        {
          "internalType": "uint256",
          "name": "_id",
          "type": "uint256"
        },
        {
          "internalType": "string",
          "name": "_firstName",
          "type": "string"
        },
        {
          "internalType": "string",
          "name": "_lastName",
          "type": "string"
        },
        {
          "internalType": "string",
          "name": "_fatherName",
          "type": "string"
        },
        {
          "internalType": "string",
          "name": "_motherName",
          "type": "string"
        },
        {
          "internalType": "string",
          "name": "_gender",
          "type": "string"
        },
        {
          "internalType": "string",
          "name": "_email",
          "type": "string"
        },
        {
          "internalType": "string",
          "name": "_collegeName",
          "type": "string"
        },
        {
          "internalType": "string",
          "name": "_dateOfBirth",
          "type": "string"
        },
        {
          "internalType": "string",
          "name": "_mobileNumber",
          "type": "string"
        },
        {
          "internalType": "string",
          "name": "_specialization",
          "type": "string"
        }
      ],
      "name": "modifyprof",
      "outputs": [],
      "stateMutability": "nonpayable",
      "type": "function"
    }
  ],
  "bytecode": "0x608060405260006001556000600255600060035534801561001f57600080fd5b50336000806101000a81548173ffffffffffffffffffffffffffffffffffffffff021916908373ffffffffffffffffffffffffffffffffffffffff16021790555061728080620000706000396000f3fe608060405234801561001057600080fd5b506004361061014d5760003560e01c80638c88956f116100c3578063bbb31e761161007c578063bbb31e76146103b2578063c3aea072146103e2578063c464009d14610412578063d0506e371461042e578063f1ddb1d81461044a578063fa10e048146104665761014d565b80638c88956f146102df578063a589f27c146102fb578063a8199eb01461032e578063ad8f4ebe1461035e578063b5e795b41461037a578063b645307d146103965761014d565b806369e1770c1161011557806369e1770c1461020b5780637a9eb362146102295780637b99c656146102455780637dceb6fe146102755780637e5ebed1146102915780638894117d146102c15761014d565b80630fb8a5601461015257806312692ef31461016e578063269b60081461019e578063284b8ad4146101d157806345fbb7b9146101ed575b600080fd5b61016c600480360381019061016791906154be565b610496565b005b61018860048036038101906101839190615521565b6105f8565b604051610195919061564e565b60405180910390f35b6101b860048036038101906101b39190615521565b61068b565b6040516101c8949392919061570f565b60405180910390f35b6101eb60048036038101906101e6919061589e565b610863565b005b6101f5610a11565b6040516102029190615a79565b60405180910390f35b610213610a17565b6040516102209190615a79565b60405180910390f35b610243600480360381019061023e9190615521565b610a1d565b005b61025f600480360381019061025a9190615521565b610c12565b60405161026c9190615d92565b60405180910390f35b61028f600480360381019061028a9190615db4565b612f2b565b005b6102ab60048036038101906102a69190615fc0565b6130ec565b6040516102b89190616000565b60405180910390f35b6102c961329b565b6040516102d69190615a79565b60405180910390f35b6102f960048036038101906102f49190615db4565b6132a1565b005b61031560048036038101906103109190615521565b613828565b604051610325949392919061570f565b60405180910390f35b61034860048036038101906103439190615fc0565b6139f0565b6040516103559190616000565b60405180910390f35b6103786004803603810190610373919061589e565b613b82565b005b610394600480360381019061038f9190615521565b6140b2565b005b6103b060048036038101906103ab9190615521565b614369565b005b6103cc60048036038101906103c79190615521565b614638565b6040516103d99190616031565b60405180910390f35b6103fc60048036038101906103f79190615521565b614677565b60405161040991906160d2565b60405180910390f35b61042c600480360381019061042791906160f4565b61476b565b005b61044860048036038101906104439190616150565b61480f565b005b610464600480360381019061045f919061620b565b61498a565b005b610480600480360381019061047b91906154be565b614a6f565b60405161048d919061628d565b60405180910390f35b3360008054906101000a900473ffffffffffffffffffffffffffffffffffffffff1673ffffffffffffffffffffffffffffffffffffffff168173ffffffffffffffffffffffffffffffffffffffff1614610525576040517f08c379a000000000000000000000000000000000000000000000000000000000815260040161051c906162f4565b60405180910390fd5b8160046000600354815260200190815260200160002060006101000a81548173ffffffffffffffffffffffffffffffffffffffff021916908373ffffffffffffffffffffffffffffffffffffffff1602179055506008829080600181540180825580915050600190039060005260206000200160009091909190916101000a81548173ffffffffffffffffffffffffffffffffffffffff021916908373ffffffffffffffffffffffffffffffffffffffff160217905550600360008154809291906105ef90616343565b91905055505050565b606060066000838152602001908152602001600020600d01805480602002602001604051908101604052809291908181526020016000905b828210156106805783829060005260206000209060030201604051806060016040529081600082015481526020016001820154815260200160028201548152505081526020019060010190610630565b505050509050919050565b6009818154811061069b57600080fd5b90600052602060002090600502016000915090508060000154908060010180546106c4906163ba565b80601f01602080910402602001604051908101604052809291908181526020018280546106f0906163ba565b801561073d5780601f106107125761010080835404028352916020019161073d565b820191906000526020600020905b81548152906001019060200180831161072057829003601f168201915b505050505090806002018054610752906163ba565b80601f016020809104026020016040519081016040528092919081815260200182805461077e906163ba565b80156107cb5780601f106107a0576101008083540402835291602001916107cb565b820191906000526020600020905b8154815290600101906020018083116107ae57829003601f168201915b5050505050908060030180546107e0906163ba565b80601f016020809104026020016040519081016040528092919081815260200182805461080c906163ba565b80156108595780601f1061082e57610100808354040283529160200191610859565b820191906000526020600020905b81548152906001019060200180831161083c57829003601f168201915b5050505050905084565b3360008054906101000a900473ffffffffffffffffffffffffffffffffffffffff1673ffffffffffffffffffffffffffffffffffffffff168173ffffffffffffffffffffffffffffffffffffffff16146108f2576040517f08c379a00000000000000000000000000000000000000000000000000000000081526004016108e9906162f4565b60405180910390fd5b8a600660008d8152602001908152602001600020600001541461094a576040517f08c379a00000000000000000000000000000000000000000000000000000000081526004016109419061645d565b60405180910390fd5b6000600660008d815260200190815260200160002090508a8160010190816109729190616629565b50898160020190816109849190616629565b50888160030190816109969190616629565b50878160040190816109a89190616629565b50868160050190816109ba9190616629565b50858160060190816109cc9190616629565b50848160070190816109de9190616629565b50838160080190816109f09190616629565b5082816009019081610a029190616629565b50505050505050505050505050565b60025481565b60015481565b3360008054906101000a900473ffffffffffffffffffffffffffffffffffffffff1673ffffffffffffffffffffffffffffffffffffffff168173ffffffffffffffffffffffffffffffffffffffff1614610aac576040517f08c379a0000000000000000000000000000000000000000000000000000000008152600401610aa3906162f4565b60405180910390fd5b60088281548110610ac057610abf6166fb565b5b9060005260206000200160006101000a81549073ffffffffffffffffffffffffffffffffffffffff02191690556004600083815260200190815260200160002060006101000a81549073ffffffffffffffffffffffffffffffffffffffff021916905560008290505b600880549050811015610bf55760086001600880549050610b4a919061672a565b81548110610b5b57610b5a6166fb565b5b9060005260206000200160009054906101000a900473ffffffffffffffffffffffffffffffffffffffff1660088481548110610b9a57610b996166fb565b5b9060005260206000200160006101000a81548173ffffffffffffffffffffffffffffffffffffffff021916908373ffffffffffffffffffffffffffffffffffffffff1602179055508080610bed90616343565b915050610b29565b5060036000815480929190610c099061675e565b91905055505050565b610c1a615204565b60008054906101000a900473ffffffffffffffffffffffffffffffffffffffff1673ffffffffffffffffffffffffffffffffffffffff163373ffffffffffffffffffffffffffffffffffffffff16036113755760066000838152602001908152602001600020604051806101c001604052908160008201548152602001600182018054610ca6906163ba565b80601f0160208091040260200160405190810160405280929190818152602001828054610cd2906163ba565b8015610d1f5780601f10610cf457610100808354040283529160200191610d1f565b820191906000526020600020905b815481529060010190602001808311610d0257829003601f168201915b50505050508152602001600282018054610d38906163ba565b80601f0160208091040260200160405190810160405280929190818152602001828054610d64906163ba565b8015610db15780601f10610d8657610100808354040283529160200191610db1565b820191906000526020600020905b815481529060010190602001808311610d9457829003601f168201915b50505050508152602001600382018054610dca906163ba565b80601f0160208091040260200160405190810160405280929190818152602001828054610df6906163ba565b8015610e435780601f10610e1857610100808354040283529160200191610e43565b820191906000526020600020905b815481529060010190602001808311610e2657829003601f168201915b50505050508152602001600482018054610e5c906163ba565b80601f0160208091040260200160405190810160405280929190818152602001828054610e88906163ba565b8015610ed55780601f10610eaa57610100808354040283529160200191610ed5565b820191906000526020600020905b815481529060010190602001808311610eb857829003601f168201915b50505050508152602001600582018054610eee906163ba565b80601f0160208091040260200160405190810160405280929190818152602001828054610f1a906163ba565b8015610f675780601f10610f3c57610100808354040283529160200191610f67565b820191906000526020600020905b815481529060010190602001808311610f4a57829003601f168201915b50505050508152602001600682018054610f80906163ba565b80601f0160208091040260200160405190810160405280929190818152602001828054610fac906163ba565b8015610ff95780601f10610fce57610100808354040283529160200191610ff9565b820191906000526020600020905b815481529060010190602001808311610fdc57829003601f168201915b50505050508152602001600782018054611012906163ba565b80601f016020809104026020016040519081016040528092919081815260200182805461103e906163ba565b801561108b5780601f106110605761010080835404028352916020019161108b565b820191906000526020600020905b81548152906001019060200180831161106e57829003601f168201915b505050505081526020016008820180546110a4906163ba565b80601f01602080910402602001604051908101604052809291908181526020018280546110d0906163ba565b801561111d5780601f106110f25761010080835404028352916020019161111d565b820191906000526020600020905b81548152906001019060200180831161110057829003601f168201915b50505050508152602001600982018054611136906163ba565b80601f0160208091040260200160405190810160405280929190818152602001828054611162906163ba565b80156111af5780601f10611184576101008083540402835291602001916111af565b820191906000526020600020905b81548152906001019060200180831161119257829003601f168201915b50505050508152602001600a8201548152602001600b820160009054906101000a900473ffffffffffffffffffffffffffffffffffffffff1673ffffffffffffffffffffffffffffffffffffffff1673ffffffffffffffffffffffffffffffffffffffff168152602001600c8201805480602002602001604051908101604052809291908181526020016000905b828210156112e957838290600052602060002001805461125c906163ba565b80601f0160208091040260200160405190810160405280929190818152602001828054611288906163ba565b80156112d55780601f106112aa576101008083540402835291602001916112d5565b820191906000526020600020905b8154815290600101906020018083116112b857829003601f168201915b50505050508152602001906001019061123d565b505050508152602001600d8201805480602002602001604051908101604052809291908181526020016000905b828210156113665783829060005260206000209060030201604051806060016040529081600082015481526020016001820154815260200160028201548152505081526020019060010190611316565b50505050815250509050612f26565b6001151561138233614a6f565b151503611a915760066000838152602001908152602001600020604051806101c0016040529081600082015481526020016001820180546113c2906163ba565b80601f01602080910402602001604051908101604052809291908181526020018280546113ee906163ba565b801561143b5780601f106114105761010080835404028352916020019161143b565b820191906000526020600020905b81548152906001019060200180831161141e57829003601f168201915b50505050508152602001600282018054611454906163ba565b80601f0160208091040260200160405190810160405280929190818152602001828054611480906163ba565b80156114cd5780601f106114a2576101008083540402835291602001916114cd565b820191906000526020600020905b8154815290600101906020018083116114b057829003601f168201915b505050505081526020016003820180546114e6906163ba565b80601f0160208091040260200160405190810160405280929190818152602001828054611512906163ba565b801561155f5780601f106115345761010080835404028352916020019161155f565b820191906000526020600020905b81548152906001019060200180831161154257829003601f168201915b50505050508152602001600482018054611578906163ba565b80601f01602080910402602001604051908101604052809291908181526020018280546115a4906163ba565b80156115f15780601f106115c6576101008083540402835291602001916115f1565b820191906000526020600020905b8154815290600101906020018083116115d457829003601f168201915b5050505050815260200160058201805461160a906163ba565b80601f0160208091040260200160405190810160405280929190818152602001828054611636906163ba565b80156116835780601f1061165857610100808354040283529160200191611683565b820191906000526020600020905b81548152906001019060200180831161166657829003601f168201915b5050505050815260200160068201805461169c906163ba565b80601f01602080910402602001604051908101604052809291908181526020018280546116c8906163ba565b80156117155780601f106116ea57610100808354040283529160200191611715565b820191906000526020600020905b8154815290600101906020018083116116f857829003601f168201915b5050505050815260200160078201805461172e906163ba565b80601f016020809104026020016040519081016040528092919081815260200182805461175a906163ba565b80156117a75780601f1061177c576101008083540402835291602001916117a7565b820191906000526020600020905b81548152906001019060200180831161178a57829003601f168201915b505050505081526020016008820180546117c0906163ba565b80601f01602080910402602001604051908101604052809291908181526020018280546117ec906163ba565b80156118395780601f1061180e57610100808354040283529160200191611839565b820191906000526020600020905b81548152906001019060200180831161181c57829003601f168201915b50505050508152602001600982018054611852906163ba565b80601f016020809104026020016040519081016040528092919081815260200182805461187e906163ba565b80156118cb5780601f106118a0576101008083540402835291602001916118cb565b820191906000526020600020905b8154815290600101906020018083116118ae57829003601f168201915b50505050508152602001600a8201548152602001600b820160009054906101000a900473ffffffffffffffffffffffffffffffffffffffff1673ffffffffffffffffffffffffffffffffffffffff1673ffffffffffffffffffffffffffffffffffffffff168152602001600c8201805480602002602001604051908101604052809291908181526020016000905b82821015611a05578382906000526020600020018054611978906163ba565b80601f01602080910402602001604051908101604052809291908181526020018280546119a4906163ba565b80156119f15780601f106119c6576101008083540402835291602001916119f1565b820191906000526020600020905b8154815290600101906020018083116119d457829003601f168201915b505050505081526020019060010190611959565b505050508152602001600d8201805480602002602001604051908101604052809291908181526020016000905b82821015611a825783829060005260206000209060030201604051806060016040529081600082015481526020016001820154815260200160028201548152505081526020019060010190611a32565b50505050815250509050612f26565b60011515611a9e33614b26565b1515036121ad5760066000838152602001908152602001600020604051806101c001604052908160008201548152602001600182018054611ade906163ba565b80601f0160208091040260200160405190810160405280929190818152602001828054611b0a906163ba565b8015611b575780601f10611b2c57610100808354040283529160200191611b57565b820191906000526020600020905b815481529060010190602001808311611b3a57829003601f168201915b50505050508152602001600282018054611b70906163ba565b80601f0160208091040260200160405190810160405280929190818152602001828054611b9c906163ba565b8015611be95780601f10611bbe57610100808354040283529160200191611be9565b820191906000526020600020905b815481529060010190602001808311611bcc57829003601f168201915b50505050508152602001600382018054611c02906163ba565b80601f0160208091040260200160405190810160405280929190818152602001828054611c2e906163ba565b8015611c7b5780601f10611c5057610100808354040283529160200191611c7b565b820191906000526020600020905b815481529060010190602001808311611c5e57829003601f168201915b50505050508152602001600482018054611c94906163ba565b80601f0160208091040260200160405190810160405280929190818152602001828054611cc0906163ba565b8015611d0d5780601f10611ce257610100808354040283529160200191611d0d565b820191906000526020600020905b815481529060010190602001808311611cf057829003601f168201915b50505050508152602001600582018054611d26906163ba565b80601f0160208091040260200160405190810160405280929190818152602001828054611d52906163ba565b8015611d9f5780601f10611d7457610100808354040283529160200191611d9f565b820191906000526020600020905b815481529060010190602001808311611d8257829003601f168201915b50505050508152602001600682018054611db8906163ba565b80601f0160208091040260200160405190810160405280929190818152602001828054611de4906163ba565b8015611e315780601f10611e0657610100808354040283529160200191611e31565b820191906000526020600020905b815481529060010190602001808311611e1457829003601f168201915b50505050508152602001600782018054611e4a906163ba565b80601f0160208091040260200160405190810160405280929190818152602001828054611e76906163ba565b8015611ec35780601f10611e9857610100808354040283529160200191611ec3565b820191906000526020600020905b815481529060010190602001808311611ea657829003601f168201915b50505050508152602001600882018054611edc906163ba565b80601f0160208091040260200160405190810160405280929190818152602001828054611f08906163ba565b8015611f555780601f10611f2a57610100808354040283529160200191611f55565b820191906000526020600020905b815481529060010190602001808311611f3857829003601f168201915b50505050508152602001600982018054611f6e906163ba565b80601f0160208091040260200160405190810160405280929190818152602001828054611f9a906163ba565b8015611fe75780601f10611fbc57610100808354040283529160200191611fe7565b820191906000526020600020905b815481529060010190602001808311611fca57829003601f168201915b50505050508152602001600a8201548152602001600b820160009054906101000a900473ffffffffffffffffffffffffffffffffffffffff1673ffffffffffffffffffffffffffffffffffffffff1673ffffffffffffffffffffffffffffffffffffffff168152602001600c8201805480602002602001604051908101604052809291908181526020016000905b82821015612121578382906000526020600020018054612094906163ba565b80601f01602080910402602001604051908101604052809291908181526020018280546120c0906163ba565b801561210d5780601f106120e25761010080835404028352916020019161210d565b820191906000526020600020905b8154815290600101906020018083116120f057829003601f168201915b505050505081526020019060010190612075565b505050508152602001600d8201805480602002602001604051908101604052809291908181526020016000905b8282101561219e578382906000526020600020906003020160405180606001604052908160008201548152602001600182015481526020016002820154815250508152602001906001019061214e565b50505050815250509050612f26565b600115156121ba33614bd4565b1515036128c95760066000838152602001908152602001600020604051806101c0016040529081600082015481526020016001820180546121fa906163ba565b80601f0160208091040260200160405190810160405280929190818152602001828054612226906163ba565b80156122735780601f1061224857610100808354040283529160200191612273565b820191906000526020600020905b81548152906001019060200180831161225657829003601f168201915b5050505050815260200160028201805461228c906163ba565b80601f01602080910402602001604051908101604052809291908181526020018280546122b8906163ba565b80156123055780601f106122da57610100808354040283529160200191612305565b820191906000526020600020905b8154815290600101906020018083116122e857829003601f168201915b5050505050815260200160038201805461231e906163ba565b80601f016020809104026020016040519081016040528092919081815260200182805461234a906163ba565b80156123975780601f1061236c57610100808354040283529160200191612397565b820191906000526020600020905b81548152906001019060200180831161237a57829003601f168201915b505050505081526020016004820180546123b0906163ba565b80601f01602080910402602001604051908101604052809291908181526020018280546123dc906163ba565b80156124295780601f106123fe57610100808354040283529160200191612429565b820191906000526020600020905b81548152906001019060200180831161240c57829003601f168201915b50505050508152602001600582018054612442906163ba565b80601f016020809104026020016040519081016040528092919081815260200182805461246e906163ba565b80156124bb5780601f10612490576101008083540402835291602001916124bb565b820191906000526020600020905b81548152906001019060200180831161249e57829003601f168201915b505050505081526020016006820180546124d4906163ba565b80601f0160208091040260200160405190810160405280929190818152602001828054612500906163ba565b801561254d5780601f106125225761010080835404028352916020019161254d565b820191906000526020600020905b81548152906001019060200180831161253057829003601f168201915b50505050508152602001600782018054612566906163ba565b80601f0160208091040260200160405190810160405280929190818152602001828054612592906163ba565b80156125df5780601f106125b4576101008083540402835291602001916125df565b820191906000526020600020905b8154815290600101906020018083116125c257829003601f168201915b505050505081526020016008820180546125f8906163ba565b80601f0160208091040260200160405190810160405280929190818152602001828054612624906163ba565b80156126715780601f1061264657610100808354040283529160200191612671565b820191906000526020600020905b81548152906001019060200180831161265457829003601f168201915b5050505050815260200160098201805461268a906163ba565b80601f01602080910402602001604051908101604052809291908181526020018280546126b6906163ba565b80156127035780601f106126d857610100808354040283529160200191612703565b820191906000526020600020905b8154815290600101906020018083116126e657829003601f168201915b50505050508152602001600a8201548152602001600b820160009054906101000a900473ffffffffffffffffffffffffffffffffffffffff1673ffffffffffffffffffffffffffffffffffffffff1673ffffffffffffffffffffffffffffffffffffffff168152602001600c8201805480602002602001604051908101604052809291908181526020016000905b8282101561283d5783829060005260206000200180546127b0906163ba565b80601f01602080910402602001604051908101604052809291908181526020018280546127dc906163ba565b80156128295780601f106127fe57610100808354040283529160200191612829565b820191906000526020600020905b81548152906001019060200180831161280c57829003601f168201915b505050505081526020019060010190612791565b505050508152602001600d8201805480602002602001604051908101604052809291908181526020016000905b828210156128ba578382906000526020600020906003020160405180606001604052908160008201548152602001600182015481526020016002820154815250508152602001906001019061286a565b50505050815250509050612f26565b60006006600084815260200190815260200160002090506128e8615204565b8160010180546128f7906163ba565b80601f0160208091040260200160405190810160405280929190818152602001828054612923906163ba565b80156129705780601f1061294557610100808354040283529160200191612970565b820191906000526020600020905b81548152906001019060200180831161295357829003601f168201915b5050505050816020018190525081600201805461298c906163ba565b80601f01602080910402602001604051908101604052809291908181526020018280546129b8906163ba565b8015612a055780601f106129da57610100808354040283529160200191612a05565b820191906000526020600020905b8154815290600101906020018083116129e857829003601f168201915b50505050508160400181905250816003018054612a21906163ba565b80601f0160208091040260200160405190810160405280929190818152602001828054612a4d906163ba565b8015612a9a5780601f10612a6f57610100808354040283529160200191612a9a565b820191906000526020600020905b815481529060010190602001808311612a7d57829003601f168201915b50505050508160600181905250816004018054612ab6906163ba565b80601f0160208091040260200160405190810160405280929190818152602001828054612ae2906163ba565b8015612b2f5780601f10612b0457610100808354040283529160200191612b2f565b820191906000526020600020905b815481529060010190602001808311612b1257829003601f168201915b50505050508160800181905250816005018054612b4b906163ba565b80601f0160208091040260200160405190810160405280929190818152602001828054612b77906163ba565b8015612bc45780601f10612b9957610100808354040283529160200191612bc4565b820191906000526020600020905b815481529060010190602001808311612ba757829003601f168201915b50505050508160a001819052506040518060400160405280600481526020017f6e756c6c000000000000000000000000000000000000000000000000000000008152508160c00181905250816007018054612c1e906163ba565b80601f0160208091040260200160405190810160405280929190818152602001828054612c4a906163ba565b8015612c975780601f10612c6c57610100808354040283529160200191612c97565b820191906000526020600020905b815481529060010190602001808311612c7a57829003601f168201915b50505050508160e00181905250816008018054612cb3906163ba565b80601f0160208091040260200160405190810160405280929190818152602001828054612cdf906163ba565b8015612d2c5780601f10612d0157610100808354040283529160200191612d2c565b820191906000526020600020905b815481529060010190602001808311612d0f57829003601f168201915b50505050508161010001819052506040518060400160405280600481526020017f6e756c6c0000000000000000000000000000000000000000000000000000000081525081610120018190525081600a015481610140018181525050600081610160019073ffffffffffffffffffffffffffffffffffffffff16908173ffffffffffffffffffffffffffffffffffffffff168152505081600c01805480602002602001604051908101604052809291908181526020016000905b82821015612e92578382906000526020600020018054612e05906163ba565b80601f0160208091040260200160405190810160405280929190818152602001828054612e31906163ba565b8015612e7e5780601f10612e5357610100808354040283529160200191612e7e565b820191906000526020600020905b815481529060010190602001808311612e6157829003601f168201915b505050505081526020019060010190612de6565b5050505081610180018190525081600d01805480602002602001604051908101604052809291908181526020016000905b82821015612f135783829060005260206000209060030201604051806060016040529081600082015481526020016001820154815260200160028201548152505081526020019060010190612ec3565b50505050816101a0018190525080925050505b919050565b3360008054906101000a900473ffffffffffffffffffffffffffffffffffffffff1673ffffffffffffffffffffffffffffffffffffffff168173ffffffffffffffffffffffffffffffffffffffff1614612fba576040517f08c379a0000000000000000000000000000000000000000000000000000000008152600401612fb1906162f4565b60405180910390fd5b8b600560008e81526020019081526020016000206000015414613012576040517f08c379a0000000000000000000000000000000000000000000000000000000008152600401613009906167f9565b60405180910390fd5b6000600560008e815260200190815260200160002090508b81600101908161303a9190616629565b508a81600201908161304c9190616629565b508981600301908161305e9190616629565b50888160040190816130709190616629565b50878160050190816130829190616629565b50868160060190816130949190616629565b50858160070190816130a69190616629565b50848160080190816130b89190616629565b50838160090190816130ca9190616629565b508281600a0190816130dc9190616629565b5050505050505050505050505050565b606033600115156130fc82614a6f565b15151461313e576040517f08c379a000000000000000000000000000000000000000000000000000000000815260040161313590616865565b60405180910390fd5b60006040518060400160405280601681526020017f74686973206964206973206e6f7420636f727265637400000000000000000000815250905060006040518060400160405280601781526020017f54686520616464726573732077617320656e74657265640000000000000000008152509050600115156131bf87614c82565b15150361328e5760006005600088815260200190815260200160002090508581600b0160006101000a81548173ffffffffffffffffffffffffffffffffffffffff021916908373ffffffffffffffffffffffffffffffffffffffff160217905550600c869080600181540180825580915050600190039060005260206000200160009091909190916101000a81548173ffffffffffffffffffffffffffffffffffffffff021916908373ffffffffffffffffffffffffffffffffffffffff160217905550819450505050613294565b81935050505b5092915050565b60035481565b3360008054906101000a900473ffffffffffffffffffffffffffffffffffffffff1673ffffffffffffffffffffffffffffffffffffffff168173ffffffffffffffffffffffffffffffffffffffff1614613330576040517f08c379a0000000000000000000000000000000000000000000000000000000008152600401613327906162f4565b60405180910390fd5b60008c11613373576040517f08c379a000000000000000000000000000000000000000000000000000000000815260040161336a906168f7565b60405180910390fd5b60008b51116133b7576040517f08c379a00000000000000000000000000000000000000000000000000000000081526004016133ae90616963565b60405180910390fd5b60008a51116133fb576040517f08c379a00000000000000000000000000000000000000000000000000000000081526004016133f2906169cf565b60405180910390fd5b600089511161343f576040517f08c379a000000000000000000000000000000000000000000000000000000000815260040161343690616a3b565b60405180910390fd5b6000885111613483576040517f08c379a000000000000000000000000000000000000000000000000000000000815260040161347a90616aa7565b60405180910390fd5b60008751116134c7576040517f08c379a00000000000000000000000000000000000000000000000000000000081526004016134be90616b13565b60405180910390fd5b600086511161350b576040517f08c379a000000000000000000000000000000000000000000000000000000000815260040161350290616b7f565b60405180910390fd5b61351486614ce4565b613553576040517f08c379a000000000000000000000000000000000000000000000000000000000815260040161354a90616beb565b60405180910390fd5b6000855111613597576040517f08c379a000000000000000000000000000000000000000000000000000000000815260040161358e90616c57565b60405180910390fd5b60008451116135db576040517f08c379a00000000000000000000000000000000000000000000000000000000081526004016135d290616cc3565b60405180910390fd5b6135e484614e08565b613623576040517f08c379a000000000000000000000000000000000000000000000000000000000815260040161361a90616d2f565b60405180910390fd5b6000835111613667576040517f08c379a000000000000000000000000000000000000000000000000000000000815260040161365e90616d9b565b60405180910390fd5b60008251116136ab576040517f08c379a00000000000000000000000000000000000000000000000000000000081526004016136a290616e07565b60405180910390fd5b6000600560008e81526020019081526020016000206000015414613704576040517f08c379a00000000000000000000000000000000000000000000000000000000081526004016136fb90616e73565b60405180910390fd5b6000600560008e815260200190815260200160002090508c81600001819055508b8160010190816137359190616629565b508a8160020190816137479190616629565b50898160030190816137599190616629565b508881600401908161376b9190616629565b508781600501908161377d9190616629565b508681600601908161378f9190616629565b50858160070190816137a19190616629565b50848160080190816137b39190616629565b50838160090190816137c59190616629565b508281600a0190816137d79190616629565b50600d8d90806001815401808255809150506001900390600052602060002001600090919091909150556002600081548092919061381490616343565b919050555050505050505050505050505050565b6007602052806000526040600020600091509050806000015490806001018054613851906163ba565b80601f016020809104026020016040519081016040528092919081815260200182805461387d906163ba565b80156138ca5780601f1061389f576101008083540402835291602001916138ca565b820191906000526020600020905b8154815290600101906020018083116138ad57829003601f168201915b5050505050908060020180546138df906163ba565b80601f016020809104026020016040519081016040528092919081815260200182805461390b906163ba565b80156139585780601f1061392d57610100808354040283529160200191613958565b820191906000526020600020905b81548152906001019060200180831161393b57829003601f168201915b50505050509080600301805461396d906163ba565b80601f0160208091040260200160405190810160405280929190818152602001828054613999906163ba565b80156139e65780601f106139bb576101008083540402835291602001916139e6565b820191906000526020600020905b8154815290600101906020018083116139c957829003601f168201915b5050505050905084565b60603360011515613a0082614a6f565b151514613a42576040517f08c379a0000000000000000000000000000000000000000000000000000000008152600401613a3990616865565b60405180910390fd5b60006040518060400160405280601681526020017f74686973206964206973206e6f7420636f7272656374000000000000000000008152509050600060405180606001604052806024815260200161722760249139905060011515613aa687615019565b151503613b755760006006600088815260200190815260200160002090508581600b0160006101000a81548173ffffffffffffffffffffffffffffffffffffffff021916908373ffffffffffffffffffffffffffffffffffffffff160217905550600a869080600181540180825580915050600190039060005260206000200160009091909190916101000a81548173ffffffffffffffffffffffffffffffffffffffff021916908373ffffffffffffffffffffffffffffffffffffffff160217905550819450505050613b7b565b81935050505b5092915050565b3360008054906101000a900473ffffffffffffffffffffffffffffffffffffffff1673ffffffffffffffffffffffffffffffffffffffff168173ffffffffffffffffffffffffffffffffffffffff1614613c11576040517f08c379a0000000000000000000000000000000000000000000000000000000008152600401613c08906162f4565b60405180910390fd5b60008b11613c54576040517f08c379a0000000000000000000000000000000000000000000000000000000008152600401613c4b90616f05565b60405180910390fd5b60008a5111613c98576040517f08c379a0000000000000000000000000000000000000000000000000000000008152600401613c8f90616963565b60405180910390fd5b6000895111613cdc576040517f08c379a0000000000000000000000000000000000000000000000000000000008152600401613cd3906169cf565b60405180910390fd5b6000885111613d20576040517f08c379a0000000000000000000000000000000000000000000000000000000008152600401613d1790616a3b565b60405180910390fd5b6000875111613d64576040517f08c379a0000000000000000000000000000000000000000000000000000000008152600401613d5b90616aa7565b60405180910390fd5b6000865111613da8576040517f08c379a0000000000000000000000000000000000000000000000000000000008152600401613d9f90616b13565b60405180910390fd5b6000855111613dec576040517f08c379a0000000000000000000000000000000000000000000000000000000008152600401613de390616b7f565b60405180910390fd5b613df585614ce4565b613e34576040517f08c379a0000000000000000000000000000000000000000000000000000000008152600401613e2b90616beb565b60405180910390fd5b6000845111613e78576040517f08c379a0000000000000000000000000000000000000000000000000000000008152600401613e6f90616c57565b60405180910390fd5b6000835111613ebc576040517f08c379a0000000000000000000000000000000000000000000000000000000008152600401613eb390616cc3565b60405180910390fd5b613ec583614e08565b613f04576040517f08c379a0000000000000000000000000000000000000000000000000000000008152600401613efb90616d2f565b60405180910390fd5b6000825111613f48576040517f08c379a0000000000000000000000000000000000000000000000000000000008152600401613f3f90616d9b565b60405180910390fd5b6000600660008d81526020019081526020016000206000015414613fa1576040517f08c379a0000000000000000000000000000000000000000000000000000000008152600401613f9890616f71565b60405180910390fd5b6000600660008d815260200190815260200160002090508b81600001819055508a816001019081613fd29190616629565b5089816002019081613fe49190616629565b5088816003019081613ff69190616629565b50878160040190816140089190616629565b508681600501908161401a9190616629565b508581600601908161402c9190616629565b508481600701908161403e9190616629565b50838160080190816140509190616629565b50828160090190816140629190616629565b50600b8c90806001815401808255809150506001900390600052602060002001600090919091909150556001600081548092919061409f90616343565b9190505550505050505050505050505050565b3360008054906101000a900473ffffffffffffffffffffffffffffffffffffffff1673ffffffffffffffffffffffffffffffffffffffff168173ffffffffffffffffffffffffffffffffffffffff1614614141576040517f08c379a0000000000000000000000000000000000000000000000000000000008152600401614138906162f4565b60405180910390fd5b61414a82614c82565b614189576040517f08c379a000000000000000000000000000000000000000000000000000000000815260040161418090617003565b60405180910390fd5b600560008381526020019081526020016000206000808201600090556001820160006141b59190615289565b6002820160006141c59190615289565b6003820160006141d59190615289565b6004820160006141e59190615289565b6005820160006141f59190615289565b6006820160006142059190615289565b6007820160006142159190615289565b6008820160006142259190615289565b6009820160006142359190615289565b600a820160006142459190615289565b600b820160006101000a81549073ffffffffffffffffffffffffffffffffffffffff02191690555050600080600090505b600d805490508110156142c35783600d8281548110614298576142976166fb565b5b9060005260206000200154036142b0578091506142c3565b80806142bb90616343565b915050614276565b50600d8054905081101561434c57600d6001600d805490506142e5919061672a565b815481106142f6576142f56166fb565b5b9060005260206000200154600d8281548110614315576143146166fb565b5b9060005260206000200181905550600d80548061433557614334617023565b5b600190038181906000526020600020016000905590555b6002600081548092919061435f9061675e565b9190505550505050565b3360008054906101000a900473ffffffffffffffffffffffffffffffffffffffff1673ffffffffffffffffffffffffffffffffffffffff168173ffffffffffffffffffffffffffffffffffffffff16146143f8576040517f08c379a00000000000000000000000000000000000000000000000000000000081526004016143ef906162f4565b60405180910390fd5b61440182615019565b614440576040517f08c379a00000000000000000000000000000000000000000000000000000000081526004016144379061645d565b60405180910390fd5b6006600083815260200190815260200160002060008082016000905560018201600061446c9190615289565b60028201600061447c9190615289565b60038201600061448c9190615289565b60048201600061449c9190615289565b6005820160006144ac9190615289565b6006820160006144bc9190615289565b6007820160006144cc9190615289565b6008820160006144dc9190615289565b6009820160006144ec9190615289565b600a820160009055600b820160006101000a81549073ffffffffffffffffffffffffffffffffffffffff0219169055600c8201600061452b91906152c9565b600d8201600061453b91906152ea565b5050600080600090505b600b805490508110156145925783600b8281548110614567576145666166fb565b5b90600052602060002001540361457f57809150614592565b808061458a90616343565b915050614545565b50600b8054905081101561461b57600b6001600b805490506145b4919061672a565b815481106145c5576145c46166fb565b5b9060005260206000200154600b82815481106145e4576145e36166fb565b5b9060005260206000200181905550600b80548061460457614603617023565b5b600190038181906000526020600020016000905590555b6001600081548092919061462e9061675e565b9190505550505050565b6008818154811061464857600080fd5b906000526020600020016000915054906101000a900473ffffffffffffffffffffffffffffffffffffffff1681565b60608060066000848152602001908152602001600020600c01805480602002602001604051908101604052809291908181526020016000905b8282101561475c5783829060005260206000200180546146cf906163ba565b80601f01602080910402602001604051908101604052809291908181526020018280546146fb906163ba565b80156147485780601f1061471d57610100808354040283529160200191614748565b820191906000526020600020905b81548152906001019060200180831161472b57829003601f168201915b5050505050815260200190600101906146b0565b50505050905080915050919050565b336001151561477982614a6f565b1515146147bb576040517f08c379a00000000000000000000000000000000000000000000000000000000081526004016147b290616865565b60405180910390fd5b600082905060066000858152602001908152602001600020600c01819080600181540180825580915050600190039060005260206000200160009091909190915090816148089190616629565b5050505050565b3360008054906101000a900473ffffffffffffffffffffffffffffffffffffffff1673ffffffffffffffffffffffffffffffffffffffff168173ffffffffffffffffffffffffffffffffffffffff161461489e576040517f08c379a0000000000000000000000000000000000000000000000000000000008152600401614895906162f4565b60405180910390fd5b6000600760008781526020019081526020016000209050858160000181905550848160010190816148cf9190616629565b50838160020190816148e19190616629565b50828160030190816148f39190616629565b506009819080600181540180825580915050600190039060005260206000209060050201600090919091909150600082015481600001556001820181600101908161493e9190617068565b50600282018160020190816149539190617068565b50600382018160030190816149689190617068565b50600482018160040190805461497f92919061530e565b505050505050505050565b336001151561499882614a6f565b1515146149da576040517f08c379a00000000000000000000000000000000000000000000000000000000081526004016149d190616865565b60405180910390fd5b60006007600087815260200190815260200160002090506149f961537a565b84816000018181525050838160200181815250508160040181908060018154018082558091505060019003906000526020600020906002020160009091909190915060008201518160000155602082015181600101555050614a5d8787878761507b565b614a668561510e565b50505050505050565b60008060009050600354811015614b1f578080614a8b90616343565b9150506008600182614a9d919061672a565b81548110614aae57614aad6166fb565b5b9060005260206000200160009054906101000a900473ffffffffffffffffffffffffffffffffffffffff1673ffffffffffffffffffffffffffffffffffffffff168373ffffffffffffffffffffffffffffffffffffffff1603614b15576001915050614b21565b6000915050614b21565b505b919050565b600080600090505b600a80549050811015614bc957600a8181548110614b4f57614b4e6166fb565b5b9060005260206000200160009054906101000a900473ffffffffffffffffffffffffffffffffffffffff1673ffffffffffffffffffffffffffffffffffffffff168373ffffffffffffffffffffffffffffffffffffffff1603614bb6576001915050614bcf565b8080614bc190616343565b915050614b2e565b50600090505b919050565b600080600090505b600c80549050811015614c7757600c8181548110614bfd57614bfc6166fb565b5b9060005260206000200160009054906101000a900473ffffffffffffffffffffffffffffffffffffffff1673ffffffffffffffffffffffffffffffffffffffff168373ffffffffffffffffffffffffffffffffffffffff1603614c64576001915050614c7d565b8080614c6f90616343565b915050614bdc565b50600090505b919050565b600080600090505b600d80549050811015614cd957600d8181548110614cab57614caa6166fb565b5b90600052602060002001548303614cc6576001915050614cdf565b8080614cd190616343565b915050614c8a565b50600090505b919050565b60008082905060008151905060006001905060006001905060005b83811015614df0577f4000000000000000000000000000000000000000000000000000000000000000858281518110614d3b57614d3a6166fb565b5b602001015160f81c60f81b7effffffffffffffffffffffffffffffffffffffffffffffffffffffffffffff191603614d7257600092505b7f2e00000000000000000000000000000000000000000000000000000000000000858281518110614da657614da56166fb565b5b602001015160f81c60f81b7effffffffffffffffffffffffffffffffffffffffffffffffffffffffffffff191603614ddd57600091505b8080614de890616343565b915050614cff565b5081158015614dfd575080155b945050505050919050565b600080829050600a815114614e21576000915050615014565b7f2d0000000000000000000000000000000000000000000000000000000000000081600481518110614e5657614e556166fb565b5b602001015160f81c60f81b7effffffffffffffffffffffffffffffffffffffffffffffffffffffffffffff1916141580614ef057507f2d0000000000000000000000000000000000000000000000000000000000000081600781518110614ec057614ebf6166fb565b5b602001015160f81c60f81b7effffffffffffffffffffffffffffffffffffffffffffffffffffffffffffff191614155b15614eff576000915050615014565b60005b815181101561500d576004811480614f1a5750600781145b614ffa577f3000000000000000000000000000000000000000000000000000000000000000828281518110614f5257614f516166fb565b5b602001015160f81c60f81b7effffffffffffffffffffffffffffffffffffffffffffffffffffffffffffff19161080614fe957507f3900000000000000000000000000000000000000000000000000000000000000828281518110614fba57614fb96166fb565b5b602001015160f81c60f81b7effffffffffffffffffffffffffffffffffffffffffffffffffffffffffffff1916115b15614ff957600092505050615014565b5b808061500590616343565b915050614f02565b5060019150505b919050565b600080600090505b600b8054905081101561507057600b8181548110615042576150416166fb565b5b9060005260206000200154830361505d576001915050615076565b808061506890616343565b915050615021565b50600090505b919050565b600060066000848152602001908152602001600020905061509a615394565b85816000018181525050828160400181815250508481602001818152505081600d018190806001815401808255809150506001900390600052602060002090600302016000909190919091506000820151816000015560208201518160010155604082015181600201555050505050505050565b600060066000838152602001908152602001600020905060008060005b83600d01805490508110156151e95783600d0181815481106151505761514f6166fb565b5b9060005260206000209060030201600101548361516d9190617150565b925083600d018181548110615185576151846166fb565b5b90600052602060002090600302016001015484600d0182815481106151ad576151ac6166fb565b5b9060005260206000209060030201600201546151c99190617184565b826151d49190617150565b915080806151e190616343565b91505061512b565b5081816151f691906171f5565b83600a018190555050505050565b604051806101c001604052806000815260200160608152602001606081526020016060815260200160608152602001606081526020016060815260200160608152602001606081526020016060815260200160008152602001600073ffffffffffffffffffffffffffffffffffffffff16815260200160608152602001606081525090565b508054615295906163ba565b6000825580601f106152a757506152c6565b601f0160209004906000526020600020908101906152c591906153b5565b5b50565b50805460008255906000526020600020908101906152e791906153d2565b50565b508054600082556003029060005260206000209081019061530b91906153f6565b50565b8280548282559060005260206000209060020281019282156153695760005260206000209160020282015b828111156153685782826000820154816000015560018201548160010155505091600201919060020190615339565b5b5090506153769190615425565b5090565b604051806040016040528060008152602001600081525090565b60405180606001604052806000815260200160008152602001600081525090565b5b808211156153ce5760008160009055506001016153b6565b5090565b5b808211156153f257600081816153e99190615289565b506001016153d3565b5090565b5b808211156154215760008082016000905560018201600090556002820160009055506003016153f7565b5090565b5b8082111561544857600080820160009055600182016000905550600201615426565b5090565b6000604051905090565b600080fd5b600080fd5b600073ffffffffffffffffffffffffffffffffffffffff82169050919050565b600061548b82615460565b9050919050565b61549b81615480565b81146154a657600080fd5b50565b6000813590506154b881615492565b92915050565b6000602082840312156154d4576154d3615456565b5b60006154e2848285016154a9565b91505092915050565b6000819050919050565b6154fe816154eb565b811461550957600080fd5b50565b60008135905061551b816154f5565b92915050565b60006020828403121561553757615536615456565b5b60006155458482850161550c565b91505092915050565b600081519050919050565b600082825260208201905092915050565b6000819050602082019050919050565b615583816154eb565b82525050565b60608201600082015161559f600085018261557a565b5060208201516155b2602085018261557a565b5060408201516155c5604085018261557a565b50505050565b60006155d78383615589565b60608301905092915050565b6000602082019050919050565b60006155fb8261554e565b6156058185615559565b93506156108361556a565b8060005b8381101561564157815161562888826155cb565b9750615633836155e3565b925050600181019050615614565b5085935050505092915050565b6000602082019050818103600083015261566881846155f0565b905092915050565b615679816154eb565b82525050565b600081519050919050565b600082825260208201905092915050565b60005b838110156156b957808201518184015260208101905061569e565b60008484015250505050565b6000601f19601f8301169050919050565b60006156e18261567f565b6156eb818561568a565b93506156fb81856020860161569b565b615704816156c5565b840191505092915050565b60006080820190506157246000830187615670565b818103602083015261573681866156d6565b9050818103604083015261574a81856156d6565b9050818103606083015261575e81846156d6565b905095945050505050565b600080fd5b600080fd5b7f4e487b7100000000000000000000000000000000000000000000000000000000600052604160045260246000fd5b6157ab826156c5565b810181811067ffffffffffffffff821117156157ca576157c9615773565b5b80604052505050565b60006157dd61544c565b90506157e982826157a2565b919050565b600067ffffffffffffffff82111561580957615808615773565b5b615812826156c5565b9050602081019050919050565b82818337600083830152505050565b600061584161583c846157ee565b6157d3565b90508281526020810184848401111561585d5761585c61576e565b5b61586884828561581f565b509392505050565b600082601f83011261588557615884615769565b5b813561589584826020860161582e565b91505092915050565b6000806000806000806000806000806101408b8d0312156158c2576158c1615456565b5b60006158d08d828e0161550c565b9a505060208b013567ffffffffffffffff8111156158f1576158f061545b565b5b6158fd8d828e01615870565b99505060408b013567ffffffffffffffff81111561591e5761591d61545b565b5b61592a8d828e01615870565b98505060608b013567ffffffffffffffff81111561594b5761594a61545b565b5b6159578d828e01615870565b97505060808b013567ffffffffffffffff8111156159785761597761545b565b5b6159848d828e01615870565b96505060a08b013567ffffffffffffffff8111156159a5576159a461545b565b5b6159b18d828e01615870565b95505060c08b013567ffffffffffffffff8111156159d2576159d161545b565b5b6159de8d828e01615870565b94505060e08b013567ffffffffffffffff8111156159ff576159fe61545b565b5b615a0b8d828e01615870565b9350506101008b013567ffffffffffffffff811115615a2d57615a2c61545b565b5b615a398d828e01615870565b9250506101208b013567ffffffffffffffff811115615a5b57615a5a61545b565b5b615a678d828e01615870565b9150509295989b9194979a5092959850565b6000602082019050615a8e6000830184615670565b92915050565b600082825260208201905092915050565b6000615ab08261567f565b615aba8185615a94565b9350615aca81856020860161569b565b615ad3816156c5565b840191505092915050565b615ae781615480565b82525050565b600081519050919050565b600082825260208201905092915050565b6000819050602082019050919050565b6000615b258383615aa5565b905092915050565b6000602082019050919050565b6000615b4582615aed565b615b4f8185615af8565b935083602082028501615b6185615b09565b8060005b85811015615b9d5784840389528151615b7e8582615b19565b9450615b8983615b2d565b925060208a01995050600181019050615b65565b50829750879550505050505092915050565b600082825260208201905092915050565b6000615bcb8261554e565b615bd58185615baf565b9350615be08361556a565b8060005b83811015615c11578151615bf888826155cb565b9750615c03836155e3565b925050600181019050615be4565b5085935050505092915050565b60006101c083016000830151615c37600086018261557a565b5060208301518482036020860152615c4f8282615aa5565b91505060408301518482036040860152615c698282615aa5565b91505060608301518482036060860152615c838282615aa5565b91505060808301518482036080860152615c9d8282615aa5565b91505060a083015184820360a0860152615cb78282615aa5565b91505060c083015184820360c0860152615cd18282615aa5565b91505060e083015184820360e0860152615ceb8282615aa5565b915050610100830151848203610100860152615d078282615aa5565b915050610120830151848203610120860152615d238282615aa5565b915050610140830151615d3a61014086018261557a565b50610160830151615d4f610160860182615ade565b50610180830151848203610180860152615d698282615b3a565b9150506101a08301518482036101a0860152615d858282615bc0565b9150508091505092915050565b60006020820190508181036000830152615dac8184615c1e565b905092915050565b60008060008060008060008060008060006101608c8e031215615dda57615dd9615456565b5b6000615de88e828f0161550c565b9b505060208c013567ffffffffffffffff811115615e0957615e0861545b565b5b615e158e828f01615870565b9a505060408c013567ffffffffffffffff811115615e3657615e3561545b565b5b615e428e828f01615870565b99505060608c013567ffffffffffffffff811115615e6357615e6261545b565b5b615e6f8e828f01615870565b98505060808c013567ffffffffffffffff811115615e9057615e8f61545b565b5b615e9c8e828f01615870565b97505060a08c013567ffffffffffffffff811115615ebd57615ebc61545b565b5b615ec98e828f01615870565b96505060c08c013567ffffffffffffffff811115615eea57615ee961545b565b5b615ef68e828f01615870565b95505060e08c013567ffffffffffffffff811115615f1757615f1661545b565b5b615f238e828f01615870565b9450506101008c013567ffffffffffffffff811115615f4557615f4461545b565b5b615f518e828f01615870565b9350506101208c013567ffffffffffffffff811115615f7357615f7261545b565b5b615f7f8e828f01615870565b9250506101408c013567ffffffffffffffff811115615fa157615fa061545b565b5b615fad8e828f01615870565b9150509295989b509295989b9093969950565b60008060408385031215615fd757615fd6615456565b5b6000615fe58582860161550c565b9250506020615ff6858286016154a9565b9150509250929050565b6000602082019050818103600083015261601a81846156d6565b905092915050565b61602b81615480565b82525050565b60006020820190506160466000830184616022565b92915050565b600082825260208201905092915050565b600061606882615aed565b616072818561604c565b93508360208202850161608485615b09565b8060005b858110156160c057848403895281516160a18582615b19565b94506160ac83615b2d565b925060208a01995050600181019050616088565b50829750879550505050505092915050565b600060208201905081810360008301526160ec818461605d565b905092915050565b6000806040838503121561610b5761610a615456565b5b60006161198582860161550c565b925050602083013567ffffffffffffffff81111561613a5761613961545b565b5b61614685828601615870565b9150509250929050565b6000806000806080858703121561616a57616169615456565b5b60006161788782880161550c565b945050602085013567ffffffffffffffff8111156161995761619861545b565b5b6161a587828801615870565b935050604085013567ffffffffffffffff8111156161c6576161c561545b565b5b6161d287828801615870565b925050606085013567ffffffffffffffff8111156161f3576161f261545b565b5b6161ff87828801615870565b91505092959194509250565b6000806000806080858703121561622557616224615456565b5b60006162338782880161550c565b94505060206162448782880161550c565b93505060406162558782880161550c565b92505060606162668782880161550c565b91505092959194509250565b60008115159050919050565b61628781616272565b82525050565b60006020820190506162a2600083018461627e565b92915050565b7f6f6e6c792041646d696e00000000000000000000000000000000000000000000600082015250565b60006162de600a8361568a565b91506162e9826162a8565b602082019050919050565b6000602082019050818103600083015261630d816162d1565b9050919050565b7f4e487b7100000000000000000000000000000000000000000000000000000000600052601160045260246000fd5b600061634e826154eb565b91507fffffffffffffffffffffffffffffffffffffffffffffffffffffffffffffffff82036163805761637f616314565b5b600182019050919050565b7f4e487b7100000000000000000000000000000000000000000000000000000000600052602260045260246000fd5b600060028204905060018216806163d257607f821691505b6020821081036163e5576163e461638b565b5b50919050565b7f53747564656e74207769746820676976656e20494420646f6573206e6f74206560008201527f7869737400000000000000000000000000000000000000000000000000000000602082015250565b600061644760248361568a565b9150616452826163eb565b604082019050919050565b600060208201905081810360008301526164768161643a565b9050919050565b60008190508160005260206000209050919050565b60006020601f8301049050919050565b600082821b905092915050565b6000600883026164df7fffffffffffffffffffffffffffffffffffffffffffffffffffffffffffffffff826164a2565b6164e986836164a2565b95508019841693508086168417925050509392505050565b6000819050919050565b600061652661652161651c846154eb565b616501565b6154eb565b9050919050565b6000819050919050565b6165408361650b565b61655461654c8261652d565b8484546164af565b825550505050565b600090565b61656961655c565b616574818484616537565b505050565b5b818110156165985761658d600082616561565b60018101905061657a565b5050565b601f8211156165dd576165ae8161647d565b6165b784616492565b810160208510156165c6578190505b6165da6165d285616492565b830182616579565b50505b505050565b600082821c905092915050565b6000616600600019846008026165e2565b1980831691505092915050565b600061661983836165ef565b9150826002028217905092915050565b6166328261567f565b67ffffffffffffffff81111561664b5761664a615773565b5b61665582546163ba565b61666082828561659c565b600060209050601f8311600181146166935760008415616681578287015190505b61668b858261660d565b8655506166f3565b601f1984166166a18661647d565b60005b828110156166c9578489015182556001820191506020850194506020810190506166a4565b868310156166e657848901516166e2601f8916826165ef565b8355505b6001600288020188555050505b505050505050565b7f4e487b7100000000000000000000000000000000000000000000000000000000600052603260045260246000fd5b6000616735826154eb565b9150616740836154eb565b925082820390508181111561675857616757616314565b5b92915050565b6000616769826154eb565b91506000820361677c5761677b616314565b5b600182039050919050565b7f70726f66207769746820676976656e20494420646f6573206e6f74206578697360008201527f7400000000000000000000000000000000000000000000000000000000000000602082015250565b60006167e360218361568a565b91506167ee82616787565b604082019050919050565b60006020820190508181036000830152616812816167d6565b9050919050565b7f6f6e6c7920656d706c6f79656573000000000000000000000000000000000000600082015250565b600061684f600e8361568a565b915061685a82616819565b602082019050919050565b6000602082019050818103600083015261687e81616842565b9050919050565b7f70726f66204944206d7573742062652067726561746572207468616e207a657260008201527f6f00000000000000000000000000000000000000000000000000000000000000602082015250565b60006168e160218361568a565b91506168ec82616885565b604082019050919050565b60006020820190508181036000830152616910816168d4565b9050919050565b7f4669727374206e616d65206d757374206e6f7420626520656d70747900000000600082015250565b600061694d601c8361568a565b915061695882616917565b602082019050919050565b6000602082019050818103600083015261697c81616940565b9050919050565b7f4c617374206e616d65206d757374206e6f7420626520656d7074790000000000600082015250565b60006169b9601b8361568a565b91506169c482616983565b602082019050919050565b600060208201905081810360008301526169e8816169ac565b9050919050565b7f466174686572206e616d65206d757374206e6f7420626520656d707479000000600082015250565b6000616a25601d8361568a565b9150616a30826169ef565b602082019050919050565b60006020820190508181036000830152616a5481616a18565b9050919050565b7f4d6f74686572206e616d65206d757374206e6f7420626520656d707479000000600082015250565b6000616a91601d8361568a565b9150616a9c82616a5b565b602082019050919050565b60006020820190508181036000830152616ac081616a84565b9050919050565b7f67656e646572206d757374206e6f7420626520656d7074790000000000000000600082015250565b6000616afd60188361568a565b9150616b0882616ac7565b602082019050919050565b60006020820190508181036000830152616b2c81616af0565b9050919050565b7f456d61696c206d757374206e6f7420626520656d707479000000000000000000600082015250565b6000616b6960178361568a565b9150616b7482616b33565b602082019050919050565b60006020820190508181036000830152616b9881616b5c565b9050919050565b7f496e76616c696420656d61696c20666f726d6174000000000000000000000000600082015250565b6000616bd560148361568a565b9150616be082616b9f565b602082019050919050565b60006020820190508181036000830152616c0481616bc8565b9050919050565b7f636f6c6c656765206e616d65206d757374206e6f7420626520656d7074790000600082015250565b6000616c41601e8361568a565b9150616c4c82616c0b565b602082019050919050565b60006020820190508181036000830152616c7081616c34565b9050919050565b7f646174654f664269727468206d757374206e6f7420626520656d707479000000600082015250565b6000616cad601d8361568a565b9150616cb882616c77565b602082019050919050565b60006020820190508181036000830152616cdc81616ca0565b9050919050565b7f496e76616c6964206461746520666f726d617400000000000000000000000000600082015250565b6000616d1960138361568a565b9150616d2482616ce3565b602082019050919050565b60006020820190508181036000830152616d4881616d0c565b9050919050565b7f6d6f62696c654e756d626572206d757374206e6f7420626520656d7074790000600082015250565b6000616d85601e8361568a565b9150616d9082616d4f565b602082019050919050565b60006020820190508181036000830152616db481616d78565b9050919050565b7f7370656369616c697a6174696f6e206d757374206e6f7420626520656d707479600082015250565b6000616df160208361568a565b9150616dfc82616dbb565b602082019050919050565b60006020820190508181036000830152616e2081616de4565b9050919050565b7f70726f6620494420616c72656164792065786973747300000000000000000000600082015250565b6000616e5d60168361568a565b9150616e6882616e27565b602082019050919050565b60006020820190508181036000830152616e8c81616e50565b9050919050565b7f53747564656e74204944206d7573742062652067726561746572207468616e2060008201527f7a65726f00000000000000000000000000000000000000000000000000000000602082015250565b6000616eef60248361568a565b9150616efa82616e93565b604082019050919050565b60006020820190508181036000830152616f1e81616ee2565b9050919050565b7f53747564656e7420494420616c72656164792065786973747300000000000000600082015250565b6000616f5b60198361568a565b9150616f6682616f25565b602082019050919050565b60006020820190508181036000830152616f8a81616f4e565b9050919050565b7f50726f666573736f72207769746820676976656e20494420646f6573206e6f7460008201527f2065786973740000000000000000000000000000000000000000000000000000602082015250565b6000616fed60268361568a565b9150616ff882616f91565b604082019050919050565b6000602082019050818103600083015261701c81616fe0565b9050919050565b7f4e487b7100000000000000000000000000000000000000000000000000000000600052603160045260246000fd5b600081549050617061816163ba565b9050919050565b81810361707657505061714e565b61707f82617052565b67ffffffffffffffff81111561709857617097615773565b5b6170a282546163ba565b6170ad82828561659c565b6000601f8311600181146170dc57600084156170ca578287015490505b6170d4858261660d565b865550617147565b601f1984166170ea8761647d565b96506170f58661647d565b60005b8281101561711d578489015482556001820191506001850194506020810190506170f8565b8683101561713a5784890154617136601f8916826165ef565b8355505b6001600288020188555050505b5050505050505b565b600061715b826154eb565b9150617166836154eb565b925082820190508082111561717e5761717d616314565b5b92915050565b600061718f826154eb565b915061719a836154eb565b92508282026171a8816154eb565b915082820484148315176171bf576171be616314565b5b5092915050565b7f4e487b7100000000000000000000000000000000000000000000000000000000600052601260045260246000fd5b6000617200826154eb565b915061720b836154eb565b92508261721b5761721a6171c6565b5b82820490509291505056fe54686520616464726573732077617320656e7465726564207375636365737366756c6c79a264697066735822122003aba74c0170d024db54ed23446076dd6579308ff7c61a49a90c084536f3bca664736f6c63430008110033",
  "immutableReferences": {},
  "source": "// SPDX-License-Identifier: MIT\r\npragma solidity >=0.4.22 <0.9.0;\r\n\r\ncontract test1 {\r\n    address is_admin;\r\n    constructor() {\r\n        is_admin = msg.sender;\r\n    }\r\n\r\n    //---------------------------------- structures ---------------------------------------------------------------\r\n    struct course_grade {\r\n        uint student_id;\r\n        uint mark;\r\n    }\r\n\r\n    struct student_courses {\r\n        uint couse_id;\r\n        uint weekly_hours;\r\n        uint mark;\r\n    }\r\n\r\n    struct course {\r\n        uint id;\r\n        string name;\r\n        string weekly_hour;\r\n        string level;\r\n        course_grade[] students_grades;\r\n    }\r\n\r\n    struct prof {\r\n        uint id;\r\n        string firstName;\r\n        string lastName;\r\n        string fatherName;\r\n        string motherName;\r\n        string gender;\r\n        string email;\r\n        string collegeName;\r\n        string dateOfBirth;\r\n        string mobileNumber;\r\n        string specialization;\r\n        address prof_address;\r\n    }\r\n\r\n    struct student {\r\n        uint id;\r\n        string firstName;\r\n        string lastName;\r\n        string fatherName;\r\n        string motherName;\r\n        string gender;\r\n        string email;\r\n        string collegeName;\r\n        string dateOfBirth;\r\n        string mobileNumber;\r\n        uint256 cumulative_averge;\r\n        address student_address;\r\n        string[] warnnings;\r\n        student_courses[] all_courses;\r\n    }\r\n\r\n    //---------------------------------- tools ----------------------------------------------------------------------\r\n\r\n    modifier onlyemp(address v) {\r\n        require(ChekIfEmp(v) == true, \"only employees\");\r\n        _;\r\n    }\r\n\r\n    modifier onlyAdmin(address x) {\r\n        require(x == is_admin, \"only Admin\");\r\n        _;\r\n    }\r\n\r\n    uint public s_counter = 0;\r\n    uint public p_counter = 0;\r\n    uint public e_counter = 0;\r\n\r\n    mapping(uint => address) private get_emp;\r\n    mapping(uint => prof) private get_prof;\r\n    mapping(uint => student) private get_student;\r\n    mapping(uint => course) public get_course;\r\n\r\n    address[] public all_employees;\r\n    course[] public spu_courses;\r\n\r\n    address[] private all_students;\r\n    uint[] private all_students_id;\r\n\r\n    address[] private all_profs;\r\n    uint[] private all_profs_id;\r\n    //------------------------------------- Auxiliary functions --------------------------------------\r\n\r\n    function ChekIfEmp(address y) public view returns (bool b) {\r\n        uint i = 0;\r\n        while (i < e_counter) {\r\n            i++;\r\n            if (y == all_employees[i - 1]) return true;\r\n            else return false;\r\n        }\r\n    }\r\n    function ChekIfstudent(uint _id) private view returns (bool b) {\r\n        for (uint i = 0; i < all_students_id.length; i++) {\r\n            if (_id == all_students_id[i]) {\r\n                return true;\r\n            }\r\n        }\r\n        return false;\r\n    }\r\n\r\n    function ChekIfstudentaddress(address x) private view returns (bool b) {\r\n        for (uint i = 0; i < all_students.length; i++) {\r\n            if (x == all_students[i]) {\r\n                return true;\r\n            }\r\n        }\r\n        return false;\r\n    }\r\n\r\n    function ChekIfprofaddress(address x) private view returns (bool b) {\r\n        for (uint i = 0; i < all_profs.length; i++) {\r\n            if (x == all_profs[i]) {\r\n                return true;\r\n            }\r\n        }\r\n        return false;\r\n    }\r\n\r\n    function ChekIfprof(uint _id) private view returns (bool b) {\r\n        for (uint i = 0; i < all_profs_id.length; i++) {\r\n            if (_id == all_profs_id[i]) {\r\n                return true;\r\n            }\r\n        }\r\n        return false;\r\n    }\r\n\r\n    function add_mark_To_Student(\r\n        uint course_id,\r\n        uint w_h,\r\n        uint s_id,\r\n        uint _mark\r\n    ) private {\r\n        student storage s = get_student[s_id];\r\n        student_courses memory f;\r\n        f.couse_id = course_id;\r\n        f.mark = _mark;\r\n        f.weekly_hours = w_h;\r\n\r\n        s.all_courses.push(f);\r\n    }\r\n\r\n    function set_cumulative_averge(uint student_id) private {\r\n        student storage s = get_student[student_id];\r\n        uint256 t_h = 0;\r\n        uint256 v = 0;\r\n        for (uint i = 0; i < s.all_courses.length; i++) {\r\n            t_h = t_h + s.all_courses[i].weekly_hours;\r\n            v = v + (s.all_courses[i].mark * s.all_courses[i].weekly_hours);\r\n        }\r\n\r\n        s.cumulative_averge = v / t_h;\r\n    }\r\n\r\n    function add_address_to_student(\r\n        uint _id,\r\n        address _address\r\n    ) public onlyemp(msg.sender) returns (string memory) {\r\n        string memory err = \"this id is not correct\";\r\n        string memory don = \"The address was entered successfully\";\r\n\r\n        if (ChekIfstudent(_id) == true) {\r\n            student storage s = get_student[_id];\r\n            s.student_address = _address;\r\n            all_students.push(_address);\r\n            return don;\r\n        } else return err;\r\n    }\r\n\r\n    function add_address_to_prof(\r\n        uint _id,\r\n        address _address\r\n    ) public onlyemp(msg.sender) returns (string memory) {\r\n        string memory err = \"this id is not correct\";\r\n        string memory don = \"The address was entered\";\r\n\r\n        if (ChekIfprof(_id) == true) {\r\n            prof storage s = get_prof[_id];\r\n            s.prof_address = _address;\r\n            all_profs.push(_address);\r\n            return don;\r\n        } else return err;\r\n    }\r\n\r\n    function validateEmail(string memory _email) internal pure returns (bool) {\r\n        bytes memory b = bytes(_email);\r\n        uint emailLength = b.length;\r\n        bool noAtSign = true;\r\n        bool noDot = true;\r\n\r\n        for (uint i = 0; i < emailLength; i++) {\r\n            if (b[i] == \"@\") {\r\n                noAtSign = false;\r\n            }\r\n            if (b[i] == \".\") {\r\n                noDot = false;\r\n            }\r\n        }\r\n\r\n        return !noAtSign && !noDot;\r\n    }\r\n    function isValidDateFormat(\r\n        string memory _date\r\n    ) internal pure returns (bool) {\r\n        bytes memory b = bytes(_date);\r\n        if (b.length != 10) {\r\n            return false;\r\n        }\r\n\r\n        if (b[4] != \"-\" || b[7] != \"-\") {\r\n            return false;\r\n        }\r\n\r\n        for (uint i = 0; i < b.length; i++) {\r\n            if (i == 4 || i == 7) {\r\n                continue;\r\n            }\r\n            if (b[i] < \"0\" || b[i] > \"9\") {\r\n                return false;\r\n            }\r\n        }\r\n\r\n        return true;\r\n    }\r\n    //------------------------------------------ main functions ----------------------------------------------------\r\n    function view_student(uint id) public view returns (student memory k) {\r\n        if (msg.sender == is_admin) {\r\n            return get_student[id];\r\n        } else if (ChekIfEmp(msg.sender) == true) {\r\n            return get_student[id];\r\n        } else if (ChekIfstudentaddress(msg.sender) == true) {\r\n            return get_student[id];\r\n        } else if (ChekIfprofaddress(msg.sender) == true) {\r\n            return get_student[id];\r\n        } else {\r\n            student storage s = get_student[id];\r\n            student memory v;\r\n            v.firstName = s.firstName;\r\n            v.lastName = s.lastName;\r\n            v.fatherName = s.fatherName;\r\n            v.motherName = s.motherName;\r\n            v.gender = s.gender;\r\n            v.email = \"null\";\r\n            v.collegeName = s.collegeName;\r\n            v.dateOfBirth = s.dateOfBirth;\r\n            v.mobileNumber = \"null\";\r\n            v.cumulative_averge = s.cumulative_averge;\r\n            v.student_address = 0x0000000000000000000000000000000000000000;\r\n            v.warnnings = s.warnnings;\r\n            v.all_courses = s.all_courses;\r\n            return v;\r\n        }\r\n    }\r\n\r\n    function Add_corse(\r\n        uint id,\r\n        string memory name,\r\n        string memory weekly_hour,\r\n        string memory level\r\n    ) public onlyAdmin(msg.sender) {\r\n        course storage b = get_course[id];\r\n        b.id = id;\r\n        b.name = name;\r\n        b.weekly_hour = weekly_hour;\r\n        b.level = level;\r\n        spu_courses.push(b);\r\n    }\r\n\r\n    function add_course_marks(\r\n        uint course_id,\r\n        uint w_h,\r\n        uint student_id,\r\n        uint _mark\r\n    ) public onlyemp(msg.sender) {\r\n        course storage c = get_course[course_id];\r\n        course_grade memory g;\r\n        g.student_id = student_id;\r\n        g.mark = _mark;\r\n        c.students_grades.push(g);\r\n\r\n        add_mark_To_Student(course_id, w_h, student_id, _mark);\r\n        set_cumulative_averge(student_id);\r\n    }\r\n\r\n    function register_student(\r\n        uint _id,\r\n        string memory _firstName,\r\n        string memory _lastName,\r\n        string memory _fatherName,\r\n        string memory _motherName,\r\n        string memory _gender,\r\n        string memory _email,\r\n        string memory _collegeName,\r\n        string memory _dateOfBirth,\r\n        string memory _mobileNumber\r\n    ) public onlyAdmin(msg.sender) {\r\n        require(_id > 0, \"Student ID must be greater than zero\");\r\n        require(bytes(_firstName).length > 0, \"First name must not be empty\");\r\n        require(bytes(_lastName).length > 0, \"Last name must not be empty\");\r\n        require(bytes(_fatherName).length > 0, \"Father name must not be empty\");\r\n        require(bytes(_motherName).length > 0, \"Mother name must not be empty\");\r\n        require(bytes(_gender).length > 0, \"gender must not be empty\");\r\n        require(bytes(_email).length > 0, \"Email must not be empty\");\r\n        require(validateEmail(_email), \"Invalid email format\");\r\n        require(\r\n            bytes(_collegeName).length > 0,\r\n            \"college name must not be empty\"\r\n        );\r\n        require(\r\n            bytes(_dateOfBirth).length > 0,\r\n            \"dateOfBirth must not be empty\"\r\n        );\r\n        require(isValidDateFormat(_dateOfBirth), \"Invalid date format\");\r\n        require(\r\n            bytes(_mobileNumber).length > 0,\r\n            \"mobileNumber must not be empty\"\r\n        );\r\n        require(get_student[_id].id == 0, \"Student ID already exists\");\r\n\r\n        student storage s = get_student[_id];\r\n        s.id = _id;\r\n        s.firstName = _firstName;\r\n        s.lastName = _lastName;\r\n        s.fatherName = _fatherName;\r\n        s.motherName = _motherName;\r\n        s.gender = _gender;\r\n        s.email = _email;\r\n        s.collegeName = _collegeName;\r\n        s.dateOfBirth = _dateOfBirth;\r\n        s.mobileNumber = _mobileNumber;\r\n\r\n        all_students_id.push(_id);\r\n        s_counter++;\r\n    }\r\n\r\n    function register_prof(\r\n        uint _id,\r\n        string memory _firstName,\r\n        string memory _lastName,\r\n        string memory _fatherName,\r\n        string memory _motherName,\r\n        string memory _gender,\r\n        string memory _email,\r\n        string memory _collegeName,\r\n        string memory _dateOfBirth,\r\n        string memory _mobileNumber,\r\n        string memory _specialization\r\n    ) public onlyAdmin(msg.sender) {\r\n        require(_id > 0, \"prof ID must be greater than zero\");\r\n        require(bytes(_firstName).length > 0, \"First name must not be empty\");\r\n        require(bytes(_lastName).length > 0, \"Last name must not be empty\");\r\n        require(bytes(_fatherName).length > 0, \"Father name must not be empty\");\r\n        require(bytes(_motherName).length > 0, \"Mother name must not be empty\");\r\n        require(bytes(_gender).length > 0, \"gender must not be empty\");\r\n        require(bytes(_email).length > 0, \"Email must not be empty\");\r\n        require(validateEmail(_email), \"Invalid email format\");\r\n        require(\r\n            bytes(_collegeName).length > 0,\r\n            \"college name must not be empty\"\r\n        );\r\n        require(\r\n            bytes(_dateOfBirth).length > 0,\r\n            \"dateOfBirth must not be empty\"\r\n        );\r\n        require(isValidDateFormat(_dateOfBirth), \"Invalid date format\");\r\n        require(\r\n            bytes(_mobileNumber).length > 0,\r\n            \"mobileNumber must not be empty\"\r\n        );\r\n        require(\r\n            bytes(_specialization).length > 0,\r\n            \"specialization must not be empty\"\r\n        );\r\n        require(get_prof[_id].id == 0, \"prof ID already exists\");\r\n\r\n        prof storage s = get_prof[_id];\r\n\r\n        s.id = _id;\r\n        s.firstName = _firstName;\r\n        s.lastName = _lastName;\r\n        s.fatherName = _fatherName;\r\n        s.motherName = _motherName;\r\n        s.gender = _gender;\r\n        s.email = _email;\r\n        s.collegeName = _collegeName;\r\n        s.dateOfBirth = _dateOfBirth;\r\n        s.mobileNumber = _mobileNumber;\r\n        s.specialization = _specialization;\r\n\r\n        all_profs_id.push(_id);\r\n\r\n        p_counter++;\r\n    }\r\n\r\n    function register_emp(address _x) public onlyAdmin(msg.sender) {\r\n        get_emp[e_counter] = _x;\r\n        all_employees.push(_x);\r\n        e_counter++;\r\n    }\r\n\r\n    function add_warnning(\r\n        uint _id,\r\n        string memory _warnning\r\n    ) public onlyemp(msg.sender) {\r\n        string memory w = _warnning;\r\n        get_student[_id].warnnings.push(w);\r\n    }\r\n\r\n    function get_Courses_Of_Student(\r\n        uint _id\r\n    ) public view returns (student_courses[] memory) {\r\n        return get_student[_id].all_courses;\r\n    }\r\n\r\n    function get_warnnings(uint _id) public view returns (string[] memory b) {\r\n        string[] memory e;\r\n        e = get_student[_id].warnnings;\r\n        return e;\r\n    }\r\n\r\n    function Delet_emp(uint n) public onlyAdmin(msg.sender) {\r\n        delete all_employees[n];\r\n        delete get_emp[n];\r\n\r\n        for (uint i = n; i < all_employees.length; i++) {\r\n            all_employees[n] = all_employees[all_employees.length - 1];\r\n        }\r\n        e_counter--;\r\n    }\r\n\r\n    function deleteStudent(uint _id) public onlyAdmin(msg.sender) {\r\n        require(ChekIfstudent(_id), \"Student with given ID does not exist\");\r\n\r\n        delete get_student[_id];\r\n        uint indexToDelete;\r\n        for (uint i = 0; i < all_students_id.length; i++) {\r\n            if (all_students_id[i] == _id) {\r\n                indexToDelete = i;\r\n                break;\r\n            }\r\n        }\r\n\r\n        if (indexToDelete < all_students_id.length) {\r\n            all_students_id[indexToDelete] = all_students_id[\r\n                all_students_id.length - 1\r\n            ];\r\n            all_students_id.pop();\r\n        }\r\n        s_counter--;\r\n    }\r\n\r\n    function deleteProfessor(uint _id) public onlyAdmin(msg.sender) {\r\n        require(ChekIfprof(_id), \"Professor with given ID does not exist\");\r\n\r\n        delete get_prof[_id];\r\n        uint indexToDelete;\r\n        for (uint i = 0; i < all_profs_id.length; i++) {\r\n            if (all_profs_id[i] == _id) {\r\n                indexToDelete = i;\r\n                break;\r\n            }\r\n        }\r\n\r\n        if (indexToDelete < all_profs_id.length) {\r\n            all_profs_id[indexToDelete] = all_profs_id[all_profs_id.length - 1];\r\n            all_profs_id.pop();\r\n        }\r\n        p_counter--;\r\n    }\r\n\r\n    function modifyStudent(\r\n        uint _id,\r\n        string memory _firstName,\r\n        string memory _lastName,\r\n        string memory _fatherName,\r\n        string memory _motherName,\r\n        string memory _gender,\r\n        string memory _email,\r\n        string memory _collegeName,\r\n        string memory _dateOfBirth,\r\n        string memory _mobileNumber\r\n    ) public onlyAdmin(msg.sender) {\r\n        require(\r\n            get_student[_id].id == _id,\r\n            \"Student with given ID does not exist\"\r\n        );\r\n\r\n        student storage s = get_student[_id];\r\n        s.firstName = _firstName;\r\n        s.lastName = _lastName;\r\n        s.fatherName = _fatherName;\r\n        s.motherName = _motherName;\r\n        s.gender = _gender;\r\n        s.email = _email;\r\n        s.collegeName = _collegeName;\r\n        s.dateOfBirth = _dateOfBirth;\r\n        s.mobileNumber = _mobileNumber;\r\n    }\r\n\r\n    function modifyprof(\r\n        uint _id,\r\n        string memory _firstName,\r\n        string memory _lastName,\r\n        string memory _fatherName,\r\n        string memory _motherName,\r\n        string memory _gender,\r\n        string memory _email,\r\n        string memory _collegeName,\r\n        string memory _dateOfBirth,\r\n        string memory _mobileNumber,\r\n        string memory _specialization\r\n    ) public onlyAdmin(msg.sender) {\r\n        require(get_prof[_id].id == _id, \"prof with given ID does not exist\");\r\n\r\n        prof storage s = get_prof[_id];\r\n        s.firstName = _firstName;\r\n        s.lastName = _lastName;\r\n        s.fatherName = _fatherName;\r\n        s.motherName = _motherName;\r\n        s.gender = _gender;\r\n        s.email = _email;\r\n        s.collegeName = _collegeName;\r\n        s.dateOfBirth = _dateOfBirth;\r\n        s.mobileNumber = _mobileNumber;\r\n        s.specialization = _specialization;\r\n    }\r\n}\r\n",
  "sourcePath": "D:\\block_chain\\truffle1\\contracts\\spu.sol",
  "compiler": {
    "name": "solc",
    "version": "0.8.17+commit.8df45f5f.Emscripten.clang"
  },
  "schemaVersion": "3.4.16",
  "updatedAt": "2024-04-16T20:45:12.678Z",
  "devdoc": {
    "kind": "dev",
    "methods": {},
    "version": 1
  },
  "userdoc": {
    "kind": "user",
    "methods": {},
    "version": 1
  }
}